:100000000C94CE0E0C94FF0E0C94FF0E0C94FF0E6D
:100010000C94FF0E0C94FF0E0C94FF0E0C94FF0E2C
:100020000C94FF0E0C94FF0E0C94FF0E0C94FF0E1C
:100030000C94FF0E0C94FF0E0C94FF0E0C94FF0E0C
:100040000C94FF0E0C94F2470C94FF0E0C94FF0ED0
:100050000C94FF0E0C94FF0E0C94E7550C94035572
:100060000C94FF0E0C9429B30C94FF0E0C94FF0E0D
:100070000C94FF0E0C94FF0E0C94FF0E0C94FF0ECC
:100080000C94FF0E0C94FF0E0C94FF0E0C94FF0EBC
:100090000C94FF0E0C94FF0E0C94FF0E0C94FF0EAC
:1000A0000C94FF0E0C94FF0E0C94FF0E0C94FF0E9C
:1000B0000C94FF0E0C94FF0E0C94FF0E0C94FF0E8C
:1000C0000C94FF0E0C94FF0E0C94FF0E0C94305306
:1000D0000C9407530C94FF0E0C94FF0E0C94FF0E1F
:1000E0000C94FF0E7C267528AE2A5529D83ED83EA2
:1000F0005B2DCD2D192ED83ED83E5630D932313316
:10010000D83ED433D83ED83E2935D83ED83E4A389A
:10011000C6385B39363BC13BA552A85297529B5219
:10012000A152DF52AC52B052B652BA52BE52C45271
:10013000C852CC52DF52D252D652DA521F542454F3
:10014000295433543D54B65447544F545754615472
:100150006B54755484548E54B6549854A254AC5471
:100160004E414E494E495459494E46CDCCCC3D0A9C
:10017000D7233C17B7D13877CC2B329595E6241F7F
:10018000B14F0A000020410000C84200401C462038
:10019000BCBE4CCA1B0E5AAEC59D7400407A10F30B
:1001A0005A00A0724E18090010A5D4E80000E876A5
:1001B00048170000E40B54020000CA9A3B000000FC
:1001C000E1F505000080969800000040420F000015
:1001D00000A08601000000102700000000E80300D6
:1001E0000000006400000000000A000000000001A0
:1001F00000000000002C76D888DC674F0823DFC1A0
:10020000DFAE59E1B1B796E5E3E453C63AE651995A
:100210007696E8E6C28426EB898C9B62ED407C6F83
:10022000FCEFBC9C9F40F2BAA56FA5F490055A2A3A
:10023000F75C936B6CF9676DC11BFCE0E40D47FE46
:10024000F520E6B500D0ED902E030094357705003B
:1002500080841E080000204E0A000000C80C3333C2
:1002600033330F986E12831141EF8D2114893BE6D1
:100270005516CFFEE6DB18D1844B381BF77C1D905A
:100280001DA4BBE424203284725E228100C9F124C3
:10029000ECA1E53D27434F4D4D554E49434154494F
:1002A0004F4E0044525952554E004552524F5253F0
:1002B00000494E464F004543484F0020746F6F2061
:1002C0006C6F6E6720657874727573696F6E2070DD
:1002D000726576656E7465640A0020636F6C6420D5
:1002E000657874727573696F6E2070726576656E6D
:1002F0007465640A00456E642066696C65206C69EB
:1003000073740A00426567696E2066696C65206CCB
:100310006973740A002E0A0046696C652862696E6A
:10032000292064656C657465640044656C65746956
:100330006F6E2862696E29206661696C656400537E
:1003400044207072696E74696E67206279746520EA
:10035000004E6F74205344207072696E74696E672A
:100360000A0046696C652064656C657465643A00D2
:1003700044656C6574696F6E206661696C65642C98
:100380002046696C653A20006F70656E2066616971
:100390006C65642C2046696C653A20002569730001
:1003A00025696D20256973002569682025696D2000
:1003B00025697300256964202569682025696D20F9
:1003C00025697300256979202569642025696820DD
:1003D00025696D20256973005072696E74207469F7
:1003E0006D653A200050726F7465637465642050C7
:1003F000696E0A00B602B102AA02A30295026F66F4
:10040000660044454255473A004B494C4C45442E02
:1004100020004D3131332053006F6B004361703A3F
:10042000454D455247454E43595F50415253455201
:100430003A300A004361703A434153455F4C4947A3
:1004400048545F4252494748544E4553533A300A44
:10045000004361703A544F47474C455F4C49474809
:1004600054533A300A004361703A534F465457414F
:1004700052455F504F5745523A300A004361703A37
:100480004C4556454C494E475F444154413A300A29
:10049000004361703A5A5F50524F42453A300A0069
:1004A0004361703A4155544F4C4556454C3A300AD9
:1004B000004361703A5052494E545F4A4F423A31BC
:1004C0000A004361703A50524F47524553533A30F5
:1004D0000A004361703A4155544F5245504F5254AF
:1004E0005F54454D503A310A004361703A454550DA
:1004F000524F4D3A310A004649524D574152455FDD
:100500004E414D453A4D61726C696E2056657220C0
:10051000312E37302E312028437265616C69747931
:1005200033442920534F555243455F434F44455F61
:1005300055524C3A68747470733A2F2F6769746817
:1005400075622E636F6D2F4D61726C696E466972B4
:100550006D776172652F4D61726C696E2050524FDC
:10056000544F434F4C5F56455253494F4E3A312EEC
:1005700030204D414348494E455F545950453A3328
:1005800044205072696E7465722045585452554427
:1005900045525F434F554E543A3220555549443ADF
:1005A00063656465326132662D343161322D3437D2
:1005B00034382D396231322D633535633632663346
:1005C000363766660A002F2F20007A5F6D696E3A13
:1005D0002000795F6D696E3A2000785F6D696E3A30
:1005E00020005265706F7274696E6720656E647367
:1005F000746F70207374617475730A00536574743A
:10060000696E672054726176656C20416363656C26
:1006100065726174696F6E3A200053657474696E17
:1006200067205265747261637420416363656C6511
:10063000726174696F6E3A200053657474696E67F5
:10064000205072696E7420416363656C65726174D9
:10065000696F6E3A200053657474696E672050723A
:10066000696E7420616E642054726176656C2041FD
:100670006363656C65726174696F6E3A2000205A1D
:1006800000205900580020204D61783A2000205A5F
:1006900000205900580020204D696E3A20004F6E0E
:1006A00020004F666600536F667420656E64737435
:1006B0006F70733A2000000136372603FF3C3D3847
:1006C0000EFF2E303E12FFFF0C0809FFFFFF1A1C21
:1006D00018FFFF24221EFFFF08440AFF43FFFFFF0D
:1006E000FFFFFF20643A0020693A0020703A00437F
:1006F000290A0061626C656420286D696E2074654A
:100700006D702000436F6C64206578747275646549
:1007100073206172652000546F6F206661722066DD
:10072000726F6D207265666572656E636520706FAD
:10073000696E740A004E6F2063617365206C69678F
:1007400068740A004163746976652045787472752F
:100750006465723A2000556E6B6E6F776E20636F22
:100760006D6D616E643A2022004D3234004D32339B
:1007700020257300542569004D3130362053323521
:1007800035004D31303920532569004D3139302045
:100790005325690047393220452573004730205AD8
:1007A0002573004D31303920532569004D313930E2
:1007B00020532569004D323400473238004731203C
:1007C00046313030205A30004731205833302059DC
:1007D0003237302046333630300047312046313012
:1007E00030205A330047312046313030205A300013
:1007F000473120583237302059323730204633368F
:1008000030300047312046313030205A33004731F4
:100810002046313030205A300047312058323730AE
:1008200020593330204633363030004731204631AE
:100830003030205A330047312046313030205A3092
:10084000004731205833302059333020463336307A
:10085000300047312046313030205A3300473120B4
:1008600046313030205A300047312058313535205C
:100870005931353520463336303000473120463146
:100880003030205A33004D38340047312046323062
:1008900030205A302E300047323800473932204558
:1008A0002573004730205A2573004D3130392053CD
:1008B0002569004D313930205325690047323820F1
:1008C0005830205930002020506C616E6E657242A5
:1008D000756666657242797465733A2000204672C7
:1008E0006565204D656D6F72793A2000436F6D70BC
:1008F000696C65643A2041756720203220323031BE
:10090000390A00207C20417574686F723A20435286
:100910002D580A00323031392D30372D3236002033
:100920004C61737420557064617465643A2000569C
:10093000657220312E37302E310A004D61726C699C
:100940006E0020536F66747761726520526573651F
:10095000740A00205761746368646F67205265737E
:1009600065740A002042726F776E206F7574205292
:10097000657365740A002045787465726E616C2039
:1009800052657365740A00506F77657255700A007E
:1009900073746172740A006572726F722077726983
:1009A00074696E6720746F2066696C650A00205A4E
:1009B0003A0020593A0020583A00656E6473746F0B
:1009C0007073206869743A2000446F6E652073610B
:1009D00076696E672066696C652E0A004D323900B3
:1009E0002E0A006F70656E206661696C65642C204C
:1009F00046696C653A200057726974696E672074A5
:100A00006F2066696C653A2000534420636172640C
:100A1000206F6B0A006F70656E526F6F7420666195
:100A2000696C65640A00766F6C756D652E696E6918
:100A300074206661696C65640A004572726F723A6F
:100A400000534420696E6974206661696C0A004D28
:100A50003234004D3233202573006175746F25697F
:100A60002E6700656E7175657565696E6720220079
:100A70006563686F3A00544845524D414C205255C9
:100A80004E4157415900546865726D616C20527532
:100A90006E617761790024F4D43050C38E20C2A2F5
:100AA0004017828B7011127A910D816CD90AA8615E
:100AB000E108C7586607615143061E4B5D05C145F5
:100AC000A7041A411104093D9803713931034036D6
:100AD000DB0265339102D4305402802E1D02632C58
:100AE000EE01752AC501B028A001102781018F25CC
:100AF00064012B244B01E0223401AC211F018D2025
:100B00000D01801FFC00841EED00971DDF00B81C46
:100B1000D200E61BC600201BBC00641AB200B2194A
:100B2000A8000A19A0006A189900D117910040176F
:100B30008B00B516840031167E00B31579003A1586
:100B40007300C7146F0058146A00EE136600881310
:100B5000630025135E00C7125B006C12570015126C
:100B60005400C111510070114F0021114B00D610DB
:100B700049008D1047004610440002104200C00F8B
:100B80004000800F3E00420F3C00060F3B00CB0EA2
:100B90003800930E37005C0E3500270E3400F30D3D
:100BA0003200C10D3100900D3000600D2E00320D6D
:100BB0002D00050D2C00D90C2B00AE0C2900850C46
:100BC00029005C0C2700350C27000E0C2600E80BD2
:100BD0002400C40B2400A00B23007D0B23005A0B20
:100BE0002100390B2100180B2000F80A1F00D90A38
:100BF0001E00BB0A1E009D0A1D00800A1D00630A1C
:100C00001C00470A1B002C0A1B00110A1A00F709D6
:100C10001A00DD091900C4091900AB09190092096D
:100C200017007B091800630917004C0916003609E4
:100C30001600200916000A091500F5081500E0083D
:100C40001400CC081400B8081400A408140090087C
:100C500013007D0812006B081300580812004608A4
:100C600012003408110023081100120811000108B5
:100C70001100F0071000E0071000D0071000C007B7
:100C80001000B0070F00A107100091070E008307A6
:100C90000F0074070F0065070E0057070E00490785
:100CA0000E003B070D002E070E0020070D00130756
:100CB0000D0006070D00F9060C00ED060D00E0061C
:100CC0000C00D4060C00C8060C00BC060C00B006D4
:100CD0000C00A4060B0099060C008D060B00820682
:100CE0000B0077060B006C060B0061060A00570626
:100CF0000B004C060A0042060A0038060A002E06BF
:100D00000A0024060A001A060A001006090007064F
:100D10000A00FD050900F4050900EB050900E205DC
:100D20000900D9050900D0050900C7050900BE055D
:100D30000900B5050800AD050800A50509009C05DA
:100D40000800940508008C050800840508007C054F
:100D50000800740508006C050700650508005D05BE
:100D60000700560508004E05070047050700400527
:100D7000080038050700310507002A05070023058C
:100D800007001C050600160507000F0507000805EB
:100D9000060002050700FB040600F5040700EE0448
:100DA0000600E8040600E2040700DB040600D504A0
:100DB0000600CF040600C9040600C3040600BD04F3
:100DC0000600B7040600B1040500AC040600A60442
:100DD0000600A00405009B0406009504050090048D
:100DE00006008A04050085040500800406007A04D4
:100DF000050075040500700405006B040500660419
:100E00000500610405005C04050057040500520458
:100E100005004D04050048040500430405003E0498
:100E200004003A04050035040500300404002C04D5
:100E3000050027040400230405001E0404001A040E
:100E4000040016040500110404000D040400090444
:100E500005000404040000040400FC030400F8037B
:100E60000400F4030400F0030400EC030400E803AE
:100E70000400E4030400E0030400DC030400D803DE
:100E80000400D4030400D0030400CC030400C8030E
:100E90000300C503030024F404D9201BC40C5C0E1A
:100EA0009804C4095F0265077101F405F900FB04A9
:100EB000B30048048700C1036900580355000303C9
:100EC0004500BE023A008402310053022A00290282
:100ED000250004022000E4011C00C8011900AF0134
:100EE00017009801140084011300710110006101C2
:100EF000100051010E0043010D0036010B002B01C3
:100F00000B0020010B00150109000C010900030171
:100F10000800FB000800F3000800EB000700E400F5
:100F20000600DE000600D8000600D2000600CC0055
:100F30000500C7000500C2000500BD000400B9009F
:100F40000400B5000400B1000400AD000400A900D5
:100F50000400A5000300A20003009F0004009B0002
:100F60000300980003009500020093000300900026
:100F700003008D0002008B00030088000200860041
:100F8000020084000300810002007F0002007D0057
:100F900002007B0002007900020077000100760069
:100FA00002007400020072000100710002006F0074
:100FB00002006D0001006C0002006A00010069007F
:100FC0000200670001006600010065000100640086
:100FD00002006200010061000100600001005F008A
:100FE00002005D0001005C0001005B0001005A008E
:100FF000010059000100580001005700010056008F
:10100000010055000100540001005300000053008E
:1010100001005200010051000100500001004F008A
:1010200001004E0000004E0001004D0001004C0088
:1010300001004B0000004B0001004A000100490084
:101040000100480000004800010047000100460080
:10105000000046000100450000004500010044007A
:101060000100430000004300010042000000420074
:1010700001004100000041000100400001003F006C
:1010800000003F0001003E0000003E0001003D0066
:1010900000003D0001003C0000003C0000003C005E
:1010A00001003B0000003B0001003A0000003A0054
:1010B000010039000000390001003800000038004C
:1010C0000000380001003700000037000100360042
:1010D0000000360000003600010035000000350039
:1010E000000035000100340000003400000034002E
:1010F0000100330000003300000033000100320023
:101100000000320000003200010031000000310018
:10111000000031000100300000003000000030000D
:1011200001002F0000002F0000002F0000002F0002
:1011300001002E0000002E0000002E0001002D00F6
:1011400000002D0000002D0000002D0001002C00EB
:1011500000002C0000002C0000002C0001002B00DF
:1011600000002B0000002B0000002B0001002A00D3
:1011700000002A0000002A0000002A0001002900C7
:1011800000002900000029000000290000002900BB
:1011900001002800000028000000280000002800AE
:1011A00000002800010027000000270000002700A1
:1011B0000000270000002700010026000000260094
:1011C0000000260000002600000026000100250087
:1011D000000025000000250000002500000025007B
:1011E000000025000100240000002400000024006D
:1011F0000000240000002400010023000000230060
:101200000000230000002300000023000000230052
:101210000000230001002200000022000000220044
:101220000000220000002200000022000100210036
:10123000000021000000210000002100000021002A
:10124000000021000000210001002000000020001B
:10125000000020000000200000002000000020000E
:10126000000020000000200001001F0000001F00FF
:1012700000001F0000001F0000001F0000001F00F2
:1012800000001F0001001E0000001E0000001E00E4
:1012900000001E0000004D383420582059205A20EC
:1012A000450070012C0190012701B0012201C0010D
:1012B0001D01F00118011002130130020E0160023D
:1012C000090190020401C002FF000003FA0040037C
:1012D000F5008003F000D003EB002004E60070046A
:1012E000E100E004DC004005D700C005D200400664
:1012F000CD00D006C8008007C3003008BE00F0084B
:10130000B900C009B400B00AAF00B00BAA00D00CFD
:10131000A500000EA000500F9B00C01096005012B8
:10132000910000148C00C0158700B0178200B0191E
:101330007D00D01B7800001E730040206E009022BC
:101340006900F024640040275F0090295A00E02BD8
:101350005500102E500020304B0010324600E03374
:10136000410090353C001037370070383200A0390A
:101370002D00B03A2800A03B2300603C1E00103D29
:101380001900903D1400103E0F00703E0A00C03E50
:101390000500003F0000403FFBFF803FF6FFC03FDD
:1013A000F1FF00002100240027002A002D0030005A
:1013B000330001010000040107010A0100002200BE
:1013C000250028002B002E0031003400020100000F
:1013D000050108010B010000200023002600290060
:1013E0002C002F003200000100000301060109015A
:1013F00005050505070508080808020202020A0A91
:1014000008080404040401010101010101010303AE
:10141000030303030303040707070C0C0C0C0C0C59
:101420000C0C0202020206060606060606060B0B56
:101430000B0B0B0B0B0B0102102020080810204097
:101440001020408002010201080402010102040888
:101450001020408080402010080402018004020116
:10146000804020100804020108040201010204085F
:1014700010204080010204081020408000000A0B68
:1014800002090C0D0E080703040100000000000013
:10149000000000000000000000000000000000004C
:1014A0000000000000000000121110000000000009
:1014B000000000000000000000000000000000002C
:1014C00000004B494C4C45442E20005072696E740C
:1014D00065722073746F7070656420647565207424
:1014E0006F206572726F72732E204669782074685F
:1014F00065206572726F7220616E6420757365205D
:101500004D39393920746F20726573746172742E8D
:10151000202854656D7065726174757265206973F9
:101520002072657365742E20536574206974206180
:10153000667465722072657374617274696E67296E
:101540000A004E6F204C696E65204E756D626572A3
:10155000207769746820636865636B73756D2C20F0
:101560004C617374204C696E653A20004E6F2043C5
:101570006865636B73756D2077697468206C696E3C
:1015800065206E756D6265722C204C617374204C01
:10159000696E653A2000636865636B73756D206DD5
:1015A00069736D617463682C204C617374204C699D
:1015B0006E653A20004C696E65204E756D626572ED
:1015C000206973206E6F74204C617374204C696EB7
:1015D00065204E756D6265722B312C204C617374E1
:1015E000204C696E653A20004D313130004D333169
:1015F000004D383420582059205A204500534420AB
:1016000072656164206572726F720A00446F6E6564
:10161000207072696E74696E672066696C650A0075
:10162000F4010000F40100006400000088130000D1
:1016300000009643000096430000A0400000C8410F
:101640000000A0420000A0420000C84300000C437C
:1016500020440020490020204D33303120500050DC
:1016600049442073657474696E67733A0A00205A9E
:101670000020590020204D323036205800486F6D30
:1016800065206F66667365743A0A00204500205A2B
:101690000020590020580020420020540020204DF6
:1016A000323035205300416476616E6365643A20C0
:1016B000533C6D696E5F66656564726174653E205A
:1016C000543C6D696E5F74726176656C5F666565CA
:1016D00064726174653E20423C6D696E5F7365673C
:1016E0006D656E745F74696D655F6D733E20583C07
:1016F0006D61785F78795F6A65726B3E205A3C6DE8
:1017000061785F7A5F6A65726B3E20453C6D6178F7
:101710005F655F6A65726B3E0A00205400205200CC
:1017200020204D323034205000416363656C657277
:101730006174696F6E2028756E6974732F73322916
:101740003A20503C7072696E745F616363656C3EF1
:1017500020523C726574726163745F616363656C8F
:101760003E20543C74726176656C5F616363656CA6
:101770003E0A00204500205A0020590020204D320A
:1017800030312058004D6178696D756D204163637B
:10179000656C65726174696F6E2028756E6974730B
:1017A0002F7332293A0A00204500205A00205900A0
:1017B00020204D3230332058004D6178696D756DB1
:1017C000206665656472617465732028756E69743E
:1017D000732F73293A0A00204500205A002059002F
:1017E00020204D3932205800537465707320706585
:1017F0007220756E69743A0A0020204D3230302014
:1018000044300A0020204D32303020543120440032
:1018100020204D3230302044002044697361626CD6
:1018200065640A0046696C616D656E742073657449
:1018300074696E67733A0020204D3134392043209B
:101840003B20556E69747320696E2043656C736923
:1018500075730A002020473231202020203B20557C
:101860006E69747320696E206D6D0A007C3C3E5E6B
:101870002B3D3F2F5B5D3B2C2A225C0047323820FA
:1018800058302059300020573A00205A3A00205949
:101890003A0020436F756E7420583A0020453A0094
:1018A000205A3A0020593A00583A00236465666984
:1018B0006E65202044454641554C545F4B642000E2
:1018C00023646566696E65202044454641554C5445
:1018D0005F4B69200023646566696E65202044457E
:1018E0004641554C545F4B7020005049442041758F
:1018F000746F74756E652066696E697368656421BE
:101900002050757420746865206C617374204B706E
:101910002C204B6920616E64204B6420636F6E73D2
:1019200074616E74732066726F6D2062656C6F7780
:1019300020696E746F20436F6E666967757261749B
:10194000696F6E2E680A00504944204175746F74A7
:10195000756E65206661696C6564212074696D65CA
:101960006F75740A00504944204175746F74756E28
:1019700065206661696C6564212054656D706572CF
:10198000617475726520746F6F20686967680A00FA
:10199000204B643A2000204B693A2000204B703ADB
:1019A00020000A20436C617373696320504944200E
:1019B0000A002054753A2000204B753A2000206D13
:1019C00061783A2000206D696E3A200020643A2048
:1019D0000020626961733A20005072696E7465720A
:1019E0002068616C7465642E206B696C6C282920FA
:1019F00063616C6C6564210A000000000000000057
:101A000000000000005761726E696E673A20486FEF
:101A10006D696E672042756D702044697669736FD9
:101A200072203C20310A000202040000A0400000A5
:101A3000A0400000004000009B4300009B430000CA
:101A4000C943FFFFFF62696E004D31313720494EB7
:101A500056414C494420444154412E0047393220DC
:101A60005A2573204525730062696E0020746F6FDC
:101A7000206C6F6E6720657874727573696F6E2065
:101A800070726576656E7465640A0020636F6C64BD
:101A900020657874727573696F6E207072657665F3
:101AA0006E7465640A00000048420000484200006D
:101AB00080400000000057726974696E6720746F7F
:101AC0002066696C653A20006F70656E20666169FA
:101AD0006C65642C2046696C653A20006F70656EF9
:101AE000206661696C65642C2046696C653A20004B
:101AF00046696C652073656C65637465640A0020D3
:101B000053697A653A200046696C65206F70656E8E
:101B100065643A20006F70656E206661696C65646B
:101B20002C2046696C653A20002066696C653A2075
:101B3000004E6F7720002220706F730022207061AA
:101B400072656E743A2200535542524F5554494EB5
:101B5000452043414C4C207461726765743A220001
:101B60004B494C4C45442E2000747279696E6720B5
:101B7000746F2063616C6C207375622D67636F6492
:101B8000652066696C6573207769746820746F6F6F
:101B9000206D616E79206C6576656C732E204D41E9
:101BA00058206C6576656C2069733A0043616E6EEF
:101BB0006F74206F70656E207375626469722000A7
:101BC0004572726F722077726974696E6720746FE4
:101BD00020454550524F4D210A0020496E76616CD8
:101BE0006964206578747275646572200000000075
:101BF00000000000000000000000009B4300009B6C
:101C0000430000C943202F002042403A0020403AC0
:101C1000004732382058302059300020573A0062AF
:101C200065640A002C2073797374656D2073746F7A
:101C30007070656421204865617465725F49443A3B
:101C400020004572723A204D415854454D50204273
:101C50004544004572723A204D415854454D50005C
:101C60004D415854454D50207472696767657265DF
:101C700064004572723A204D494E54454D50204201
:101C80004544004572723A204D494E54454D50002E
:101C90004D494E54454D50207472696767657265B1
:101CA000640048656174696E67206661696C65648B
:101CB0000048656174696E67206661696C656400DF
:101CC00048656174696E67206661696C6564004887
:101CD000656174696E67206661696C656400526550
:101CE00073656E643A20006F6B00627573793A20F9
:101CF00070617573656420666F7220696E707574AB
:101D00000A00627573793A207061757365642066A4
:101D10006F7220757365720A00627573793A20706C
:101D2000726F63657373696E670A004B494C4C456B
:101D3000442E20004B494C4C206361757365642030
:101D40006279204B494C4C20627574746F6E2F7011
:101D5000696E0A004B494C4C45442E20004B494CBF
:101D60004C2063617573656420627920746F6F2005
:101D70006D75636820696E61637469766520746946
:101D80006D65202D2063757272656E7420636F6DB2
:101D90006D616E643A20000036BB60BC11241FBE2A
:101DA000CFEFD1E2DEBFCDBF00E00CBF15E0A0E079
:101DB000B2E0E2E5F5E901E00BBF02C007900D9249
:101DC000AE34B107D9F72BE1AEE4B5E001C01D9206
:101DD000A032B207E1F71EE0CDECDEE000E006C085
:101DE00021970109802FFE010E94E9C9CC3CD1074F
:101DF00080E00807A9F70E9452B30C9498CA0C948B
:101E000000002F923F924F925F926F927F928F923B
:101E10009F92AF92BF92CF92DF92EF92FF920F9379
:101E20001F93CF93DF93CDB7DEB7E2970FB6F89449
:101E3000DEBF0FBECDBF0091B41420E6029F80012B
:101E40001124085C194F80919C1480FF1AC0E0E7B0
:101E5000FAE084917F013FEFE31AF30A811102C097
:101E6000780104C00E94C55AF701F3CFD7018D91C4
:101E70007D01882319F00E94C55AF8CF8AE00E949C
:101E8000C55A81E090E09093041B8093031B10924D
:101E90008605109285058FE380938E0510928D053F
:101EA00010928C0584E0E8E6F5E0DF011D928A954A
:101EB000E9F7F80180810F5F1F4F8032D1F38E3434
:101EC000C9F4818190ED980F9A3020F08D3211F095
:101ED0008B3281F4DF0112969D012F5F3F4F8C9171
:101EE00080538A3010F4D901F7CFFD01119680811B
:101EF0008032D9F3F0930B1BE0930A1B7F01BFEFF5
:101F0000EB1AFB0A10816AE270E0C7010E9431CA35
:101F1000009731F0FC01319780818032E1F311822A
:101F20001D3431F1143521F1173411F1E0E7FAE0F5
:101F300084918F010F5F1F4F882321F00E94C55AA3
:101F4000F801F6CF60910A1B70910B1B86E597E0B4
:101F50000E94304F82E20E94C55A8AE00E94C55A10
:101F60001092041B1092031B0E94C8B20C94D2243E
:101F7000C701FC01208101962032D9F320532A3079
:101F8000A8F610938E0580E090E06AE03196DF01BC
:101F900011972C91022E000C330B20533109689FAE
:101FA000A001699F500D1124C901840F951F208144
:101FB00020532A3058F390938D0580938C05DF01D0
:101FC00031962C912032D9F31D34A9F48E3191052C
:101FD000D1F03CF487319105B1F08C31910559F481
:101FE00012C0853791053CF08737910564F0803A3F
:101FF000E3E09E0741F000910A1B60E070E0EE24F0
:10200000E394F12C43C0B0938605A09385057FC06F
:10201000213209F445C03FEBB32EB20E49E1A42EA4
:10202000AB1408F45FC0AF01FA0130814F5F5F4F1E
:102030003032D1F340ED430F4A3008F047C0AF01D2
:102040008B2C912C6401A3E0D594C794AA95E1F759
:10205000960128593A4F69012B2D2770D70102C0EC
:10206000AA0FBB1F2A95E2F79D01D6013C91232BB5
:102070002C9341155105A1F1401BD401A25BBA4F2D
:102080004C93208121542A3190F5DF01FD013196D6
:102090002C912111BDCF709386056093850537C0C3
:1020A0001D3409F0B8CF8032910509F0B4CFF09318
:1020B0008605E093850563E270E0CF010E9431CA96
:1020C000009709F47BC6DC011C9221C043ED430F4D
:1020D000423008F4B4CF3B3211F00C945B24AFCF04
:1020E00040E0CBCF6115710561F6BD01CACFDF01BC
:1020F000AD014F5F5F4F2C9120532A3010F4DA016D
:10210000F7CFFD01119620812032D9F3BECF809107
:102110008E058D3409F452C6843511F40C941124C3
:10212000873409F003CF80918C0590918D058C3117
:10213000910509F429C34CF497FD12CF8230910523
:102140009CF0049709F4DBC20BCF8B35910509F4A1
:102150009CC58C35910509F49CC58A35910509F01B
:10216000FFCE10928B05FCCE80914302882309F4A8
:10217000F7CE5DE4C52E52E0D52E61E2E62E64E195
:10218000F62E03EA14E177E8A72E75E0B72EF601E4
:1021900081916F010E947A5A8823E1F00E94435A8C
:1021A000D5012C91211104C020918B05222331F0FF
:1021B000F801208131814281538103C020E030E069
:1021C000A9010E94E2C7D7016D937D938D939C93E3
:1021D00013970AC0F80180819181A281B381F70130
:1021E00080839183A283B383F4E0EF0EF11C0C5F34
:1021F0001F4F2FEFA21AB20A31E5C31632E0D30601
:1022000031F686E40E94A95A8823C9F00E94435AF5
:1022100020E030E0A9010E9445C9181684F40E940C
:10222000435A20E030E040E752E40E9459C86093EE
:102230003C0270933D0280933E0290933F02809156
:102240000002882309F4B4C0C0907305D0907405CF
:10225000E0907505F0907605A70196016091211434
:102260007091221480912314909124140E9448C1EB
:1022700087FF08C0C0922114D0922214E092231448
:10228000F0922414C0907705D0907805E0907905FD
:10229000F0907A05A701960160912514709126149B
:1022A00080912714909128140E9448C187FF08C08C
:1022B000C0922514D0922614E0922714F09228148C
:1022C000C0907B05D0907C05E0907D05F0907E0568
:1022D000A70196016091291470912A1480912B1402
:1022E00090912C140E9448C187FF08C0C092291405
:1022F000D0922A14E0922B14F0922C14C090010278
:10230000D0900202E0900302F0900402A70196012F
:1023100060912114709122148091231490912414BF
:102320000E9445C9181644F4C0922114D092221478
:10233000E0922314F0922414C0900502D09006027B
:10234000E0900702F0900802A70196016091251421
:102350007091261480912714909128140E9445C9E9
:10236000181644F4C0922514D0922614E092271433
:10237000F0922814C0900902D0900A02E0900B025B
:10238000F0900C02A70196016091291470912A1413
:1023900080912B1490912C140E9445C9181644F476
:1023A000C0922914D0922A14E0922B14F0922C148B
:1023B0000E94BB5A80919C1483FD79C0C0902D145B
:1023C000D0902E14E0902F14F09030142091AF1480
:1023D0003091B0144091B1145091B214C701B601BC
:1023E0000E9448C1882309F462C00E94BB4F882321
:1023F00009F1C092AF14D092B014E092B114F092EF
:10240000B214E0E7FAE084918F010F5F1F4F811152
:1024100003C0EAEDF2E004C00E94C55AF801F3CF10
:1024200084918F010F5F1F4F882321F00E94C55AAE
:10243000F801F6CFC0902D14D0902E14E0902F14F8
:10244000F09030142091AF143091B0144091B11439
:102450005091B214C701B6010E94E1C720E030E0FC
:102460004AE754E40E9445C918160CF5C092AF140F
:10247000D092B014E092B114F092B214E0E7FAE016
:1024800084918F010F5F1F4F811103C0EBEBF2E0CE
:1024900004C00E94C55AF801F3CF84918F010F5FE9
:1024A0001F4F882321F00E94C55AF801F6CF2091D2
:1024B00021143091221440912314509124146091DE
:1024C000A3147091A4148091A5149091A6140E9455
:1024D00048C181111FC020912514309126144091CC
:1024E0002714509128146091A7147091A81480911A
:1024F000A9149091AA140E9448C181110BC0E090C8
:102500003C02F0903D0200913E0210913F02C090CB
:102510001A061EC06091180270911902072E000C55
:10252000880B990B0E944EC120913C0230913D02D4
:1025300040913E0250913F020E94ADC12AE037ED2A
:1025400043E25CE30E94ADC1C0901A067B018C019E
:102550002DE234E149E254E165E274E181E294E183
:102560000E94F27F80E1E1E2F4E1A3EAB4E10190AC
:102570000D928A95E1F780916D05813021F482E01A
:1025800080936D05EDCC9091B60A992309F4E8CCBF
:10259000823009F4E5CC8091180690911906893BA8
:1025A0009105DCF06091180670911906072E000C59
:1025B000880B990B0E944EC19B01AC016091F00504
:1025C0007091F1058091F2059091F3050E9448C148
:1025D00087FF03C00E94D7AFE5CF1092B91481E006
:1025E0008093400280EA9FE09093541A8093531A9C
:1025F0008091C314882349F182E090E09093BD0D4F
:102600008093BC0D85E08093B00D12E81093B30D5C
:1026100084E190E1A0E0B0E08093B40D9093B50D1B
:10262000A093B60DB093B70D0E94624261E070E0D6
:1026300080E090E00E94BF5481E09AE59093BD0D48
:102640008093BC0D8BE090E028C08EE090E09093EA
:10265000BD0D8093BC0D85E08093B00D12E8109302
:10266000B30D84E190E1A0E0B0E08093B40D9093CD
:10267000B50DA093B60DB093B70D0E94624261E014
:1026800070E080E090E00E94BF5481E09AE5909372
:10269000BD0D8093BC0D85E390E09093BF0D8093BA
:1026A000BE0D87E08093B00D1093B30D84E890E0E9
:1026B000A0E0B0E08093B40D9093B50DA093B60D5B
:1026C000B093B70D0E94624281E08093C014809362
:1026D0006D058091551490915614019739F40E941C
:1026E0005C9C709356146093551404C01092561459
:1026F00010925514109253141092541431CC80E55A
:102700000E94A95A882379F08091700590917105F3
:10271000009749F04AE050E060E070E00E94C7BFD7
:102720006B017C0103C0C12CD12C760183E50E9492
:10273000A95A882361F00E94435A20E030E04AE71A
:1027400054E40E94ADC10E94C6C86B017C010E9486
:10275000CBAF0E94BB5A8091311490913214A0915A
:102760003314B0913414C80ED91EEA1EFB1E0E9409
:10277000F754DC01CB018C199D09AE09BF09B7FFE5
:10278000EFCB0E94D7AFF3CF0E94CBAF80913C023A
:1027900090913D02A0913E02B0913F02809381054D
:1027A00090938205A0938305B093840580911802CD
:1027B000909119029093800580937F0584E690E0C4
:1027C00090931902809318020E94BB5A11E0109353
:1027D000E80588E50E947A5AE82E89E50E947A5A2F
:1027E000082F8AE50E947A5AF82EE11004C00111E0
:1027F00004C0182705C0011102C010E001C0182F45
:1028000080E1E3EAF4E1A1E2B4E101900D928A955E
:10281000E1F7111105C0E11003C0002309F440C025
:1028200020E030E040EA50E460910E1470910F1403
:1028300080911014909111140E94E2C760932914A2
:1028400070932A1480932B1490932C142091AB1422
:102850003091AC144091AD145091AE140E9445C912
:1028600018165CF419821A821B821C82BE016F5FEB
:102870007F4F89E294E10E94C98E111105C0E110D9
:1028800003C0011107C00CC080E090E00E94EC760C
:102890001123B9F381E090E00E94EC76111102C09F
:1028A000FF2021F082E090E00E94EC760E94095A1D
:1028B0008091BE14813009F069C08093400280E0AD
:1028C00090E00E944C588091C314882319F184E051
:1028D00090E09093BD0D8093BC0D85E08093B00D8A
:1028E00012E81093B30D84E190E1A0E0B0E0809392
:1028F000B40D9093B50DA093B60DB093B70D0E9493
:10290000624281E09AE59093BD0D8093BC0D8CE00E
:1029100090E022C080E190E09093BD0D8093BC0DCB
:1029200085E08093B00D12E81093B30D84E190E13F
:10293000A0E0B0E08093B40D9093B50DA093B60DD8
:10294000B093B70D0E94624281E09AE59093BD0D6D
:102950008093BC0D86E390E09093BF0D8093BE0DF5
:1029600087E08093B00D1093B30D84E890E0A0E071
:10297000B0E08093B40D9093B50DA093B60DB093D5
:10298000B70D0E9462421092BE1438C08530B1F576
:1029900081E08093400280E090E00E944C581092C9
:1029A000BE148091C314882349F081E09AE5909386
:1029B000BD0D8093BC0D8CE290E008C081E09AE5EB
:1029C0009093BD0D8093BC0D81E590E09093BF0D79
:1029D0008093BE0D87E08093B00D82E88093B30DA5
:1029E00084E890E0A0E0B0E08093B40D9093B50D42
:1029F000A093B60DB093B70D0E94624280916F050F
:102A0000882309F450C018A219A21AA21BA220E020
:102A100030E040EA50E46091AB147091AC148091C6
:102A2000AD149091AE140E94E1C769837A838B83C1
:102A30009C83BE01605E7F4FCE0101960E94C98ECD
:102A400085E394E10E942B448091B70A882319F012
:102A500081E08093B60A81E090E09093A70A80938A
:102A6000A60A1092B00A1092B10A1092B20A1092FD
:102A7000B30A0E94F7546093AC0A7093AD0A809336
:102A8000AE0A9093AF0A8091911990919219A091FA
:102A90009319B09194198093A80A9093A90AA093CE
:102AA000AA0AB093AB0A8091EE138093E805809157
:102AB000810590918205A0918305B0918405809352
:102AC0003C0290933D02A0933E02B0933F0280915E
:102AD0007F059091800590931902809318020E94BF
:102AE000BB5A0E9400718091BE14843061F58091C0
:102AF000B714882329F11092B714109240028091E4
:102B0000C31460916E05882359F0862F90E0A0E0F1
:102B1000B0E0BC01CD01635E7F4F8E4F954A0AC085
:102B2000862F90E0A0E0B0E0BC01CD01695B7F4F53
:102B30008E4F954A24E830E040E050E00E94064382
:102B40001092BE1426C0863021F58091B7148823D8
:102B5000B9F31092B714109240028091C31460919F
:102B60006E05882359F0862F90E0A0E0B0E0BC010C
:102B7000CD01645E7F4F8E4F954ADCCF862F90E06B
:102B8000A0E0B0E0BC01CD016C5A7F4F8E4F954A5A
:102B9000D1CF20E030E040E251E46091A314709185
:102BA000A4148091A5149091A6140E94ADC10E9416
:102BB000C1C87093BD0D6093BC0D05E00093B00DCE
:102BC00012E81093B30D88E490E1A0E0B0E08093A8
:102BD000B40D9093B50DA093B60DB093B70D0E94B0
:102BE000624220E030E040E251E46091A71470912D
:102BF000A8148091A9149091AA140E94ADC10E94BA
:102C0000C1C87093BD0D6093BC0D0093B00D1093BF
:102C1000B30D8AE490E1A0E0B0E08093B40D90930E
:102C2000B50DA093B60DB093B70D0E94624220E09F
:102C300030E040E251E46091AB147091AC148091AB
:102C4000AD149091AE140E94ADC10E94C1C87093A2
:102C5000BD0D6093BC0D0093B00D1093B30D8CE4CB
:102C600090E1A0E0B0E08093B40D9093B50DA093F7
:102C7000B60DB093B70D0E94624280916F05882314
:102C800009F46EC910926F056BC981E080938B05C2
:102C900067C985E40E94A95AB82E811102C00E941A
:102CA000CBAF2DE4822E22E0922E33EAC32E34E104
:102CB000D32E42E1E42E44E1F42E00E010E0A12CFA
:102CC00033243394D4018D914D010E94A95A882355
:102CD00059F1F60140805180628073800E94435A0E
:102CE000D6016D937D938D939C9313970330E1F000
:102CF000023011F43092EB05A30192010E94E1C76A
:102D00009B01AC01F70160817181828193810E94F6
:102D1000E2C7D7016D937D938D939C931397C80160
:102D20000E94FCA7AA24A3940F5F1F4FB4E0CB0E10
:102D3000D11CE4E0EE0EF11C0430110519F6AA20B6
:102D400019F00E94095A37C0BB20A9F1C090AF14F6
:102D5000D090B014E090B114F090B2142091520EC3
:102D60003091530E4091540E5091550EC701B6014B
:102D70000E94ADC10E9449C96093820A7093830A80
:102D80008093840A9093850AC701B6010E94C1C846
:102D90002FB7F8946093471A7093481A8093491A92
:102DA00090934A1A2FBF1092720A1092730A1092CF
:102DB000740A1092750A0E940071D2C880918C0525
:102DC00090918D058137910509F440C50CF0A4C0A0
:102DD0008C34910509F47CC40CF055C089319105FF
:102DE00009F4EBC144F58531910509F494C1C4F4AB
:102DF0008231910509F41CC68431910509F449C159
:102E0000419709F0ADC85F988A989FB7F894809170
:102E100008018E7F809308019FBF12984798A0C831
:102E20008731910509F47DC10CF08EC11092B60A6C
:102E30001092B70A95C88E31910509F420C294F416
:102E40008B31910509F4DEC10CF4BDC14C9709F03A
:102E500087C840E060E080918505909186050E94DA
:102E60003B9F7EC88032910509F4F5C20CF43DC346
:102E70008A32910509F4ECC38B34910509F070C8CE
:102E80000E94AE8C6DC88836910509F425C434F5CE
:102E90008335910509F4C7C56CF48135910509F4B2
:102EA0009BC50CF0BCC58D34910509F059C80E9432
:102EB000494256C88535910509F4EDC50CF4B8C5ED
:102EC0008C35910509F04CC81DE4C12E12E0D12EBD
:102ED00006E4E02E0EE0F02E10E0F8C58C369105E9
:102EE00009F4B0C43CF48A36910509F444C50CF4E5
:102EF000F8C460C58E36910509F41EC40CF437C5BC
:102F00008F36910509F42BC48037910509F028C844
:102F100089E094E00E94F3778C3D910511F40C94C4
:102F200072210CF04DC08B39910509F4F7C4E4F41B
:102F30008737910509F4A7C05CF48337910509F43C
:102F4000A5C00CF443C68637910509F4D4C608C859
:102F50008937910509F470C70CF467C78C3891055F
:102F600009F4A1C40C94B00F8B3C910509F4FDC782
:102F70008CF4883C910509F465C7893C910509F4F6
:102F8000D1C78E3B910511F00C94B00F0E94BF7118
:102F90000C94B00F8D3C910511F40C94402014F466
:102FA0000C94D41F8E3C910511F40C94BB20833DEE
:102FB000910511F00C94B00FE0E7FAE00C94DA20E0
:102FC0008039F1E09F0711F40C94EF225CF58D320B
:102FD00031E0930711F40C94F52194F4823E9105AD
:102FE00011F40C949D218C32B1E09B0711F40C94E8
:102FF000CB218D3D910511F00C94B00F0C948121E3
:103000008F32E1E09E0711F40C94EB2214F40C943F
:1030100094228336914011F00C94B00FEAE3FAE069
:103020000C94EB23853F31E0930711F40C94D123EA
:10303000ACF48C3AB1E09B0711F40C94F322843F7A
:10304000E1E09E0711F40C94CD238A39914011F0F0
:103050000C94B00F0E94AE6C0C94B00F873F21E02F
:10306000920711F40C94D92314F40C94D523803ACC
:10307000A3E09A0709F42CC2873E934011F40C9404
:10308000FF230C94B00FE2EEF5E06FC6E7EFF4E03B
:10309000A6C5E4E0F3E084918F010F5F1F4F882302
:1030A00021F00E94C55AF801F6CF10925B0D1092E4
:1030B0005A0D87EE9AE00E9498678BE1E7EEFAE0FE
:1030C000DE01159601900D928A95E1F78091E50A4F
:1030D0009091E60A9C838B8385ED92E09A838983A5
:1030E00040E050E0BE016F5F7F4F86E893E00E94B2
:1030F000239DCE0101960E94CF77E5EFF2E0849107
:103100008F010F5F1F4F882311F40C94B00F0E94A2
:10311000C55AF801F4CF0E9466450E94D7770C94F7
:10312000B00F8091850590918605FC0120812223B6
:1031300029F0203209F410823196F8CF40E061E0A6
:103140000E943B9F0C94B00F62E27AE187EE9AE016
:103150000E948EA6811103C0EAE2F3E00FC0E8E10D
:10316000F3E084918F010F5F1F4F811103C0E5E1F0
:10317000F3E00EC00E94C55AF801F3CF84918F018D
:103180000F5F1F4F882399F30E94C55AF801F6CFAD
:1031900084918F010F5F1F4F882321F00E94C55A31
:1031A000F801F6CF8091B70A882319F081E0809367
:1031B000B60A0E94AE8C0C94B00F1092B60A0E9410
:1031C000EE8C0C94B00F8091B70A882311F40C9404
:1031D000B00F83E50E94A95A882311F40C94B00F14
:1031E0000E94135AAB01BC014093510D5093520DF4
:1031F0006093530D7093540D81E89CE00E946AA483
:103200000C94B00F8091B70A811103C0E1E5F3E09F
:103210002AC0EFE3F3E084918F010F5F1F4F8823F3
:1032200021F00E94C55AF801F6CF6091510D7091BE
:10323000520D8091530D9091540D4AE00E94CC5A4A
:103240008FE20E94C55A60914D0D70914E0D809194
:103250004F0D9091500D4AE00E94CC5A8AE00E9496
:10326000C55A0C94B00F84918F010F5F1F4F8823B4
:1032700011F40C94B00F0E94C55AF801F4CF80915C
:10328000B70A882311F40C94B00F81E89CE00E94E7
:1032900038A481E89CE00E943B661092B50A109227
:1032A000B40AE0908505F09086058091B70A8823DE
:1032B00011F40C94B00F0E94929C1D8218861C82FF
:1032C0001B8285ED92E09A83898383EE9AE0909346
:1032D000030B8093020BF70180818F3209F068C0E5
:1032E0006FE270E0C7010E9431CA8C010F5F1F4F6F
:1032F0009E012F5F3F4F59010115110509F45EC072
:103300006FE270E0C8010E9431CA6C01009709F4B5
:1033100056C00817190708F052C04C01801A910ACC
:10332000A401B801CE0180960E945ACAE0E2F0E002
:10333000EC0FFD1FE80DF91D10828E01005E1F4F7E
:10334000D8018D918D01882319F00E94C55AF8CFBC
:103350008AE00E94C55A6091020B7091030B6115BF
:10336000710511F06C5F7F4F21E0AE01405E5F4F51
:10337000CE0105960E94D06B811112C0BE01605E25
:103380007F4F88E893E00E94304F8EE20E94C55A3A
:103390008AE00E94C55AC5010E94CF770C94B00FF5
:1033A000B092030BA092020B86010F5F1F4FA4CFB8
:1033B00084E09BE09093030B8093020B8701809144
:1033C000020B9091030B009709F00496B8010E943C
:1033D0008EA6811103C0E0E7F3E021C0E2E6F3E04E
:1033E00084917F01BFEFEB1AFB0A882321F00E9432
:1033F000C55AF701F5CFF80181918F01882319F0A3
:103400000E94C55AF8CF8AE00E94C55A1092510D09
:103410001092520D1092530D1092540D16C08491BB
:103420007F012FEFE21AF20A882321F00E94C55A89
:10343000F701F5CFD8018D918D01882319F00E94F5
:10344000C55AF8CF8EE20E94C55ACE0101960E945D
:10345000CF770C94B00F8091B60A81110E94CBAF48
:10346000E0908505F090860580E50E947A5A182F35
:10347000882319F00E94345A182F8091B70A8823A4
:1034800011F40C94B00F412F61E0C7010E943B9FE3
:1034900083E50E94A95A882381F00E94135AAB0148
:1034A000BC014093510D5093520D6093530D709396
:1034B000540D81E89CE00E946AA48091B70A882399
:1034C00019F081E08093B60A11110C94B00F71CEFF
:1034D000809185059091860521E02093B50A40E012
:1034E00060E00E943B9F0C94B00F0E945C9C7B01AB
:1034F0008C0120E831E541E050E00E9484C7C90119
:103500006DE671E00E94C2C94B015C01C801B701C0
:1035100020E13EE040E050E00E9484C7CA01B901CA
:1035200028E130E040E050E00E9484C7762E672E0C
:10353000C62ED72E9CE3292E312C412C512CC801AC
:10354000B701A20191010E9484C7F62EE72ECA019D
:10355000B901A20191010E9484C7CB018E010F5FC6
:103560001F4F81149104D1F0EF92FF927F936F93DC
:103570006F927F92BF92AF929F928F9284EC93E072
:103580009F938F931F930F930E941AC10FB6F894C5
:10359000DEBF0FBECDBFE0E7FAE045C0A114B10425
:1035A00089F0EF92FF927F936F936F927F92BF9219
:1035B000AF9284EB93E09F938F931F930F930E949E
:1035C0001AC1E4CFCD2879F0EF92FF927F936F93E9
:1035D0006F927F9288EA93E09F938F931F930F934C
:1035E0000E941AC1D3CF892B69F0EF92FF927F938B
:1035F0006F9380EA93E09F938F931F930F930E94A2
:103600001AC1C4CFEF92FF928CE993E09F938F93FE
:103610001F930F930E941AC10F900F900F900F905D
:103620000F900F90B8CF84917F01BFEFEB1AFB0A88
:10363000882321F00E94C55AF701F5CFB80188ED23
:1036400093E00E94304F8AE00E94C55A0C94B00F5C
:1036500083E50E94A95A882311F40C94B00F0E94AC
:10366000235AE82E80E50E94A95A882311F40C946D
:10367000B00F0E94135A162FC62ED72ED7FE02C0A7
:103680000C94B00FE6EBF6E08491181303C0EAE364
:10369000FAE00AC0319626E0E33EF207A9F70C945F
:1036A00065240E94C55AF80184918F010F5F1F4F56
:1036B0008111F7CFE5EEF3E084918F010F5F1F4F8B
:1036C000882311F40C94B00F0E94C55AF801F4CF6E
:1036D0000E94EE8C0C94B00F88E690E00E948EA8B9
:1036E00081110C94B00F80919C1483FF02C00C9444
:1036F000B00F9091720580911A0698130C94B00F38
:1037000083E50E94A95A882399F00E94435A0E9497
:10371000C1C8CB010E944C580E94435A20E030E0BF
:1037200044EB52E40E9448C1181614F00E9449422A
:103730000E94DB4F0C94B00F8EE40E94A95A88239C
:1037400011F40C94B00F0E94135A6093FF1A7093F7
:10375000001B8093011B9093021B0C94B00F83E518
:103760000E947A5A882359F083E50E94A95A882337
:1037700019F00E94235A01C080E080939C14E0E776
:10378000FAE084918F010F5F1F4F811103C0E2E0C7
:10379000F4E004C00E94C55AF801F3CF84918F0170
:1037A0000F5F1F4F882321F00E94C55AF801F6CF02
:1037B00080919C14811103C0EEEFF3E034C084EFDC
:1037C000C82E83E0D82EE12CF12C20E080919C14AF
:1037D00090E00E2C02C0959587950A94E2F780FF41
:1037E00017C0BB24B394B20E222319F08CE20E94BE
:1037F000C55AF60185919491FC0184918F010F5F68
:103800001F4F882321F00E94C55AF801F6CF2B2DB7
:103810003FEFE31AF30A82E0C80ED11C95E0E916E7
:10382000F104A1F60AC084918F010F5F1F4F882316
:1038300021F00E94C55AF801F6CF8AE00E94C55ACD
:103840000C94B00F109241020C94B00F83E50E94CB
:10385000A95A811103C0E0E7FAE00DC00E94235A83
:10386000809344028D3310F40C94B00F8CE380935A
:1038700044020C94B00F84918F010F5F1F4F882377
:1038800021F00E94C55AF801F6CF4091440250E061
:1038900060E070E082E194E00E94DD4E8AE00E94E8
:1038A000C55A0C94B00F80919C1483FF02C00C94F5
:1038B000B00F83E50E94A95A882311F40C94B00F2D
:1038C0000E94435A0E94C1C86E37710514F06DE71B
:1038D00070E070931706609316060E94B6570C941A
:1038E000B00F89E690E00E948EA8811111C0E9E135
:1038F000F4E084918F010F5F1F4F882321F00E9415
:10390000C55AF801F6CF0E94FDA68AE00E94C55A6A
:103910001092041B1092031B0C94D22483E50E9486
:10392000A95A882311F40C94B00F0E94235A809353
:10393000091B8D3318F08CE38093091B0E94F75408
:103940006B017C012091091B30E0A8EEB3E00E94DE
:10395000D2C7C60ED71EE81EF91EC092051BD09214
:10396000061BE092071BF092081B0C94B00F0E94FC
:10397000D0A80C94B00F83E50E94A95A882339F08F
:103980000E94135A8B016F3F710519F010F00FEF71
:1039900010E080E50E94A95A811106C01093BB1463
:1039A0000093BA140C94B00F0E94235A81110C9406
:1039B000B00FF4CF80E50E94A95A811106C0109281
:1039C000BB141092BA140C94B00F0E94135A672BB8
:1039D00011F00C94B00FF3CF0E9452580E94CBAF5D
:1039E0000E9467B21092BB141092BA1400E010E06B
:1039F00062E370E080E090E00E94BF540E94CCAB94
:103A00000F5F1F4F0331110599F762E370E080E00B
:103A100090E00E94BF540E94CCAB0C94B00F109267
:103A20008A050C94B00F81E080938A050C94B00F46
:103A300083E50E94A95A8823A1F00E94435A20E0FE
:103A400030E04AE754E40E94ADC10E94C6C86093CA
:103A500045027093460280934702909348020C946B
:103A6000B00F88E50E947A5A811148C789E50E9403
:103A70007A5A811143C78AE50E947A5A81113EC75A
:103A800085E40E947A5A811139C70E94CBAF0E9407
:103A900067B20C94B00F83E50E947A5A882311F420
:103AA0000C94B00F0E94435A20E030E04AE754E4FF
:103AB0000E94ADC10E94C6C860930C1B70930D1B81
:103AC00080930E1B90930F1B0C94B00FD6018D9119
:103AD0006D010E947A5A882309F46DC0133009F0F1
:103AE00063C00E94435A4B015C0120E030E040EA91
:103AF00051E40E9448C187FF4EC0A5019401609126
:103B0000520E7091530E8091540E9091550E0E945A
:103B100059C82B013C019B01AC0160916814709164
:103B2000691480916A1490916B140E94ADC16093E6
:103B300068147093691480936A1490936B14A301B2
:103B400092016091841470918514809186149091F3
:103B500087140E94ADC16093841470938514809380
:103B60008614909387146091320E7091330E809179
:103B7000340E9091350E0E944CC1A30192010E9417
:103B8000ADC10E94C6C86093320E7093330E80930D
:103B9000340E9093350E8092520E9092530EA09256
:103BA000540EB092550E07C00E94435AF70160832D
:103BB0007183828393831F5FF4E0EF0EF11C143056
:103BC00009F084CF0E9429510C94B00F0E94CBAF12
:103BD0000E9400710C94B00F0E94C55AF8018491A4
:103BE0008F010F5F1F4F8111F7CFE9EEF4E003C0A3
:103BF0000E94C55AF80184918F010F5F1F4F8111F8
:103C0000F7CFE2EDF4E003C00E94C55AF8018491B9
:103C10008F010F5F1F4F8111F7CFE2ECF4E003C07B
:103C20000E94C55AF80184918F010F5F1F4F8111C7
:103C3000F7CFE1EBF4E003C00E94C55AF80184918C
:103C40008F010F5F1F4F8111F7CFE0EAF4E003C04F
:103C50000E94C55AF80184918F010F5F1F4F811197
:103C6000F7CFE1E9F4E003C00E94C55AF80184915E
:103C70008F010F5F1F4F8111F7CFECE7F4E003C016
:103C80000E94C55AF80184918F010F5F1F4F811167
:103C9000F7CFE6E6F4E003C00E94C55AF80184912C
:103CA0008F010F5F1F4F8111F7CFE1E5F4E003C0F3
:103CB0000E94C55AF80184918F010F5F1F4F811137
:103CC000F7CFE4E3F4E003C00E94C55AF801849101
:103CD0008F010F5F1F4F8111F7CFECE1F4E084916A
:103CE0008F010F5F1F4F882311F40C94B00F0E94B7
:103CF000C55AF801F4CF85E40E947A5A882381F0EE
:103D00000E94345A882361F0E0E7FAE084918F0141
:103D10000F5F1F4F882321F00E94C55AF801F6CF8C
:103D200081E40E947A5A882381F00E94345A8823C1
:103D300061F0E6ECF5E084918F010F5F1F4F88235F
:103D400021F00E94C55AF801F6CF00918505109127
:103D50008605D8018D918D01882309F46ECD0E94CE
:103D6000C55AF7CF0E94C55AF80184918F010F5FA1
:103D70001F4F8111F7CFEAEDF5E084918F010F5FBE
:103D80001F4F882321F00E94C55AF801F6CF659B8A
:103D900003C00AE313E002C005E313E0F8018191D8
:103DA0008F01882319F00E94C55AF8CF8AE00E943B
:103DB000C55AE2EDF5E084918F010F5F1F4F882314
:103DC00021F00E94C55AF801F6CF8091030181FFCE
:103DD00003C00AE313E002C005E313E0D8018D91AC
:103DE0008D01882319F00E94C55AF8CF8AE00E94FD
:103DF000C55AEAECF5E084918F010F5F1F4F8823CD
:103E000021F00E94C55AF801F6CF4B9B03C00AE38C
:103E100013E002C005E313E0F80181918F018823CC
:103E200009F40BCD0E94C55AF7CF81E08093E805D5
:103E30008093EE130C94B00F1092E8051092EE13DD
:103E40000C94B00F88EC90E00E948EA881110C9425
:103E5000B00F84E40E947A5A882309F45FC00E945C
:103E6000435A6B017C0111E020E030E0A9010E947F
:103E700048C1811101C010E01093F71320E030E039
:103E8000A901C701B6010E9448C1882309F446C0B0
:103E90000091720510E00E94435A000F111F000F9D
:103EA000111FF801E151FC4E60837183828393837B
:103EB00020E030E0A9016091EF137091F013809140
:103EC000F1139091F2130E9448C181110CC080E05F
:103ED00090E0A0EEBFE38093EF139093F013A093D4
:103EE000F113B093F21320E030E0A9016091F313D5
:103EF0007091F4138091F5139091F6130E9448C1CC
:103F000081110CC080E090E0A0EEBFE38093F3133A
:103F10009093F413A093F513B093F6130E9477B225
:103F20000C94B00FFDE4EF2EF2E0FF2E06E31EE04E
:103F3000A6E4CA2EAEE0DA2ED7018D917D010E9453
:103F40007A5A882349F00E94435A0E94C6C8F80151
:103F500060837183828393830C5F1F4FC016D106E9
:103F600059F70E940B500C94B00F7DE4E72E72E0DD
:103F7000F72E08E714E1E8E8CE2EE4E1DE2ED701C3
:103F80008D917D010E947A5A882339F00E94435A0C
:103F9000F80160837183828393830C5F1F4FC01687
:103FA000D10669F70C94B00F83E50E947A5A8823F2
:103FB000D9F00E94435AAB01BC0140937014509356
:103FC0007114609372147093731440936C14509333
:103FD0006D1460936E1470936F1486E596E00E94E2
:103FE000FA4E8AE00E94C55A80E50E947A5A8823D8
:103FF00099F00E94435AAB01BC0140937014509356
:104000007114609372147093731489E396E00E94A4
:10401000FA4E8AE00E94C55A82E50E947A5A8823A5
:1040200099F00E94435AAB01BC0140937414509321
:10403000751460937614709377148AE196E00E9469
:10404000FA4E8AE00E94C55A84E50E947A5A882373
:1040500011F40C94B00F0E94435AAB01BC01409381
:104060006C1450936D1460936E1470936F148CEFF6
:1040700095E00E94FA4E8AE00E94C55A0C94B00F57
:1040800083E50E947A5A882351F00E94435A609334
:10409000901470939114809392149093931484E5E8
:1040A0000E947A5A882351F00E94435A60938C14DC
:1040B00070938D1480938E1490938F1482E40E94D9
:1040C0007A5A8823C1F0809170059091710500970C
:1040D00039F04AE050E060E070E00E94C7BF03C0E2
:1040E00060E070E0CB016093881470938914809332
:1040F0008A1490938B1488E50E947A5A882351F091
:104100000E94435A60935C1470935D1480935E1414
:1041100090935F1489E50E947A5A882351F00E9497
:10412000435A609360147093611480936214909367
:1041300063148AE50E947A5A882351F00E94435AF8
:10414000609364147093651480936614909367145D
:1041500085E40E947A5A882311F40C94B00F0E94CF
:10416000435A609368147093691480936A1490930F
:104170006B140C94B00F6DE4E62E62E0F62E00E0B6
:1041800010E0D7018D917D010E947A5A882339F081
:104190000E94435AAB01BC01C8010E9452A80F5FA4
:1041A0001F4F0330110569F70E94095A0E940071E0
:1041B0000C94B00F84918F010F5F1F4F882321F063
:1041C0000E94C55AF801F6CF83E50E947A5A8823E7
:1041D00021F00E94345A80930002E6EAF6E08491CE
:1041E0008F010F5F1F4F882321F00E94C55AF801ED
:1041F000F6CF80910002882319F0EEE9F6E002C0C4
:10420000E2EAF6E084918F010F5F1F4F811103C036
:10421000E6E9F6E004C00E94C55AF801F3CF8491A4
:104220008F010F5F1F4F882321F00E94C55AF801AC
:10423000F6CF4091730550917405609175057091AA
:10424000760584E996E00E94FA4E409177055091F8
:1042500078056091790570917A0581E996E00E9470
:10426000FA4E40917B0550917C0560917D057091DF
:104270007E058EE896E00E94FA4EE6E8F6E084912C
:104280008F010F5F1F4F882321F00E94C55AF8014C
:10429000F6CF4091010250910202609103027091A9
:1042A000040284E896E00E94FA4E40910502509183
:1042B0000602609107027091080281E896E00E9470
:1042C000FA4E4091090250910A0260910B027091DE
:1042D0000C028EE796E00E94FA4E8AE00E94C55AD0
:1042E0000C94B00F83E50E94A95A882311F40C9412
:1042F000B00F0E94135A70931902609318020C9425
:10430000B00F8DED90E00E948EA881110C94B00F3B
:1043100083E50E94A95A882311F40C94B00F0091F0
:10432000720510E00E94135A000F111FF801E85C9B
:10433000FD4F718360830C94B00F80E50E947A5A20
:10434000882311F40C94B00F0E94135AF62EC62E37
:10435000D72E83E50E94A95A882321F00E94135A80
:104360008B0102C00FEF1FEFC8010196039710F0F9
:104370000C94B00FD7FE02C00C94B00FE6EBF6E041
:104380008491F81611F40C94B00F3196B6E0E33E28
:10439000FB07B1F7DFC283E50E94A95A882319F011
:1043A0000E94135A02C064E071E079A368A380E51B
:1043B0000E94A95A882339F00E94135A6938E3E110
:1043C0007E0730F402C068EE73E07A83698304C02C
:1043D00088E893E19A838983BE01605E7F4FCE01B6
:1043E00001960E94988F0C94B00F85E40E94A95A00
:1043F000811110C080E50E947A5A882391F00E94B2
:10440000435A60934F1A7093501A8093511A9093A5
:10441000521A07C00E94235A882361F3EAE3FAE0A4
:1044200072C089E40E947A5A882381F00E94435A1C
:104430002CEA35EC47E25EE30E94ADC160934B1A73
:1044400070934C1A80934D1A90934E1A84E40E94F4
:104450007A5A882381F00E94435A2CEA35EC47E2CD
:104460005EE30E9459C86093551A7093561A809360
:10447000571A9093581AE0E7FAE084918F010F5F82
:104480001F4F882321F00E94C55AF801F6CF4091B2
:104490004F1A5091501A6091511A7091521A8BEE26
:1044A00096E00E94FA4E2CEA35EC47E25EE360911A
:1044B0004B1A70914C1A80914D1A90914E1A0E948D
:1044C00059C8AB01BC0187EE96E00E94FA4E2CEA77
:1044D00035EC47E25EE36091551A7091561A80916F
:1044E000571A9091581A0E94ADC1AB01BC0183EEDE
:1044F00096E00E94FA4E8AE00E94C55A0C94B00FD2
:104500000E94C55AF80184918F010F5F1F4F8111DE
:10451000F7CF08E413E0D8018D918D01882309F4C9
:104520008CC90E94C55AF7CF83E50E947A5A182F8A
:10453000882371F00E94435A0E94C1C870932C02D4
:1045400060932B0221E0672B09F020E02093560EA8
:1045500080E50E947A5A882361F020912B023091E5
:104560002C02232B11F00E94345A8093560E0C9487
:10457000B00F11110C94B00FE0E7FAE084918F01B5
:104580000F5F1F4F882321F00E94C55AF801F6CF14
:104590008091560E882319F067E373E002C064E44B
:1045A00073E084E097E00E94304F60912B0270919D
:1045B0002C0283EF96E00E94174FEFEEF6E0849115
:1045C0008F010F5F1F4F882311F40C94B00F0E94CE
:1045D000C55AF801F4CF0E94076D0C94B00F0E94E9
:1045E000CBAF0C94B00FEEE1F4E1FEA7EDA786E0AF
:1045F000882E84E1982E93EAA92E94E1B92E23E720
:10460000C22E25E0D22E31E0232E32E0332E49EFA8
:10461000E42E49E1F42E00E010E0ADA5BEA58D9199
:10462000BEA7ADA7882309F481C0F5014080518061
:1046300062807380D1012D913D914D915C91F60185
:1046400060817181828193810E94E2C720E030E025
:1046500040E05FE30E94ADC19B01AC01C301B20128
:104660000E9445C9181654F4F70185919591A591BA
:10467000B4918FA798ABA9ABBAAB04C01FA618AA78
:1046800019AA1AAAD4012D913D914D915C91C301B3
:10469000B2010E94E1C79B01AC016FA578A989A96D
:1046A0009AA90E94E1C72B013C0120E030E040EADA
:1046B00051EC0E9445C987FD0AC020E030E040EA85
:1046C00051E4C301B2010E9448C118161CF4EAE388
:1046D000FAE009C0B301A201C8010E9452A826C095
:1046E0000E94C55AF80184918F010F5F1F4F8111FD
:1046F000F7CFE7E1F7E084918F010F5F1F4F882329
:1047000021F00E94C55AF801F6CF88E290E09A8322
:10471000898388EC90E099A388A3BE016F5F7F4FE7
:10472000CE0180960E94988F0C94B00F0F5F1F4FA0
:10473000B4E08B0E911CE4E0AE0EB11CF4E0CF0EA1
:10474000D11C24E0220E311C34E0E30EF11C0330B6
:10475000110509F062CF0E94095A0E94007183E995
:1047600092E099A388A304E610E01A830983BE01AE
:10477000605E7F4FCE0101960E94988F8AEB92E097
:1047800099A388A31A830983BE01605E7F4FCE017F
:1047900001960E94988F0C94B00F0E940C980C9474
:1047A000B00F0E94E1930C94B00F0E94AA610C9488
:1047B000B00F83E50E947A5A882319F00E94345A78
:1047C00001C081E091E089270E948C620C94B00FB7
:1047D0000E94C55AF80184918F010F5F1F4F81110C
:1047E000F7CFE5E3F7E084918F010F5F1F4F882338
:1047F00011F40C94B00F0E94C55AF801F4CF81E077
:104800008093430283E50E947A5A811104C00E947A
:10481000E7B20C94B00F0E94345A81110C94B00F7F
:10482000F6CF10918C05111102C047982AC01130A3
:1048300011F4129826C0E0E7FAE084917F019FEF1F
:10484000E91AF90A882321F00E94C55AF701F5CF29
:1048500084E50E94C55A612F70E080E090E04AE054
:104860000E94CC5A80E20E94C55A08E413E0D801A5
:104870008D918D01882311F40C941D1C0E94C55A42
:10488000F6CF10931A06E0E7FAE084918F010F5FEC
:104890001F4F882321F00E94C55AF801F6CF60917E
:1048A0001A0670E084E497E00E94174F8AE00E94A5
:1048B000C55A0C94B00F6115710519F4BF01615010
:1048C000710940E050E00C94201061E0812F0E94BB
:1048D000BC536E2D812F0E948E53F12CB701812F76
:1048E0000E94F853B9E0CB16D10411F00C94B00F2C
:1048F000F092BB14E092BA140C94B00F0E94CBAFAC
:1049000088E50E947A5A882319F05F9A1092E90587
:1049100089E50E947A5A882319F08A9A1092EA054A
:104920008AE50E947A5A882351F09FB7F8948091C3
:1049300008018160809308019FBF1092EB0585E418
:104940000E947A5A882311F40C94B00F0E94D4AFBD
:104950000C94B00F0E94CBAF60E08F2D0E94BC532F
:104960000F3FEFEF1E0759F48F2D0E94665331E081
:1049700020E0892B09F030E0032F122F05C0013011
:10498000110569F401E010E08F2D0E946653801735
:10499000910711F40C94B00F0E94D7AFF5CF00E04F
:1049A00010E0F2CFE2960FB6F894DEBF0FBECDBF97
:1049B000DF91CF911F910F91FF90EF90DF90CF90FB
:1049C000BF90AF909F908F907F906F905F904F902F
:1049D0003F902F9008952F923F924F925F926F9247
:1049E0007F928F929F92AF92BF92CF92DF92EF927F
:1049F000FF920F931F93CF93DF93CDB7DEB7C254CF
:104A0000D1090FB6F894DEBF0FBECDBF0E949891BA
:104A10000E94597890E0A92E9EE0B92E2AE1722ECC
:104A200085EC99E00E94AE518090A2059090A3057C
:104A3000181619065CF52AE1821691043CF585ECFE
:104A400099E00E948C51F401E050F24F80838091F4
:104A5000000E8A3569F01814190414F7D501E72DF2
:104A60001D92EA95E9F71092A3051092A205D8CFFE
:104A70006AE070E080E090E00E94BF54FFEF8F1A80
:104A80009F0A9092A3058092A205CACF1814190418
:104A900014F00C94D4409091610D8091000E981305
:104AA00022C09091620D8091010E98131CC023E0EA
:104AB00082169104C4F09091020E9093600D809143
:104AC000030E8093630D9330D9F4982F9D7F903817
:104AD000B9F49091040E9F3409F05BC09091050EDB
:104AE0009B3409F056C08AE1E0E0FEE0DF011D9250
:104AF0008A95E9F71092A3051092A2050C94D44070
:104B0000833809F046C08091040E9091050E9827D5
:104B100089279827A0E0B0E08093640D9093650DFD
:104B2000A093660DB093670D4091060E50E060E0D3
:104B300070E04093680D5093690D60936A0D709317
:104B40006B0D87E0682E8EE0782E80E090E0DC012F
:104B500084179507A607B70708F049C09C0135954B
:104B60002795F901EE0FFF1F9F012459324F59017C
:104B7000F301208130E0322F222791802929F5018D
:104B8000318320830296A11DB11DF2E06F0E711CCE
:104B9000DFCF813861F58091040E90E0A0E0B0E0B5
:104BA0008093640D9093650DA093660DB093670D8F
:104BB0008091050E482F50E060E070E04093680D52
:104BC0005093690D60936A0D70936B0DA6E0BEE083
:104BD000ECE6FDE090E020E030E02817390739F0FE
:104BE0004D9150E0419351932F5F3F4FF6CF8AE1B3
:104BF000E0E0FEE0DF011D928A95E9F71092A3053F
:104C00001092A2058091BE14181614F40C94D83E8C
:104C10004091640D5091650D6091660D7091670D26
:104C2000A1E5B2E0E0E0F0E08D909D90AD90BD9008
:104C300081149104A104B104B1F184169506A6066D
:104C4000B70679F5DB01CA0188509041A109B10985
:104C50000597A105B10550F1DB01CA01877F8233B9
:104C60009041A105B10529F1443330E153076105B5
:104C70007105F9F0DB01CA0186549041A109B1091F
:104C80000797A105B105C0F0DB01CA018455904129
:104C9000A109B1090597A105B10580F4E2E1F0E0B1
:104CA0000DC03196C1CFEFEFFFEF08C0E3E0F0E0B9
:104CB00005C0E8E0F0E002C0EFE0F0E0DB01CA018F
:104CC0008A509042A109B109833D9105A105B10522
:104CD00010F40C94C13BEF3F8FEFF80711F40C94E4
:104CE000D83EEA31F10510F00C94D83E8827EE58F2
:104CF000FF4F8F4F0C94E9C980916C0D90916D0D11
:104D00008130910509F052C01092400281E08093F9
:104D1000BF148FEF8093C4140E9498918091C314A4
:104D2000882311F181E09AE59093BD0D8093BC0D2D
:104D300082E090E09093BF0D8093BE0D87E080935A
:104D4000B00D82E88093B30D84E890E0A0E0B0E07D
:104D50008093B40D9093B50DA093B60DB093B70D9D
:104D60000E9462420C94D83E81E09AE59093BD0D7A
:104D70008093BC0D8EE290E09093BF0D8093BE0DAA
:104D800087E08093B00D82E88093B30D84E890E0D3
:104D9000A0E0B0E08093B40D9093B50DA093B60D54
:104DA000B093B70D0E9462420C94D83E82309105B8
:104DB00009F0F7C081E0809340021092B6140E947F
:104DC000AE6C8BE090E09093BD0D8093BC0D05E040
:104DD0000093B00D12E81093B30D80E092E1A0E0D3
:104DE000B0E08093B40D9093B50DA093B60DB09341
:104DF000B70D0E9462421092BD0D1092BC0D00933F
:104E0000B00D1093B30D8EE090E1A0E0B0E0809380
:104E1000B40D9093B50DA093B60DB093B70D0E944D
:104E200062421092BD0D1092BC0D0093B00D109314
:104E3000B30D8FE090E1A0E0B0E08093B40D9093CB
:104E4000B50DA093B60DB093B70D0E9462421092BB
:104E5000BD0D1092BC0D0093B00D1093B30D86E103
:104E600090E1A0E0B0E08093B40D9093B50DA093D5
:104E7000B60DB093B70D0E94624262E070E080E030
:104E800090E00E94BF541092BD0D1092BC0D009393
:104E9000B00D1093B30D80E190E1A0E0B0E08093FD
:104EA000B40D9093B50DA093B60DB093B70D0E94BD
:104EB00062421092BD0D1092BC0D0093B00D109384
:104EC000B30D82E190E1A0E0B0E08093B40D909347
:104ED000B50DA093B60DB093B70D0E94624210922B
:104EE000A70A1092A60A1092AC0A1092AD0A10926C
:104EF000AE0A1092AF0A1092B00A1092B10A109244
:104F0000B20A1092B30A1092A80A1092A90A10923B
:104F1000AA0A1092AB0A8091C314882309F181E098
:104F20009AE59093BD0D8093BC0D81E090E0909345
:104F3000BF0D8093BE0D87E08093B00D1093B30D2D
:104F400084E890E0A0E0B0E08093B40D9093B50DBC
:104F5000A093B60DB093B70D0E9462420C94D83E58
:104F600081E09AE59093BD0D8093BC0D8DE290E0B9
:104F70009093BF0D8093BE0D87E08093B00D10938A
:104F8000B30D84E890E0A0E0B0E08093B40D90937E
:104F9000B50DA093B60DB093B70D0E9462420C946C
:104FA000D83E8330910509F098C081E0809340029B
:104FB0001092B6149091C31480914202992309F47F
:104FC00046C0882311F181E09AE59093BD0D80934E
:104FD000BC0D80E190E09093BF0D8093BE0D87E003
:104FE0008093B00D82E88093B30D84E890E0A0E058
:104FF000B0E08093B40D9093B50DA093B60DB0932F
:10500000B70D0E9462420C94D83E81E09AE59093DD
:10501000BD0D8093BC0D8FE090E09093BF0D809309
:10502000BE0D87E08093B00D82E88093B30D84E8D5
:1050300090E0A0E0B0E08093B40D9093B50DA09304
:10504000B60DB093B70D0E9462420C94D83E8823EF
:1050500011F181E09AE59093BD0D8093BC0D8AE338
:1050600090E09093BF0D8093BE0D87E08093B00DCC
:1050700082E88093B30D84E890E0A0E0B0E08093F4
:10508000B40D9093B50DA093B60DB093B70D0E94DB
:1050900062420C94D83E81E09AE59093BD0D8093D6
:1050A000BC0D89E390E09093BF0D8093BE0D87E027
:1050B0008093B00D82E88093B30D84E890E0A0E087
:1050C000B0E08093B40D9093B50DA093B60DB0935E
:1050D000B70D0E9462420C94D83E049711F00C94D4
:1050E000D83E109240020C94D83E80916C0D909165
:1050F0006D0D81309105E1F5809142028823E1F048
:1051000082E090E09093BD0D8093BC0D85E080938C
:10511000B00D82E88093B30D8EE190E1A0E0B0E0A5
:105120008093B40D9093B50DA093B60DB093B70DC9
:105130000E9462420C94D83E83E090E09093BD0DB3
:105140008093BC0D85E08093B00D82E88093B30D11
:105150008EE190E1A0E0B0E08093B40D9093B50DA6
:10516000A093B60DB093B70D0E9462420C94D83E46
:105170008230910509F0FCC081E08093400290915B
:10518000B9148091C314933009F046C0882311F1FB
:1051900081E09AE59093BD0D8093BC0D8AE090E08C
:1051A0009093BF0D8093BE0D87E08093B00D82E891
:1051B0008093B30D84E890E0A0E0B0E08093B40D5C
:1051C0009093B50DA093B60DB093B70D0E946242B7
:1051D0000C94D83E81E09AE59093BD0D8093BC0D70
:1051E00084E390E09093BF0D8093BE0D87E08093A1
:1051F000B00D82E88093B30D84E890E0A0E0B0E0C9
:105200008093B40D9093B50DA093B60DB093B70DE8
:105210000E9462420C94D83E943009F063C0882307
:1052200011F181E09AE59093BD0D8093BC0D8CE067
:1052300090E09093BF0D8093BE0D87E08093B00DFA
:1052400082E88093B30D84E890E0A0E0B0E0809322
:10525000B40D9093B50DA093B60DB093B70D0E9409
:1052600062420C94D83E81E09AE59093BD0D809304
:10527000BC0D86E390E09093BF0D8093BE0D87E058
:105280008093B00D82E88093B30D84E890E0A0E0B5
:10529000B0E08093B40D9093B50DA093B60DB0938C
:1052A000B70D0E9462420C94D83E483090E15907F5
:1052B0006105710509F0CEC1909184138091C314EA
:1052C000913009F455C191115BC120916C0D309161
:1052D0006D0D203F310509F053C19091B914933001
:1052E00009F454CF882311F181E09AE59093BD0D24
:1052F0008093BC0D8BE090E09093BF0D8093BE0D2A
:1053000087E08093B00D82E88093B30D84E890E04D
:10531000A0E0B0E08093B40D9093B50DA093B60DCE
:10532000B093B70D0E9462420C94D83E81E09AE59A
:105330009093BD0D8093BC0D85E390E09093BF0DDD
:105340008093BE0D87E08093B00D82E88093B30D0B
:1053500084E890E0A0E0B0E08093B40D9093B50DA8
:10536000A093B60DB093B70D0E9462420C94D83E44
:105370008330910509F049C020914202222311F1A6
:105380009093BD0D8093BC0D85E08093B00D82E8B5
:105390008093B30D8EE190E1A0E0B0E08093B40D76
:1053A0009093B50DA093B60DB093B70D0E946242D5
:1053B0008FEF90E09093BB148093BA141092420246
:1053C0000C94D83E82E090E09093BD0D8093BC0D8C
:1053D00085E08093B00D82E88093B30D8EE190E17B
:1053E000A0E0B0E08093B40D9093B50DA093B60DFE
:1053F000B093B70D0E9462421092BB141092BA147F
:1054000081E0809342020C94D83E049711F00C94F2
:10541000D83E80911A02882309F452C082E090E0BD
:105420009093BD0D8093BC0D05E00093B00D12E884
:105430001093B30D8FE190E1A0E0B0E08093B40D44
:105440009093B50DA093B60DB093B70D0E94624234
:105450008091A0059091A1050097D1F09093170637
:10546000809316069093BD0D8093BC0D0093B00DF4
:105470001093B30D8AE390E1A0E0B0E08093B40D07
:105480009093B50DA093B60DB093B70D0E946242F4
:1054900010921A02109211028091C314882319F0FD
:1054A00088E090E002C08AE090E09093BD0D809388
:1054B000BC0D85E08093B00D82E88093B30D38C0B9
:1054C00083E090E09093BD0D8093BC0D05E00093C8
:1054D000B00D12E81093B30D8FE190E1A0E0B0E0C1
:1054E0008093B40D9093B50DA093B60DB093B70D06
:1054F0000E94624280911606909117069093A10532
:105500008093A00581E080931A028093110280911C
:10551000C314882319F087E090E002C089E090E08E
:105520009093BD0D8093BC0D0093B00D1093B30DFF
:1055300088E190E1A0E0B0E08093B40D9093B50DC8
:10554000A093B60DB093B70D0E94624260911A020B
:1055500080E690E00E9467C70C94D83E80916C0D65
:1055600090916D0D90931902809318020C94D83E7F
:1055700020916C0D30916D0D203F310509F44FCE17
:10558000882349F081E09AE59093BD0D8093BC0D8E
:1055900086E590E008C081E09AE59093BD0D809388
:1055A000BC0D87E590E09093BF0D8093BE0D87E022
:1055B0008093B00D82E88093B30D84E890E0A0E082
:1055C000B0E08093B40D9093B50DA093B60DB09359
:1055D000B70D0E9462421092BD0D1092BC0D05E005
:1055E0000093B00D12E81093B30D80E190E1A0E0BC
:1055F000B0E08093B40D9093B50DA093B60DB09329
:10560000B70D0E9462421092BD0D1092BC0D009326
:10561000B00D1093B30D82E190E1A0E0B0E0809373
:10562000B40D9093B50DA093B60DB093B70D0E9435
:1056300062421092541A1092531A1092C01410928F
:10564000A1051092A0051092E1051092E0050E94BC
:10565000208DC4C14A30A0E15A076105710509F0E7
:1056600098C080916C0D90916D0D813F910511F066
:105670000C94D83E8091C314882349F081E09AE5C8
:105680009093BD0D8093BC0D86E590E008C081E04D
:105690009AE59093BD0D8093BC0D87E590E09093C3
:1056A000BF0D8093BE0D87E08093B00D82E880939C
:1056B000B30D84E890E0A0E0B0E08093B40D909347
:1056C000B50DA093B60DB093B70D0E94624281E074
:1056D0008093BE148091AB149091AC14A091AD1442
:1056E000B091AE148093DC059093DD05A093DE05A8
:1056F000B093DF0520E030E040E251E46091AF1468
:105700007091B0148091B1149091B2140E94E1C7CD
:105710006093D8057093D9058093DA059093DB05E3
:105720001092B60A0E94EE8C8091E0059091E105FE
:10573000892B41F480911806909119069093E10508
:105740008093E0058091A0059091A105892B41F4FB
:1057500080911606909117069093A1058093A0055D
:1057600010921706109216060E94B65781E0809399
:10577000841384E08093B9141092541A1092531A2F
:105780008CEB98E09093C4098093C3090E94B059B0
:1057900025C14C3050416105710509F01FC1809150
:1057A0006C0D90916D0D019709F018C18091C31493
:1057B000882349F081E09AE59093BD0D8093BC0D5C
:1057C00086E590E008C081E09AE59093BD0D809356
:1057D000BC0D87E590E09093BF0D8093BE0D87E0F0
:1057E0008093B00D82E88093B30D84E890E0A0E050
:1057F000B0E08093B40D9093B50DA093B60DB09327
:10580000B70D0E9462427E01EFE1EE0EF11CA0E1B5
:10581000BA2ED701EB2D1D92EA95E9F76091DC05D0
:105820007091DD058091DE059091DF05870122E012
:1058300043E00E9485BC9E012F5F3F4F6901D90163
:105840001D92BA94E9F76091D8057091D9058091BD
:10585000DA059091DB05890122E043E00E9485BCD6
:105860000AEB15E0BEE1BB2EF8012B2D11922A9513
:10587000E9F78091A1058F938091A0058F9383EB29
:1058800098E09F938F931F930F930E941AC1C801B2
:105890000E942B44D801EB2D1D92EA95E9F78091E7
:1058A000E1058F938091E0058F938AEA98E09F93BA
:1058B0008F931F930F930E941AC1C8010E942B441B
:1058C000D8011D92BA94E9F7FF92EF9283EA98E02B
:1058D0009F938F931F930F930E941AC1C8010E9438
:1058E0002B44DF92CF928BE998E09F938F931F9385
:1058F0000F930E941AC1C8010E942B441092A10567
:105900001092A0051092E1051092E0050FB6F894F0
:10591000DEBF0FBECDBF8091B70A882319F081E0AA
:105920008093B60A0E94AE8C8091C314882319F02C
:1059300081E090E002C08DE090E09093BD0D8093F7
:10594000BC0D85E08093B00D82E88093B30D84E1B7
:1059500090E1A0E0B0E08093B40D9093B50DA093DA
:10596000B60DB093B70D0E9462421092841310924C
:10597000541A1092531A83E08093B91481E08093F3
:10598000C0148091C314882349F081E09AE5909374
:10599000BD0D8093BC0D8AE090E008C081E09AE5DF
:1059A0009093BD0D8093BC0D84E390E09093BF0D68
:1059B0008093BE0D87E08093B00D82E88093B30D95
:1059C00084E890E0A0E0B0E08093B40D9093B50D32
:1059D000A093B60DB093B70D0E9462428091640D02
:1059E0009091650DA091660DB091670D8C3090413E
:1059F000A105B10511F00C94D83E80916C0D9091E9
:105A00006D0D029711F00C94D83E81E080939F05B4
:105A10008091E0059091E105909319068093180616
:105A200010929C0510929B058091C314882309F164
:105A300081E09AE59093BD0D8093BC0D87E090E0E6
:105A40009093BF0D8093BE0D8093B00D82E880933C
:105A5000B30D84E890E0A0E0B0E08093B40D9093A3
:105A6000B50DA093B60DB093B70D0E9462420C9491
:105A7000D83E81E09AE59093BD0D8093BC0D82E500
:105A800090E09093BF0D8093BE0D87E08093B00DA2
:105A900082E88093B30D84E890E0A0E0B0E08093CA
:105AA000B40D9093B50DA093B60DB093B70D0E94B1
:105AB00062420C94D83E8090020690900306A0901B
:105AC0000406B09005068092FE059092FF05A09214
:105AD0000006B092010620916C0D30916D0DB90158
