:100000000C9426110C9457110C9457110C94571101
:100010000C9457110C9457110C9457110C945711C0
:100020000C9457110C9457110C9457110C945711B0
:100030000C9457110C9457110C9457110C945711A0
:100040000C9457110C94EA490C9457110C945711C5
:100050000C9457110C9457110C9498A80C948BA7DE
:100060000C9457110C9457DB0C9457110C945711A6
:100070000C9457110C9457110C9457110C94571160
:100080000C94FB510C9457110C9457110C9457116C
:100090000C9457110C9457110C9457110C94571140
:1000A0000C9457110C9457110C94CD510C9457117A
:1000B0000C9457110C9457110C9457110C949F5198
:1000C0000C9457110C9457110C9457110C94B8A51B
:1000D0000C948FA50C9457110C9457110C94571134
:1000E0000C945711222C1B2E5430FB2EB846B846C8
:1000F00001336933B533B846B846F23596386439BA
:10010000B846933BB846B846E83CB846B8460940BE
:1001100085402341034392432DA530A51FA523A568
:1001200029A567A534A538A53EA542A546A54CA599
:1001300050A554A567A55AA55EA562A5A7A6ACA61D
:10014000B1A6BBA6C5A63EA7CFA6D7A6DFA6E9A6A1
:10015000F3A6FDA60CA716A73EA720A72AA734A79B
:10016000084AD73B3BCE016E84BCBFFDC12F3D6C1E
:1001700074319ABD56833DDA3D00C77F11BED9E484
:10018000BB4C3E916BAAAABE000000803F05A84C64
:10019000CDB2D44EB93836A9020C50B99186880830
:1001A0003CA6AAAA2ABE000000803F004E414E494C
:1001B0004E495459494E46CDCCCC3D0AD7233C1725
:1001C000B7D13877CC2B329595E6241FB14F0A0072
:1001D0000020410000C84200401C4620BCBE4CCA62
:1001E0001B0E5AAEC59D7400407A10F35A00A072DF
:1001F0004E18090010A5D4E80000E8764817000062
:10020000E40B54020000CA9A3B000000E1F505002F
:100210000080969800000040420F000000A0860178
:10022000000000102700000000E803000000006448
:1002300000000000000A00000000000100000000B3
:10024000002C76D888DC674F0823DFC1DFAE59E188
:10025000B1B796E5E3E453C63AE651997696E8E6F7
:10026000C28426EB898C9B62ED407C6FFCEFBC9CCA
:100270009F40F2BAA56FA5F490055A2AF75C936BDC
:100280006CF9676DC11BFCE0E40D47FEF520E6B597
:1002900000D0ED902E0300943577050080841E0871
:1002A0000000204E0A000000C80C333333330F988F
:1002B0006E12831141EF8D2114893BE65516CFFE56
:1002C000E6DB18D1844B381BF77C1D901DA4BBE4E2
:1002D00024203284725E228100C9F124ECA1E53D24
:1002E00027434F4D4D554E49434154494F4E0044CD
:1002F000525952554E004552524F525300494E46A4
:100300004F004543484F0047322F47332062616416
:1003100020706172616D65746572730A005A207095
:10032000726F6265206F75742E206265640A0047E3
:100330003238205A20466F7262696464656E0A0022
:1003400047323900205A3A200020593A20004265AD
:100350006420583A20004D65736820706F696E7490
:100360002063616E6E6F74206265207265736F6CBE
:100370007665640A00456E642066696C65206C6968
:1003800073740A00426567696E2066696C65206C4B
:100390006973740A002E0A0046696C652862696EEA
:1003A000292064656C657465640044656C657469D6
:1003B0006F6E2862696E29206661696C65640053FE
:1003C00044207072696E74696E672062797465206A
:1003D000004E6F74205344207072696E74696E67AA
:1003E0000A002569730025696D2025697300256958
:1003F000682025696D2025697300256964202569B9
:10040000682025696D202569730025697920256993
:1004100064202569682025696D2025697300507264
:10042000696E742074696D653A200050726F74654E
:10043000637465642050696E0A000203FD02F602CF
:10044000EF02E1026F66660044454255473A004BB1
:10045000494C4C45442E20004D3131332053006F20
:100460006B002F2F200053657474696E67205472DF
:100470006176656C20416363656C65726174696F58
:100480006E3A200053657474696E67205265747209
:1004900061637420416363656C65726174696F6E3A
:1004A0003A200053657474696E67205072696E74E7
:1004B00020416363656C65726174696F6E3A2000F8
:1004C00053657474696E67205072696E7420616E32
:1004D000642054726176656C20416363656C65725B
:1004E0006174696F6E3A2000000136372603FF3CC5
:1004F0003D380EFF2E303E12FFFF0C0809FFFFFFB4
:100500001A1C18FFFF24221EFFFF08440AFF43FFA6
:10051000FFFFFFFFFF206F7574206F662072616E12
:1005200067650A00536572766F20003A20002053F9
:100530006572766F200043290A0061626C65642051
:10054000286D696E2074656D702000436F6C6420A7
:100550006578747275646573206172652000546FEC
:100560006F206661722066726F6D207265666572BB
:10057000656E636520706F696E740A00207A707210
:100580006F62655F7A6F66667365743D20007A5F9F
:100590006D696E3A20202D3230207A5F6D61783A95
:1005A00020203230005A204F666673657420004E5A
:1005B0006F2063617365206C696768740A0041632A
:1005C000746976652045787472756465723A2000A6
:1005D000556E6B6E6F776E20636F6D6D616E643AF2
:1005E0002022004D3234004D323320257300542533
:1005F00069004D3130362053323535004D313039B8
:1006000020532569004D3139302053256900473981
:100610003220452573004730205A2573004D313074
:100620003920532569004D31393020532569004D5B
:10063000323400473238004D343230205330004DD0
:100640003432302053310047312046313030205A87
:10065000300047312058363020593234302046336C
:100660003630300047312046313030205A33004791
:10067000312046313030205A300047312058323452
:100680003020593234302046333630300047312064
:1006900046313030205A3300473120463130302047
:1006A0005A300047312058323430205936302046F5
:1006B000333630300047312046313030205A330055
:1006C00047312046313030205A30004731205836EB
:1006D00030205936302046333630300047312046FE
:1006E000313030205A330047312046313030205AE3
:1006F00030004731205831353520593135352046C5
:10070000333630300047312046313030205A330004
:1007100047323900473930004732380047323820F5
:100720005A3000473238004D3834004731204632C5
:100730003030205A302E30004732380047393220CE
:10074000452573004730205A2573004D313039203C
:10075000532569004D31393020532569004732381F
:10076000205830205930004D343230205331004D64
:10077000343230205330002020506C616E6E657230
:1007800042756666657242797465733A2000204648
:10079000726565204D656D6F72793A2000436F6D0B
:1007A00070696C65643A204A616E202032203230D4
:1007B00032300A00207C20417574686F723A204301
:1007C000522D582050726F0A00323032302D3031A5
:1007D0002D303200204C6173742055706461746553
:1007E000643A200056657220312E37302E30204278
:1007F0004C5A2D0A004D61726C696E0020536F6671
:1008000074776172652052657365740A00205761C0
:10081000746368646F672052657365740A002042D0
:10082000726F776E206F75742052657365740A005D
:100830002045787465726E616C2052657365740A28
:1008400000506F77657255700A0073746172740A94
:10085000006572726F722077726974696E672074B6
:100860006F2066696C650A00205A3A0020593A00E8
:1008700020583A00656E6473746F707320686974F1
:100880003A2000446F6E6520736176696E6720665A
:10089000696C652E0A004D32390024F4D43050C3FF
:1008A0008E20C2A24017828B7011127A910D816C3A
:1008B000D90AA861E108C7586607615143061E4B73
:1008C0005D05C145A7041A411104093D980371391A
:1008D00031034036DB0265339102D4305402802E5E
:1008E0001D02632CEE01752AC501B028A001102756
:1008F00081018F2564012B244B01E0223401AC21BE
:100900001F018D200D01801FFC00841EED00971D2E
:10091000DF00B81CD200E61BC600201BBC00641A16
:10092000B200B219A8000A19A0006A189900D117DC
:10093000910040178B00B516840031167E00B31568
:1009400079003A157300C7146F0058146A00EE134B
:1009500066008813630025135E00C7125B006C12EB
:10096000570015125400C111510070114F00211190
:100970004B00D61049008D1047004610440002106D
:100980004200C00F4000800F3E00420F3C00060FA7
:100990003B00CB0E3800930E37005C0E3500270E5F
:1009A0003400F30D3200C10D3100900D3000600DA8
:1009B0002E00320D2D00050D2C00D90C2B00AE0C95
:1009C0002900850C29005C0C2700350C27000E0C33
:1009D0002600E80B2400C40B2400A00B23007D0B91
:1009E00023005A0B2100390B2100180B2000F80AB4
:1009F0001F00D90A1E00BB0A1E009D0A1D00800AA6
:100A00001D00630A1C00470A1B002C0A1B00110A68
:100A10001A00F7091A00DD091900C4091900AB0909
:100A20001900920917007B091800630917004C0987
:100A3000160036091600200916000A091500F508E7
:100A40001500E0081400CC081400B8081400A4082D
:100A50001400900813007D0812006B08130058085A
:100A60001200460812003408110023081100120871
:100A7000110001081100F0071000E0071000D00776
:100A80001000C0071000B0070F00A1071000910769
:100A90000E0083070F0074070F0065070E0057074D
:100AA0000E0049070E003B070D002E070E00200721
:100AB0000D0013070D0006070D00F9060C00ED06EA
:100AC0000D00E0060C00D4060C00C8060C00BC06A5
:100AD0000C00B0060C00A4060B0099060C008D0655
:100AE0000B0082060B0077060B006C060B006106FC
:100AF0000A0057060B004C060A0042060A00380698
:100B00000A002E060A0024060A001A060A00100629
:100B1000090007060A00FD050900F4050900EB05B8
:100B20000900E2050900D9050900D0050900C7053B
:100B30000900BE050900B5050800AD050800A505BA
:100B400009009C050800940508008C050800840530
:100B500008007C050800740508006C0507006505A1
:100B600008005D050700560508004E05070047050B
:100B700007004005080038050700310507002A0571
:100B80000700230507001C050600160507000F05D2
:100B900007000805060002050700FB040600F5042F
:100BA0000700EE040600E8040600E2040700DB0488
:100BB0000600D5040600CF040600C9040600C304DD
:100BC0000600BD040600B7040600B1040500AC042D
:100BD0000600A6040600A00405009B040600950478
:100BE0000500900406008A040500850405008004C1
:100BF00006007A04050075040500700405006B0406
:100C0000050066040500610405005C040500570446
:100C10000500520405004D04050048040500430486
:100C200005003E0404003A040500350405003004C4
:100C300004002C04050027040400230405001E04FE
:100C400004001A04040016040500110404000D0435
:100C50000400090405000404040000040400FC036B
:100C60000400F8030400F4030400F0030400EC03A0
:100C70000400E8030400E4030400E0030400DC03D0
:100C80000400D8030400D4030400D0030400CC0300
:100C90000400C8030300C503030024F404D9201B87
:100CA000C40C5C0E9804C4095F0265077101F40569
:100CB000F900FB04B30048048700C103690058032E
:100CC000550003034500BE023A008402310053027E
:100CD0002A002902250004022000E4011C00C801AA
:100CE0001900AF011700980114008401130071016D
:100CF00010006101100051010E0043010D0036018A
:100D00000B002B010B0020010B00150109000C0149
:100D1000090003010800FB000800F3000800EB00D5
:100D20000700E4000600DE000600D8000600D2003E
:100D30000600CC000500C7000500C2000500BD008C
:100D40000400B9000400B5000400B1000400AD00C7
:100D50000400A9000400A5000300A20003009F00F6
:100D600004009B000300980003009500020093001C
:100D70000300900003008D0002008B000300880038
:100D800002008600020084000300810002007F0050
:100D900002007D0002007B00020079000200770063
:100DA0000100760002007400020072000100710070
:100DB00002006F0002006D0001006C0002006A007A
:100DC0000100690002006700010066000100650083
:100DD0000100640002006200010061000100600087
:100DE00001005F0002005D0001005C0001005B008B
:100DF00001005A000100590001005800010057008D
:100E0000010056000100550001005400010053008C
:100E10000000530001005200010051000100500089
:100E200001004F0001004E0000004E0001004D0087
:100E300001004C0001004B0000004B0001004A0083
:100E4000010049000100480000004800010047007F
:100E5000010046000000460001004500000045007A
:100E60000100440001004300000043000100420073
:100E7000000042000100410000004100010040006C
:100E800001003F0000003F0001003E0000003E0066
:100E900001003D0000003D0001003C0000003C005E
:100EA00000003C0001003B0000003B0001003A0054
:100EB00000003A000100390000003900010038004C
:100EC0000000380000003800010037000000370043
:100ED0000100360000003600000036000100350039
:100EE000000035000000350001003400000034002F
:100EF0000000340001003300000033000000330024
:100F00000100320000003200000032000100310018
:100F1000000031000000310001003000000030000E
:100F20000000300001002F0000002F0000002F0003
:100F300000002F0001002E0000002E0000002E00F7
:100F400001002D0000002D0000002D0000002D00EC
:100F500001002C0000002C0000002C0000002C00E0
:100F600001002B0000002B0000002B0000002B00D4
:100F700001002A0000002A0000002A0000002A00C8
:100F800001002900000029000000290000002900BC
:100F900000002900010028000000280000002800AF
:100FA00000002800000028000100270000002700A2
:100FB0000000270000002700000027000100260095
:100FC0000000260000002600000026000000260089
:100FD000010025000000250000002500000025007C
:100FE000000025000000250001002400000024006E
:100FF0000000240000002400000024000100230061
:101000000000230000002300000023000000230054
:101010000000230000002300010022000000220045
:101020000000220000002200000022000000220038
:10103000010021000000210000002100000021002B
:10104000000021000000210000002100010020001C
:101050000000200000002000000020000000200010
:1010600000002000000020000000200001001F0000
:1010700000001F0000001F0000001F0000001F00F4
:1010800000001F0000001F0001001E0000001E00E5
:1010900000001E0000001E0000004D3834205820C3
:1010A00059205A2045002E0A006F70656E20666137
:1010B000696C65642C2046696C653A20005772693A
:1010C00074696E6720746F2066696C653A200053FE
:1010D000442063617264206F6B0A006F70656E520A
:1010E0006F6F74206661696C65640A00766F6C7559
:1010F0006D652E696E6974206661696C65640A00AD
:101100004572726F723A00534420696E69742066AA
:1011100061696C0A004D3234004D32332025730072
:101120006175746F25692E6700656E7175657565EB
:10113000696E672022006563686F3A0020746F6FE4
:10114000206C6F6E6720657874727573696F6E209E
:1011500070726576656E7465640A0020636F6C64F6
:1011600020657874727573696F6E2070726576652C
:101170006E7465640A004361703A454D45524745B7
:101180004E43595F5041525345523A300A00436131
:10119000703A434153455F4C494748545F42524976
:1011A0004748544E4553533A300A004361703A540D
:1011B0004F47474C455F4C49474854533A300A0023
:1011C0004361703A534F4654574152455F504F5711
:1011D00045523A300A004361703A4C4556454C49F5
:1011E0004E475F444154413A310A004361703A5AD4
:1011F0005F50524F42453A310A004361703A4155BF
:10120000544F4C4556454C3A310A004361703A50B0
:1012100052494E545F4A4F423A310A004361703A94
:1012200050524F47524553533A300A004361703A87
:101230004155544F5245504F52545F54454D503ACA
:10124000310A004361703A454550524F4D3A310AD8
:10125000004649524D574152455F4E414D453A4D2A
:1012600061726C696E2056657220312E37302E30D7
:1012700020424C5A2D2028437265616C6974793381
:10128000442920534F555243455F434F44455F55D2
:10129000524C3A68747470733A2F2F67697468758A
:1012A000622E636F6D2F4D61726C696E4669726D4F
:1012B000776172652F4D61726C696E2050524F5488
:1012C0004F434F4C5F56455253494F4E3A312E30A3
:1012D000204D414348494E455F545950453A3344A7
:1012E000205072696E7465722045585452554445B9
:1012F000525F434F554E543A3220555549443A6354
:10130000656465326132662D343161322D34373493
:10131000382D396231322D633535633632663336D6
:101320003766660A00205A00205900580020204DD8
:1013300061783A2000205A00205900580020204DA2
:10134000696E3A20004F6E20004F666600536F664C
:101350007420656E6473746F70733A200020643A71
:101360000020693A0020703A0023646566696E6562
:10137000202044454641554C545F4B642000236473
:101380006566696E65202044454641554C545F4B67
:1013900069200023646566696E65202044454641E6
:1013A000554C545F4B702000504944204175746F78
:1013B00074756E652066696E697368656421205076
:1013C000757420746865206C617374204B702C20D8
:1013D0004B6920616E64204B6420636F6E7374618F
:1013E0006E74732066726F6D2062656C6F77206912
:1013F0006E746F20436F6E66696775726174696F92
:101400006E2E680A00504944204175746F74756EE1
:1014100065206661696C6564212074696D656F750E
:10142000740A00504944204175746F74756E6520CC
:101430006661696C6564212054656D7065726174C4
:1014400075726520746F6F20686967680A00204BA9
:10145000643A2000204B693A2000204B703A20006B
:101460000A20436C617373696320504944200A0069
:101470002054753A2000204B753A2000206D617889
:101480003A2000206D696E3A200020643A20002046
:10149000626961733A20004F66660A0046616465BE
:1014A000204865696768742000426564204C657651
:1014B000656C696E6720004661696C656420746FB5
:1014C00020656E61626C6520426564204C657665BE
:1014D0006C696E670A004D65736820706F696E7481
:1014E0002063616E6E6F74206265207265736F6C2D
:1014F0007665640A004D34323120696E636F727212
:1015000065637420706172616D65746572207573B6
:101510006167650A004B494C4C45442E20005072CF
:10152000696E7465722073746F7070656420647581
:101530006520746F206572726F72732E2046697811
:1015400020746865206572726F7220616E64207508
:101550007365204D39393920746F20726573746159
:1015600072742E202854656D706572617475726591
:101570002069732072657365742E20536574206929
:101580007420616674657220726573746172746927
:101590006E67290A004E6F204C696E65204E756D8E
:1015A000626572207769746820636865636B737520
:1015B0006D2C204C617374204C696E653A20004E8E
:1015C0006F20436865636B73756D2077697468205D
:1015D0006C696E65206E756D6265722C204C61734E
:1015E00074204C696E653A2000636865636B73759F
:1015F0006D206D69736D617463682C204C61737428
:10160000204C696E653A20004C696E65204E756D00
:10161000626572206973206E6F74204C6173742050
:101620004C696E65204E756D6265722B312C204CB5
:10163000617374204C696E653A20004D3131300081
:101640004D3331004D383420582059205A20450060
:1016500053442072656164206572726F720A00449F
:101660006F6E65207072696E74696E672066696C52
:10167000650A0020706F736974696F6E206F7574EE
:10168000206F662072616E67652E0A003F50726F90
:10169000626520002066697273740A005A0059005E
:1016A0005800486F6D65200052756E6E696E672038
:1016B000696E204452592D52554E206D6F64650A53
:1016C00000473239204175746F20426564204C65B3
:1016D00076656C696E670A0028422961636B002891
:1016E0004629726F6E740028522969676874002851
:1016F0004C29656674003F2856296572626F7365D0
:10170000206C6576656C20697320696D706C6175FD
:101710007369626C652028302D34292E0A004261DD
:1017200064205A2076616C75650A004E6F206269EC
:101730006C696E65617220677269640A0046696C43
:10174000652064656C657465643A0044656C657415
:10175000696F6E206661696C65642C2046696C65F2
:101760003A20006F70656E206661696C65642C209C
:1017700046696C653A2000202F002042403A002044
:10178000403A004732382058302059300020573A2C
:10179000004732382058302059300020573A002076
:1017A0005A3A0020593A0020436F756E7420583A17
:1017B0000020453A00205A3A0020593A00583A0091
:1017C00050726F62696E67206661696C65640A00B9
:1017D000205A3A200020593A200042656420583AA5
:1017E00020005072696E7465722068616C74656463
:1017F0002E206B696C6C28292063616C6C656421F8
:101800000A000000000000000000000000000000CE
:10181000484200004842000080400000000057613C
:10182000726E696E673A20486F6D696E6720427507
:101830006D702044697669736F72203C20310A0014
:101840000202040000A0400000A040000000400090
:10185000009B4300009B430000C943FFFFFF6269F8
:101860006E004D31313720494E56414C4944204499
:101870004154412E00473932205A257320452573A3
:101880000062696E00290A002062797465733B204A
:10189000637263200053657474696E6773205374B8
:1018A0006F726564202800202863616C63756C6129
:1018B00074656429210A0020213D200045455052CD
:1018C0004F4D20435243206D69736D6174636820EE
:1018D0002D202873746F726564292000290A002066
:1018E00062797465733B2063726320002073746FA8
:1018F0007265642073657474696E677320726574B1
:10190000726965766564202800204D61726C696E8D
:101910003D563431290A0028454550524F4D3D006F
:10192000454550524F4D2076657273696F6E206D3C
:1019300069736D6174636820007C3C3E5E2B3D3FA3
:101940002F5B5D3B2C2A225C0070012C019001274B
:1019500001B0012201C0011D01F0011801100213A4
:101960000130020E016002090190020401C002FF71
:10197000000003FA004003F5008003F000D003EB01
:10198000002004E6007004E100E004DC004005D71C
:1019900000C005D2004006CD00D006C8008007C3B5
:1019A000003008BE00F008B900C009B400B00AAFAA
:1019B00000B00BAA00D00CA500000EA000500F9B99
:1019C00000C01096005012910000148C00C01587C2
:1019D00000B0178200B0197D00D01B7800001E7384
:1019E0000040206E0090226900F024640040275FD0
:1019F0000090295A00E02B5500102E500020304B4B
:101A00000010324600E033410090353C001037377B
:101A10000070383200A0392D00B03A2800A03B23D6
:101A200000603C1E00103D1900903D1400103E0F58
:101A300000703E0A00C03E0500003F0000403FFB32
:101A4000FF803FF6FFC03FF1FF0000210024002788
:101A5000002A002D003000330001010000040107BE
:101A6000010A0100002200250028002B002E003171
:101A700000340002010000050108010B01000020F4
:101A8000002300260029002C002F00320000010056
:101A900000030106010901050505050705080808F9
:101AA00008020202020A0A080804040404010101EF
:101AB00001010101010303030303030303040707F7
:101AC000070C0C0C0C0C0C0C0C0202020206060695
:101AD00006060606060B0B0B0B0B0B0B0B0102107D
:101AE0002020080810204010204080020102010838
:101AF00004020101020408102040808040201008E8
:101B00000402018004020180402010080402010840
:101B100004020101020408102040800102040810A0
:101B200020408000000A0B02090C0D0E0807030478
:101B300001000000000000000000000000000000A4
:101B40000000000000000000000000000000001283
:101B50001110000000000000000000000000000064
:101B6000000000000000000000526573656E643ADA
:101B700020006F6B0020746F6F206C6F6E672065A4
:101B80007874727573696F6E2070726576656E74A5
:101B900065640A0020636F6C6420657874727573E5
:101BA000696F6E2070726576656E7465640A006296
:101BB0007573793A2070617573656420666F722061
:101BC000696E7075740A00627573793A2070617578
:101BD00073656420666F7220757365720A006275A2
:101BE00073793A2070726F63657373696E670A0068
:101BF0004B494C4C45442E20004B494C4C206361D2
:101C000075736564206279204B494C4C2062757471
:101C1000746F6E2F70696E0A004B494C4C45442E10
:101C200020004B494C4C20636175736564206279D8
:101C300020746F6F206D75636820696E61637469CD
:101C400076652074696D65202D2063757272656EEE
:101C50007420636F6D6D616E643A20004861726438
:101C6000636F6465642044656661756C74205365B8
:101C70007474696E6773204C6F616465640A00F464
:101C8000010000F40100006400000088130000005F
:101C9000009643000096430000A0400000C84100A9
:101CA00000A0420000A0420000C84300000C4320F6
:101CB000204D383531205A005A2D50726F62652000
:101CC0004F666673657420286D6D293A0A002044BA
:101CD0000020490020204D3330312050005049442D
:101CE0002073657474696E67733A0A00205A002085
:101CF000204D3432302053004175746F20426564AA
:101D0000204C6576656C696E673A0A00205A00209F
:101D1000590020204D323036205800486F6D652024
:101D20006F66667365743A0A00204500205A0020E9
:101D3000590020580020420020540020204D32300D
:101D400035205300416476616E6365643A20533CEC
:101D50006D696E5F66656564726174653E20543CB2
:101D60006D696E5F74726176656C5F6665656472DD
:101D70006174653E20423C6D696E5F7365676D6599
:101D80006E745F74696D655F6D733E20583C6D6164
:101D9000785F78795F6A65726B3E205A3C6D617836
:101DA0005F7A5F6A65726B3E20453C6D61785F6566
:101DB0005F6A65726B3E0A002054002052002020AA
:101DC0004D323034205000416363656C657261743C
:101DD000696F6E2028756E6974732F7332293A20EB
:101DE000503C7072696E745F616363656C3E205233
:101DF0003C726574726163745F616363656C3E20FD
:101E0000543C74726176656C5F616363656C3E0A15
:101E100000204500205A0020590020204D3230314A
:101E20002058004D6178696D756D20416363656C64
:101E300065726174696F6E2028756E6974732F7393
:101E400032293A0A00204500205A0020590020205B
:101E50004D3230332058004D6178696D756D2066C4
:101E600065656472617465732028756E6974732F7B
:101E700073293A0A00204500205A002059002020EA
:101E80004D3932205800537465707320706572208C
:101E9000756E69743A0A0020204D3230302044308B
:101EA0000A0020204D3230302054312044002020C0
:101EB0004D3230302044002044697361626C6564A7
:101EC0000A0046696C616D656E742073657474698F
:101ED0006E67733A0020204D3134392043203B2077
:101EE000556E69747320696E2043656C73697573F0
:101EF0000A002020473231202020203B20556E69E7
:101F0000747320696E206D6D0A006265640A002C8E
:101F10002073797374656D2073746F7070656421BC
:101F2000204865617465725F49443A2000457272C9
:101F30003A204D415854454D502042454400457289
:101F4000723A204D415854454D50004D415854452A
:101F50004D502074726967676572656400457272DE
:101F60003A204D494E54454D50204245440045725B
:101F7000723A204D494E54454D50004D494E5445FE
:101F80004D502074726967676572656400486561C9
:101F900074696E67206661696C6564004865617488
:101FA000696E67206661696C656400486561746983
:101FB0006E67206661696C65640048656174696E6E
:101FC00067206661696C656400544845524D414C18
:101FD0002052554E4157415900546865726D616CED
:101FE0002052756E617761790057726974696E6706
:101FF00020746F2066696C653A20006F70656E20F2
:102000006661696C65642C2046696C653A20006FD6
:1020100070656E206661696C65642C2046696C652C
:102020003A200046696C652073656C65637465646D
:102030000A002053697A653A200046696C65206F72
:1020400070656E65643A20006F70656E2066616928
:102050006C65642C2046696C653A20002066696CCA
:10206000653A20004E6F7720002220706F730022A7
:1020700020706172656E743A2200535542524F557A
:1020800054494E452043414C4C207461726765743D
:102090003A22004B494C4C45442E20007472796919
:1020A0006E6720746F2063616C6C207375622D679E
:1020B000636F64652066696C657320776974682056
:1020C000746F6F206D616E79206C6576656C732E10
:1020D000204D4158206C6576656C2069733A004349
:1020E000616E6E6F74206F70656E207375626469C7
:1020F00072200020496E76616C6964206578747284
:1021000075646572200000000000000000000000FF
:10211000000000009B4300009B430000C943507235
:10212000696E7465722073746F7070656420647575
:102130006520746F206572726F72732E2046697805
:1021400020746865206572726F7220616E642075FC
:102150007365204D39393920746F2072657374614D
:1021600072742E202854656D706572617475726585
:102170002069732072657365742E2053657420691D
:10218000742061667465722072657374617274691B
:102190006E67290A0053544F502063616C6C65646C
:1021A0002062656361757365206F6620424C546FD1
:1021B000756368206572726F72202D20726573746A
:1021C0006172742077697468204D3939390A004783
:1021D00030204633363030205831353520593135AE
:1021E000350042696C696E656172204C6576656C7C
:1021F000696E6720477269643A0A004572726F72AD
:102200002077726974696E6720746F20454550525B
:102210004F4D210A007A5F6D696E3A2000795F6D3B
:10222000696E3A2000785F6D696E3A2000526570E1
:102230006F7274696E6720656E6473746F7020735B
:1022400074617475730A000059E49EE511241FBE81
:10225000CFEFD1E2DEBFCDBF00E00CBF15E0A0E0C4
:10226000B2E0E4EFFCEE01E00BBF02C007900D927C
:10227000A638B107D9F72CE1A6E8B5E001C01D9258
:10228000A837B207E1F711E1C5E2D1E100E006C0ED
:1022900021970109802FFE010E94B4F5C432D107B5
:1022A00080E00807A9F70E9480DB0C9469F60C9483
:1022B00000002F923F924F925F926F927F928F9287
:1022C0009F92AF92BF92CF92DF92EF92FF920F93C5
:1022D0001F93CF93DF93CDB7DEB7CF55D1090FB69C
:1022E000F894DEBF0FBECDBF0091681720E6029FB5
:1022F00080011124045A194F80913A1680FF1AC0A8
:10230000E6E3F1E184917F013FEFE31AF30A8111E3
:1023100002C0780104C00E943F71F701F3CFD701DA
:102320008D917D01882319F00E943F71F8CF8AE0DA
:102330000E943F7181E090E09093B41B8093B31BA7
:102340001092AB051092AA058FE38093B40510920A
:10235000B3051092B20584E0E0EAF5E0DF011D92DA
:102360008A95E9F7F80180810F5F1F4F8032D1F322
:102370008E34C9F4818190ED980F9A3020F08D321F
:1023800011F08B3281F4DF0112969D012F5F3F4FD8
:102390008C9180538A3010F4D901F7CFFD0111964A
:1023A00080818032D9F3F093BB1BE093BA1B7F018D
:1023B000BFEFEB1AFB0A10816AE270E0C7010E94CE
:1023C00002F6009731F0FC01319780818032E1F311
:1023D00011821D3431F1143521F1173411F1E6E386
:1023E000F1E184918F010F5F1F4F882321F00E943C
:1023F0003F71F801F6CF6091BA1B7091BB1B80ED65
:1024000095E00E947C5282E20E943F718AE00E9425
:102410003F711092B41B1092B31B0E9452B30C94E4
:10242000772AC701FC01208101962032D9F320537D
:102430002A30A8F61093B40580E090E06AE0319667
:10244000DF0111972C91022E000C330B2053310920
:10245000689FA001699F500D1124C901840F951F29
:10246000208120532A3058F39093B3058093B2050E
:10247000DF0131962C912032D9F31D34D1F48E3105
:10248000910591F03CF48731910571F08C31910503
:1024900081F40AC08537910564F08737910524F0EF
:1024A000803AE3E09E0729F4B093AB05A093AA0518
:1024B0007DC01092AB051092AA050091BA1BEE24C4
:1024C000E394F12CFD0131962C91222309F46EC086
:1024D0002132A9F41D3499F48032910581F4F093EE
:1024E000AB05E093AA0563E270E0CF010E9402F61B
:1024F000009711F40C94B21EDC011C9257C02154B9
:102500002A31A0F5AF01FA0130814F5F5F4F3032C1
:10251000D1F340ED430F4A3040F043ED430F4230DA
:1025200020F03B3211F00C94CE29AF01622F70E005
:10253000DB0133E0B595A7953A95E1F7A056BA4F80
:102540002770670102C0CC0CDD1C2A95E2F79601CA
:102550003C91232B2C934115510511F0401B01C0D8
:1025600040E0DB01AA57BA4F4C930AC02091AA055C
:102570003091AB05232B21F4B093AB05A093AA05B2
:10258000208121542A3110F4DF019CCFDF01AD01FD
:102590004F5F5F4F2C9120532A3010F4DA01F7CFB0
:1025A000FD01119620812032D9F3EECF8091B40540
:1025B0008D3411F40C94B21E843511F40C948B29D3
:1025C000873409F00CCF2090B2053090B3052CE190
:1025D0002216310409F485C694F444E0241631042B
:1025E00044F452E0251631040CF0FEC037FE2FC033
:1025F00010CF84E02816310409F42EC60ACF9AE2DF
:102600002916310411F40C94E51D6CF4BDE12B1670
:10261000310411F40C94C11CEEE12E16310411F4B6
:102620000C94C51CF6CEFBE52F16310411F40C9466
:102630004A1D2CE52216310411F40C944F1D3AE585
:102640002316310409F0E5CE1092B105E2CE809157
:102650005A02882309F4DDCE0E94E7750E9412B069
:102660008091A505813021F482E08093A505D1CE2B
:1026700090919112992309F4CCCE823009F4C9CEFD
:1026800080913C0690913D06893B9105DCF060917C
:102690003C0670913D06072E000C880B990B0E949A
:1026A00020EC9B01AC016091160670911706809199
:1026B0001806909119060E941AEC87FF03C00E9429
:1026C00024ADE5CF10926E1781E08093360280EA48
:1026D0009FE09093281C8093271C80917817882373
:1026E00049F182E090E0909398158093971585E0EA
:1026F00080938B1512E810938E1584E190E1A0E091
:10270000B0E080938F1590939015A0939115B0939E
:1027100092150E940B5461E070E080E090E00E940E
:1027200047A781E09AE590939815809397158BE0E1
:1027300090E028C08EE090E09093981580939715D4
:1027400085E080938B1512E810938E1584E190E15B
:10275000A0E0B0E080938F1590939015A093911511
:10276000B09392150E940B5461E070E080E090E01D
:102770000E9447A781E09AE590939815809397155A
:1027800085E390E090939A158093991587E0809364
:102790008B1510938E1584E890E0A0E0B0E0809354
:1027A0008F1590939015A0939115B09392150E9458
:1027B0000B5481E0809375178093A5058091F41ADE
:1027C0009091F51A019739F40E9452587093F51AB6
:1027D0006093F41A04C01092F51A1092F41A109231
:1027E000F21A1092F31A15CE80915A02882309F436
:1027F00010CE0E94E77582E50E942271882309F4B9
:102800003CC10E94BC704B015C018091E316909129
:10281000E416A091E516B091E6168CA79DA7AEA789
:10282000BFA72091E7163091E8164091E916509124
:10283000EA1628AB39AB4AAB5BAB8091C01A9091DA
:10284000C11AA091C21AB091C31A88AF99AFAAAFAA
:10285000BBAF2091C41A3091C51A4091C61A50914D
:10286000C71A2CAB3DAB4EAB5FAB20E030E0A9010B
:10287000C501B4010E941AEC882309F42AC128ADCD
:1028800039AD4AAD5BAD6CA57DA58EA59FA50E9417
:102890001AEC81110DC02CA93DA94EA95FA968A908
:1028A00079A98AA99BA90E941AEC882309F411C16D
:1028B00011E032E02316310409F010E020E030E0AE
:1028C000A901C501B4010E941AEC881F8827881F3E
:1028D000181759F080E090E0A0E8BFEB28968CAF85
:1028E0009DAFAEAFBFAF28970AC020E030E040E810
:1028F0005FE328962CAF3DAF4EAF5FAF28972CA576
:102900003DA54EA55FA568AD79AD8AAD9BAD0E9492
:10291000B3F224966CAF7DAF8EAF9FAF249728A9FA
:1029200039A94AA95BA96CA97DA98EA99FA90E9472
:10293000B3F26B017C0124962CAD3DAD4EAD5FAD85
:102940002497CA01B9010E947FEC2B013C01A70129
:102950009601C701B6010E947FEC9B01AC01C30147
:10296000B2010E94B4F20E9420F56CAF7DAF8EAF31
:102970009FAF20E030E040E05FE30E947FEC2B015E
:102980003C01A5019401C501B4010E947FEC4B01FB
:102990005C01A3019201C301B2010E947FEC9B0183
:1029A000AC01C501B4010E94B3F20E9420F5289643
:1029B0002CAD3DAD4EAD5FAD28970E947FEC4B0135
:1029C0005C01C701B60190582CAD3DAD4EAD5FAD79
:1029D0000E9490F3A50194010E947FEC6B017C01A1
:1029E00028AD39AD4AAD5BAD6CA57DA58EA59FA583
:1029F0000E94B4F220E030E040E05FE30E947FEC10
:102A00009B01AC01C701B6010E94B4F22CA53DA503
:102A10004EA55FA50E94B3F26B017C012CA93DA9D4
:102A20004EA95FA968A979A98AA99BA90E94B4F2B5
:102A300020E030E040E05FE30E947FEC2B013C01AE
:102A40002CAD3DAD4EAD5FAD24966CAD7DAD8EAD84
:102A50009FAD24970E9490F3A50194010E947FEC02
:102A60009B01AC01C301B2010E94B4F228A939A9AB
:102A70004AA95BA90E94B3F214C089E40E942271A2
:102A8000882329F00E94BC706B017C0103C0C12C1B
:102A9000D12C76018AE40E9422718823E9F00E94F9
:102AA000BC7068AF79AF8AAF9BAF20E030E0A9017E
:102AB000C701B6010E941AEC81111BC020E030E072
:102AC000A90168AD79AD8AAD9BAD0E941AEC811168
:102AD00010C0E0E0F1E1ADC320E030E0A901C701A2
:102AE000B6010E941AEC8823A1F318AE19AE1AAEF3
:102AF0001BAED701C601B0588CA79DA7AEA7BFA734
:102B000028AD39AD4AAD5BAD505828AB39AB4AABB7
:102B10005BAB9C01AD01BC01CD010E947FEC4B0180
:102B20005C0128A939A94AA95BA9CA01B9010E9477
:102B30007FEC9B01AC01C501B4010E94B4F20E947C
:102B400020F564966CAF7DAF8EAF9FAF6497809198
:102B5000E3169091E416A091E516B091E6168CABC1
:102B60009DABAEABBFABA7019601BC01CD010E94EE
:102B7000B4F228966CAF7DAF8EAF9FAF28972091AF
:102B8000E7163091E8164091E9165091EA162CAFFD
:102B90003DAF4EAF5FAF28AD39AD4AAD5BAD6CAD6B
:102BA0007DAD8EAD9FAD0E94B4F268966CAF7DAFE7
:102BB0008EAF9FAF68978091C01A9091C11AA09173
:102BC000C21AB091C31A2C968CAF9DAFAEAFBFAFF7
:102BD0002C9728962CAD3DAD4EAD5FAD2897BC012E
:102BE000CD010E94B3F26B017C012091C41A309197
:102BF000C51A4091C61A5091C71A60962CAF3DAFC6
:102C00004EAF5FAF609768962CAD3DAD4EAD5FADFA
:102C1000689760966CAD7DAD8EAD9FAD60970E945C
:102C2000B3F24B015C018091EB169091EC16A091F0
:102C3000ED16B091EE166C968CAF9DAFAEAFBFAFF8
:102C40006C979C01AD016091C81A7091C91A80916E
:102C5000CA1A9091CB1A0E94B3F224966CAF7DAF42
:102C60008EAF9FAF2497A70196016CA57DA58EA579
:102C70009FA50E947FEC2B013C01A501940168A94E
:102C800079A98AA99BA90E947FEC9B01AC01C30191
:102C9000B2010E94B4F22B013C01A50194016CA584
:102CA0007DA58EA59FA50E947FEC4B015C01A7012D
:102CB000960168A979A98AA99BA90E947FEC9B012A
:102CC000AC01C501B4010E94B3F2A30192010E94BC
:102CD00027F36B017C0120E030E0A9010E941AEC8F
:102CE00087FF0AC02BED3FE049EC50E4C701B60175
:102CF0000E94B4F26B017C0192E02916310451F478
:102D00002BED3FE049EC50E4C701B6010E94B3F25D
:102D10006B017C0120E030E0A901C701B6010E94EF
:102D20001AEC811124C02C962CAD3DAD4EAD5FAD9B
:102D30002C976CA97DA98EA99FA90E941AEC8111DC
:102D400016C060962CAD3DAD4EAD5FAD60976CADDD
:102D50007DAD8EAD9FAD0E941AEC811108C00BEDC8
:102D6000C02E0FE0D02E09ECE02E00E4F02EA701DB
:102D7000960164966CAD7DAD8EAD9FAD64970E945B
:102D80007FEC9B01AC010E947FEC4B015C0124961F
:102D90002CAD3DAD4EAD5FAD2497CA01B9010E9487
:102DA0007FEC9B01AC01C501B4010E94B4F20E940A
:102DB00020F54B015C012FE632E143E85AE30E9423
:102DC0001AEC87FD30C2C501B4010E9429F40E94AB
:102DD000FDF37DAF6CAFDB01AB2B21F4E1E0F0E064
:102DE000FDAFECAF4090EF165090F0166090F116EA
:102DF0007090F2162CAD3DADB90180E090E00E94DC
:102E00001EEC4B015C019B01AC01C701B6010E94A5
:102E100090F36CAB7DAB8EAB9FABA5019401249678
:102E20006CAD7DAD8EAD9FAD24970E9490F36496FE
:102E30006CAF7DAF8EAF9FAF6497A301920160919D
:102E4000CC1A7091CD1A8091CE1A9091CF1A0E940F
:102E5000B3F2A50194010E9490F3A0966CAF7DAFF0
:102E60008EAF9FAFA0972CA93DA94EA95FA9CA011B
:102E7000B9010E947FEC20E030E040E05FE30E9477
:102E80007FEC9B01AC0160E070E080E89FE30E9472
:102E9000B3F224966CAF7DAF8EAF9FAF24976C9644
:102EA0008CAD9DADAEADBFAD6C9789879A87AB8772
:102EB000BC874D865E866F86788A60910B02709122
:102EC0000C02072E000C880B990B0E9420EC20911D
:102ED0002E0230912F0240913002509131020E9417
:102EE0007FEC2AE037ED43E25CE30E947FEC2C9616
:102EF0006CAF7DAF8EAF9FAF2C970E947FA79B01D9
:102F0000AC0128533F4F4F4F5F4F60962CAF3DAF02
:102F10004EAF5FAF60974CA45DA46EA47FA4222443
:102F20002394312C19E1D12E4CAD5DAD42155305E2
:102F300009F435C10E9458C30E947FA7DC01CB0170
:102F400060962CAD3DAD4EAD5FAD6097821B930B8F
:102F5000A40BB50BB7FD10C00E947FA79B01AC016D
:102F600028533F4F4F4F5F4F60962CAF3DAF4EAF52
:102F70005FAF60970E9424ADDA94DD2009F441C070
:102F800028A939A94AA95BA924966CAD7DAD8EAD5F
:102F90009FAD24970E947FEC4B015C019201A3013D
:102FA0006CA97DA98EA99FA90E947FECA50194011F
:102FB0000E94B4F27B018C019201A30124966CADB6
:102FC0007DAD8EAD9FAD24970E947FEC4B015C01DF
:102FD00028A939A94AA95BA96CA97DA98EA99FA98D
:102FE0000E947FEC9B01AC01C501B4010E94B3F2C9
:102FF0002B013C01C701D80188AB99ABAAABBBAB95
:103000004DC0B10180E090E00E941EEC2CA93DA9CA
:103010004EA95FA90E947FEC4B015C010E948DF3D9
:103020006B017C01C501B4010E9416F54B015C01E6
:10303000A70196016CA57DA58EA59FA50E947FEC9A
:103040002B013C0128AD39AD4AAD5BADC501B401E2
:103050000E947FECA30192010E94B4F22B013C017B
:10306000A50194016CA57DA58EA59FA50E947FEC6E
:103070004B015C0128AD39AD4AAD5BADC701B6016E
:103080000E947FEC9B01AC01C501B4010E94B3F228
:1030900068AB79AB8AAB9BABA9E1DA2E9201A301B5
:1030A00028966CAD7DAD8EAD9FAD28970E94B4F291
:1030B00069837A838B839C8328A939A94AA95BA950
:1030C00068966CAD7DAD8EAD9FAD68970E94B4F2F1
:1030D0006D837E838F83988764962CAD3DAD4EAD16
:1030E0005FAD649769857A858B859C850E94B4F273
:1030F00069877A878B879C87A0962CAD3DAD4EADB6
:103100005FADA0976D857E858F8598890E94B4F20A
:103110006D877E878F87988B80912D02882321F081
:10312000CE0101960E949D92C0903E0689819A81AF
:10313000AB81BC8188A399A3AAA3BBA38D819E81E7
:10314000AF81B8858CA39DA3AEA3BFA389859A85C3
:10315000AB85BC8588A799A7AAA7BBA7AE01485D88
:103160005F4FBE016C5D7F4FCE0180960E949ED75F
:103170002C96ECACFDAC0EAD1FAD2C979E01235FE1
:103180003F4FAE01485D5F4FBE016C5D7F4FCE018A
:1031900080960E94D75A3FEF231A330AC5CEC090BB
:1031A0003E068091C01A9091C11AA091C21AB091A6
:1031B000C31A88A399A3AAA3BBA38091C41A909110
:1031C000C51AA091C61AB091C71A8CA39DA3AEA32D
:1031D000BFA38091C81A9091C91AA091CA1AB09140
:1031E000CB1A88A799A7AAA7BBA7AE01485D5F4FD6
:1031F000BE016C5D7F4FCE0180960E949ED72C96BB
:10320000ECACFDAC0EAD1FAD2C972CEC3AE1AE0151
:10321000485D5F4FBE016C5D7F4FCE0180960E947E
:10322000D75A0E949FD00E943471F3C80E943F7108
:10323000F80184918F010F5F1F4F8111F7CFE7E0F5
:10324000F3E084918F010F5F1F4F882309F4E1C8D9
:103250000E943F71F801F5CF80E50E94227188231A
:1032600079F08091A6059091A705009749F04AE072
:1032700050E060E070E00E9499EA6B017C0103C0BD
:10328000C12CD12C760183E50E942271882361F044
:103290000E94BC7020E030E04AE754E40E947FECDA
:1032A0000E94FDF36B017C010E9458C70E9434719B
:1032B0008091D01A9091D11AA091D21AB091D31ABC
:1032C000C80ED91EEA1EFB1E0E947FA7DC01CB019F
:1032D0008C199D09AE09BF09B7FF9BC80E9424AD98
:1032E000F3CF0E9458C780E00E94A9CD0E94A1CED2
:1032F00011E010930E0688E50E94F370E82E89E530
:103300000E94F370082F8AE50E94F370F82EE110F6
:1033100004C0011104C0182705C0011102C010E04B
:1033200001C0182F0E9495D0111105C0E11003C0F3
:10333000002309F440C020E030E040EA50E460910E
:10334000FB167091FC168091FD169091FE160E945E
:10335000B4F26093C81A7093C91A8093CA1A9093F2
:10336000CB1A2091EB163091EC164091ED1650914E
:10337000EE160E94DAF418165CF419821A821B8287
:103380001C82BE016F5F7F4F88EC9AE10E94B2CF32
:10339000111105C0E11003C0011107C00CC080E08D
:1033A00090E00E9460911123B9F381E090E00E94C7
:1033B0006091111103C0FF2009F4CAC080910F066B
:1033C000882321F08091100681111AC0E6E3F1E113
:1033D00084918F010F5F1F4F811103C0EFE2F3E073
:1033E00004C00E943F71F801F3CF84918F010F5FF9
:1033F0001F4F882309F4ACC00E943F71F801F5CF3C
:103400000E9445704090F3165090F4166090F516A7
:103410007090F6168090F7169090F816A090F91616
:10342000B090FA1620E030E04BE153E4C501B4015E
:103430000E94B4F26B017C016093C41A7093C51AA8
:103440008093C61A9093C71A8091EB169091EC1650
:10345000A091ED16B091EE168093C81A9093C91AF8
:10346000A093CA1AB093CB1A20E030E04BE153E4AA
:10347000C301B2010E94B4F220E030E044E452E41F
:103480000E94B3F26093C01A7093C11A8093C21A5B
:103490009093C31AA30192010E94B3F22B013C0145
:1034A0002FE632E143E85AEB0E94DAF487FD0AC0C6
:1034B00021E230E04BE953E4C301B2010E941AEC6F
:1034C00018161CF4E6E3F1E131C0A5019401C7012F
:1034D000B6010E94B3F26B017C012FE632E143E8B2
:1034E0005AEB0E94DAF487FDEDCF21E230E04BE9A0
:1034F00053E4C701B6010E941AEC18161CF3198296
:103500001A821B821C829E012F5F3F4F4BEE56E1B9
:1035100064EC7AE180EC9AE10E94C1CE82E090E016
:103520000E94609115C00E943F71F80184918F0143
:103530000F5F1F4F8111F7CFEDE1F3E084918F0111
:103540000F5F1F4F882321F00E943F71F801F6CFD3
:103550000E94457080917317813009F059C08093A3
:10356000360280E090E00E94F7A7809178178823C8
:1035700019F184E090E0909398158093971585E079
:1035800080938B1512E810938E1584E190E1A0E0F2
:10359000B0E080938F1590939015A0939115B09300
:1035A00092150E940B5481E09AE5909398158093B0
:1035B00097158CE090E022C080E190E09093981500
:1035C0008093971585E080938B1512E810938E15E4
:1035D00084E190E1A0E0B0E080938F159093901586
:1035E000A0939115B09392150E940B5481E09AE537
:1035F000909398158093971586E390E090939A1591
:103600008093991587E080938B1510938E152AC0AF
:103610008530B1F581E08093360280E090E00E9431
:10362000F7A71092731780917817882349F081E0EB
:103630009AE590939815809397158CE290E008C0D6
:1036400081E09AE5909398158093971581E590E035
:1036500090939A158093991587E080938B1582E853
:1036600080938E1584E890E0A0E0B0E080938F1501
:1036700090939015A0939115B09392150E940B54BE
:103680008091A905882309F450C018A219A21AA292
:103690001BA220E030E040EA50E46091EB1670910C
:1036A000EC168091ED169091EE160E94B3F26983AC
:1036B0007A838B839C83BE01605E7F4FCE0101962F
:1036C0000E94B2CF84ED9AE10E94D254809192126E
:1036D000882319F081E08093911281E090E090932B
:1036E00082128093811210928B1210928C1210927F
:1036F0008D1210928E120E947FA760938712709392
:1037000088128093891290938A128091810E9091F1
:10371000820EA091830EB091840E809383129093B9
:103720008412A0938512B09386128091FF1B809320
:103730000E060E9487CE0E94217F80917317982FDA
:103740009D7F943009F07FC090916B17992309F405
:1037500078C010926B1710923602909178179923C7
:1037600051F1843069F46091A805862F90E0A0E0C3
:10377000B0E0BC01CD01635E7F4F8E4F954A29C0FA
:10378000863009F05EC018A219A21AA21BA21982E3
:103790001A821B821C82BE01605E7F4FCE010196A1
:1037A0000E94B2CF81E09AE5909398158093971587
:1037B00086E190E02EC0843099F46091A805862FB0
:1037C00090E0A0E0B0E0BC01CD01695B7F4F8E4F7F
:1037D000954A24E830E040E050E00E94AF5431C008
:1037E000863079F518A219A21AA21BA219821A8290
:1037F0001B821C82BE01605E7F4FCE0101960E943B
:10380000B2CF81E09AE5909398158093971580E464
:1038100090E090939A158093991587E080938B158B
:1038200082E880938E1584E890E0A0E0B0E0809379
:103830008F1590939015A0939115B09392150E94B7
:103840000B541092731720E030E040E251E4609195
:10385000E3167091E4168091E5169091E6160E94A9
:103860007FEC0E94F8F3709398156093971505E02C
:1038700000938B1512E810938E1588E490E1A0E078
:10388000B0E080938F1590939015A0939115B0930D
:1038900092150E940B5420E030E040E251E4609128
:1038A000E7167091E8168091E9169091EA160E9449
:1038B0007FEC0E94F8F3709398156093971500932E
:1038C0008B1510938E158AE490E1A0E0B0E0809310
:1038D0008F1590939015A0939115B09392150E9417
:1038E0000B5420E030E040E251E46091EB1670911F
:1038F000EC168091ED169091EE160E947FEC0E94DE
:10390000F8F3709398156093971500938B151093A7
:103910008E158CE490E1A0E0B0E080938F15909339
:103920009015A0939115B09392150E940B5490910D
:1039300091128091A905992391F0811110C0809175
:103940006C1781110FC081E080936C1780E493E0C5
:1039500090932F1180932E110E94EC6F03C0811160
:103960001092A90580917317813031F40E94A9CD7E
:10397000109273170C94091280E00E94A9CD0C9448
:1039800009120E9480770C940912C090E316D0901F
:10399000E416E090E516F090E61688E50E942271A4
:1039A000811109C020E030E044E452E4C701B601CF
:1039B0000E94B4F202C00E94BC7068A379A38AA3DB
:1039C0009BA3C090E716D090E816E090E916F0901F
:1039D000EA1689E50E942271811108C020E030E0DA
:1039E000A901C701B6010E94B4F202C00E94BC70D6
:1039F0006B017C0169837A838B839C832091F3160E
:103A00003091F4164091F5165091F61668A179A1FF
:103A10008AA19BA10E94B3F24B015C012AEF3EEF09
:103A200043E452E40E94DAF487FF02C00C940912C6
:103A300021E230E04BE953E4C501B4010E941AECE5
:103A4000181614F40C9409122091F7163091F816F8
:103A50004091F9165091FA16C701B6010E94B3F2CF
:103A60006B017C012FE632E143E85AEB0E94DAF465
:103A700087FF02C00C94091221E230E04BE953E4C5
:103A8000C701B6010E941AEC181614F40C9409121E
:103A90000C94DF2981E08093B1050C94091285E430
:103AA0000E942271B82E811102C00E9458C777E689
:103AB000872E72E0972EE3EECE2EE6E1DE2EF1EBBE
:103AC000EF2EFAE1FF2E00E010E0A12C3324339416
:103AD000D4018D914D010E942271882359F1F60184
:103AE00040805180628073800E94BC70D6016D93CB
:103AF0007D938D939C9313970330E1F0023011F482
:103B000030921106A30192010E94B3F29B01AC0115
:103B1000F70160817181828193810E94B4F2D701A3
:103B20006D937D938D939C931397C8010E9411D13F
:103B3000AA24A3940F5F1F4FB4E0CB0ED11CE4E086
:103B4000EE0EF11C0430110519F6AA2019F00E949E
:103B5000457037C0BB20A9F1C090EF16D090F01689
:103B6000E090F116F090F2162091671630916816E9
:103B70004091691650916A16C701B6010E947FEC08
:103B80000E94E6F46093ED117093EE118093EF11B3
:103B90009093F011C701B6010E94F8F32FB7F89483
:103BA00060931B1C70931C1C80931D1C90931E1C07
:103BB0002FBF1092DD111092DE111092DF111092C2
:103BC000E0110E94217F0C94091280915A028823EF
:103BD00011F40C94091289E40E942271182F882391
:103BE00021F00E948C70062F01C000E08AE40E9440
:103BF0002271E82E882321F00E948C70F62E01C0DD
:103C0000F12C112311F0053028F4EE2089F0F4E0B6
:103C1000FF1570F4E6E5F3E084918F010F5F1F4F0D
:103C2000882311F40C9409120E943F71F801F4CF1B
:103C30000E9495D0112339F12091FB1A3091FC1A82
:103C40000203B001039F700D11248091F71A909127
:103C5000F81A680F791F072E000C880B990B0E9429
:103C600020EC2091F3163091F4164091F516509106
:103C7000F6160E94B4F26093C01A7093C11A809332
:103C8000C21A9093C31AEE2041F12091FD1A30918F
:103C9000FE1A4F2D4203B001439F700D11248091F5
:103CA000F91A9091FA1A680F791F072E000C880BE9
:103CB000990B0E9420EC2091F7163091F816409154
:103CC000F9165091FA160E94B4F26093C41A7093D8
:103CD000C51A8093C61A9093C71A80E50E94F370A4
:103CE0008823E1F00E94AD708823C1F01123B1F068
:103CF00020E030E044E452E46091C01A7091C11AAF
:103D00008091C21A9091C31A0E94B3F26093C01AB4
:103D10007093C11A8093C21A9093C31A86E40E94CA
:103D200022718823D9F00E94BC706B017C0120E0D5
:103D300030E0A9010E94DAF4181684F420E030E0A3
:103D400040E752E4C701B6010E9490F360932E024F
:103D500070932F0280933002909331020E9412B030
:103D60000C9409128091B2059091B30586379105A4
:103D700009F475C60CF0CCC08D34910509F4FBC371
:103D80000CF062C08A31910509F44FC29CF585316F
:103D9000910509F4EFC1D4F48231910509F4B1C55C
:103DA0008431910509F4A4C1419711F00C940912D2
:103DB0005F988A989FB7F894809108018E7F8093CE
:103DC00008019FBF129847980C94091287319105FA
:103DD00009F4DCC10CF4D4C18831910509F4ECC1BB
:103DE000499711F00C940912109291120E944BC83D
:103DF0000C9409128F31910509F4C7C274F48C3107
:103E0000910509F46EC20CF42FC24E9711F00C9478
:103E100009120E94E27D0C9409128A32910509F47C
:103E200067C32CF4809709F466C20C9409128B3492
:103E3000910509F49CC38C34910511F00C9409127E
:103E40000E944BC80C9409128A36910509F41FC5CB
:103E5000BCF58435910509F454C5ECF4823591051F
:103E600009F446C50CF048C58135910511F00C9454
:103E700009120E94C4C00E9458C70E94B1AF10929C
:103E8000701710926F1768EE73E080E090E00E9468
:103E9000D5A70C9409128C35910509F451C534F459
:103EA0008535910509F431C50C94091288369105C0
:103EB00009F465C38936910509F49CC40C94091270
:103EC0008F36910509F49EC384F48C36910509F46C
:103ED0003EC40CF4FBC48D36910509F4D0C48E3673
:103EE000910509F47CC30C9409128137910509F4FA
:103EF00036C40CF430C48237910509F4AAC583375F
:103F0000910511F00C9409120E94ED690C940912AC
:103F10008C3251E0950711F40C94AE270CF066C07A
:103F20008B3C910509F467C6ACF58C38910509F412
:103F300043C48CF48837910509F4CCC50CF4C6C58C
:103F40008937910511F00C94091210920E06109207
:103F5000FF1B0C9409128E3B910509F494C434F4B0
:103F60008B39910509F462C40C940912883C9105BF
:103F700009F4B7C5893C910511F00C94091207E6C4
:103F8000E02E02E0F02E0BE416E18BE5C82E86E170
:103F9000D82E17C6833D910509F4D3C694F48D3C01
:103FA000910509F4B1C60CF443C68E3C910511F09D
:103FB0000C940912B7E6EB2EB2E0FB2E00E010E005
:103FC000A7C68D3D910509F4CFC634F48C3D91050B
:103FD00009F4BBC60C940912823E910509F4E0C6AF
:103FE0008831914009F40BC70C940912843AE1E03E
:103FF0009E0711F40C943D28ACF5833621E092071E
:1040000009F472C084F48E3241E0940709F4D4C7F5
:104010000CF4CEC78F32914011F00C9409120E941B
:104020006A6A0C9409128139B1E09B0711F40C946F
:1040300033284CF48039914011F00C9409120E94FD
:1040400058C70C940912823921E0920711F40C949C
:1040500038288A39914011F00C9409120E94536952
:104060000C940912863F41E0940711F40C941F2927
:10407000FCF48C3AA1E09A0711F40C9441284CF41A
:10408000853A914011F00C9409120E9411680C9429
:104090000912843FF1E09F0711F40C941B29853F1E
:1040A000914011F00C9409120E9484930C9409120F
:1040B000833533E09307A1F03CF4873F914011F43E
:1040C0000C9423290C940912803AA3E09A0709F46E
:1040D0004FC1873E934011F40C9479290C94091236
:1040E000E6E3F1E10C943529E0E0F1E10C94652977
:1040F000E4E8F3E084918F010F5F1F4F882321F0E4
:104100000E943F71F801F6CF1092361510923515C6
:1041100082EC92E10E94C99E8BE1E2ECF2E1DE01C9
:10412000159601900D928A95E1F78091C0129091B9
:10413000C1129C838B838FEE92E09A83898340E047
:1041400050E0BE016F5F7F4F8DE993E00E9465C82C
:10415000CE0101960E942F93E5E7F3E084918F0151
:104160000F5F1F4F882311F40C9409120E943F71B6
:10417000F801F4CF0E940C560E9437930C94091258
:1041800010929112109292120C940912E091AA05C9
:10419000F091AB058081882329F0803209F41082E8
:1041A0003196F8CF40E061E08091AA059091AB058F
:1041B0000E9481CA0C94091262E17FE082EC92E1D4
:1041C0000E9464D7811103C0EAEAF3E00FC0E8E976
:1041D000F3E084918F010F5F1F4F811103C0E5E968
:1041E000F3E00EC00E943F71F801F3CF84918F017C
:1041F0000F5F1F4F882399F30E943F71F801F6CF9C
:1042000084918F010F5F1F4F882321F00E943F711F
:10421000F801F6CF80919212882319F081E0809303
:1042200091120E94F3C70C94091280919212882374
:1042300011F40C94091283E50E942271882311F471
:104240000C9409120E948C70AB01BC0140932C1598
:1042500050932D1560932E1570932F158CE594E1D6
:104260000E9440D50C94091280919212811103C0D2
:10427000E1EDF3E02AC0EFEBF3E084918F010F5FF3
:104280001F4F882321F00E943F71F801F6CF609103
:104290002C1570912D1580912E1590912F154AE0B7
:1042A0000E9446718FE20E943F71609128157091C3
:1042B000291580912A1590912B154AE00E9446718C
:1042C0008AE00E943F710C94091284918F010F5F64
:1042D0001F4F882311F40C9409120E943F71F801BA
:1042E000F4CF40E060E08091AA059091AB050E9478
:1042F00081CA0C9409128091911281110E9458C7B1
:10430000E090AA05F090AB0580E50E94F370182FAD
:10431000882319F00E94AD70182F80919212882383
:1043200011F40C940912412F61E0C7010E9481CA67
:1043300083E50E942271882381F00E948C70AB017A
:10434000BC0140932C1550932D1560932E1570933E
:104350002F158CE594E10E9440D58091921288231C
:1043600019F081E08093911211110C94091259CF28
:104370008091AA059091AB0521E02093901240E036
:1043800060E00E9481CA0C9409120E9452587B017D
:104390008C0120E831E541E050E00E9456F2C9016D
:1043A0006DE671E00E948DF54B015C01C801B7011B
:1043B00020E13EE040E050E00E9456F2CA01B9011F
:1043C00028E130E040E050E00E9456F2762E672E61
:1043D000C62ED72E6CE3262E312C412C512CC80131
:1043E000B701A20191010E9456F2F62EE72ECA01F2
:1043F000B901A20191010E9456F2CB018E010F5F1B
:104400001F4F81149104D1F0EF92FF927F936F932D
:104410006F927F92BF92AF929F928F928AE094E0C8
:104420009F938F931F930F930E94ECEB0FB6F8941A
:10443000DEBF0FBECDBFE6E3F1E145C0A114B1047C
:1044400089F0EF92FF927F936F936F927F92BF926A
:10445000AF928AEF93E09F938F931F930F930E94E5
:10446000ECEBE4CFCD2879F0EF92FF927F936F933E
:104470006F927F928EEE93E09F938F931F930F9393
:104480000E94ECEBD3CF892B69F0EF92FF927F93E0
:104490006F9386EE93E09F938F931F930F930E94E9
:1044A000ECEBC4CFEF92FF9282EE93E09F938F9359
:1044B0001F930F930E94ECEB0F900F900F900F90B3
:1044C0000F900F90B8CF84917F019FEFE91AF90AFE
:1044D000882321F00E943F71F701F5CFB8018EE1EA
:1044E00094E00E947C528AE00E943F710C94091271
:1044F00083E50E942271882311F40C9409120E9412
:104500009C70E82E80E50E942271882311F40C949F
:1045100009120E948C70162FC62ED72ED7FE02C00D
:104520000C940912E8EEF4E08491181303C0E0E063
:10453000F1E109C03196A5E0E531FA07A9F796C780
:104540000E943F71F80184918F010F5F1F4F81110D
:10455000F7CFEBE2F4E084918F010F5F1F4F8823C8
:1045600011F40C9409120E943F71F801F4CF0E94DB
:10457000F3C70C9409120E94F2530C94091288E6B6
:1045800090E00E94A3D181110C94091280913A16F7
:1045900083FF02C00C9409129091AC0580913E06F5
:1045A00098130C94091283E50E942271882399F0D4
:1045B0000E94BC700E94F8F3CB010E94F7A70E94F2
:1045C000BC7020E030E044EB52E40E941AEC181674
:1045D00014F00E94F2530E9418590C9409128EE4B0
:1045E0000E942271882311F40C9409120E948C708D
:1045F0006093A71B7093A81B8093A91B9093AA1B81
:104600000C94091283E50E94F370882359F083E526
:104610000E942271882319F00E949C7001C080E0E2
:1046200080933A16E6E3F1E184918F010F5F1F4F0B
:10463000811103C0E8E4F4E004C00E943F71F80176
:10464000F3CF84918F010F5F1F4F882321F00E94C9
:104650003F71F801F6CF80913A16811103C0E4E46E
:10466000F4E034C05AE3C52E54E0D52EE12CF12CF1
:1046700020E080913A1690E00E2C02C09595879527
:104680000A94E2F780FF17C0BB24B394B20E222332
:1046900019F08CE20E943F71F60185919491FC0122
:1046A00084918F010F5F1F4F882321F00E943F717B
:1046B000F801F6CF2B2DBFEFEB1AFB0AE2E0CE0E8E
:1046C000D11CF5E0EF16F104A1F63CC084918F01F6
:1046D0000F5F1F4F8823B1F10E943F71F801F6CFA1
:1046E0008AE50E94F370882309F4DFC50E94BC703C
:1046F0006B017C0120E030E040EA51EC0E94DAF4EA
:1047000087FDC6C520E030E040EA51E4C701B601AC
:104710000E941AEC18160CF4BBC5C0926317D09215
:104720006417E0926517F09266170E9436876091D1
:10473000631770916417809165179091661742E036
:104740000E944F758AE00E943F710C9409121092EA
:1047500037020C9409128FE494E00E94539383E58E
:104760000E942271811103C0E6E3F1E10DC00E94B5
:104770009C70809353028D3310F40C9409128CE3D7
:10478000809353020C94091284918F010F5F1F4F85
:10479000882321F00E943F71F801F6CF4091530227
:1047A00050E060E070E088E594E00E9429528AE0E1
:1047B0000E943F710C94091280913A1683FF02C047
:1047C0000C94091283E50E942271882311F40C9441
:1047D00009120E94BC700E94F8F36E37710514F044
:1047E0006DE770E070933B0660933A060E9478C0D4
:1047F0000C94091289E690E00E94A3D1811111C0A6
:10480000EFE5F4E084918F010F5F1F4F882321F0C3
:104810000E943F71F801F6CF0E9438808AE00E9422
:104820003F711092B41B1092B31B61C683E50E94C6
:104830002271882311F40C9409120E949C708093B9
:10484000B91B8D3318F08CE38093B91B0E947FA7AE
:104850006B017C012091B91B30E0A8EEB3E00E940F
:10486000A4F2C60ED71EE81EF91EC092B51BD09248
:10487000B61BE092B71BF092B81B0C9409120E9471
:10488000F7820C9409120E94BB800C94091283E5F4
:104890000E942271882339F00E948C708B016F3F37
:1048A000710519F010F00FEF10E080E50E94227101
:1048B000811106C01093701700936F170C940912A2
:1048C0000E949C7081110C940912F4CF80E50E9423
:1048D0002271811106C01092701710926F170C94FC
:1048E00009120E948C70672B11F00C940912F3CFFF
:1048F0001092B0050C94091281E08093B0050C94DD
:1049000009120E94E07F0C94091283E50E94F37063
:10491000882311F40C9409120E94BC7020E030E04E
:104920004AE754E40E947FEC0E94FDF36093BC1BB5
:104930007093BD1B8093BE1B9093BF1B0C940912F8
:1049400037E6C32E32E0D32E4BE5E42E46E1F42EBB
:1049500010E0D6018D916D010E94F370882309F457
:104960006DC0133009F063C00E94BC704B015C0144
:1049700020E030E040EA51E40E941AEC87FF4EC08C
:10498000A50194016091671670916816809169166F
:1049900090916A160E9490F32B013C019B01AC019F
:1049A000609106167091071680910816909109166D
:1049B0000E947FEC6093061670930716809308168A
:1049C00090930916A301920160912216709123160B
:1049D00080912416909125160E947FEC60932216F8
:1049E0007093231680932416909325166091471692
:1049F000709148168091491690914A160E941EECBB
:104A0000A30192010E947FEC0E94FDF36093471680
:104A1000709348168093491690934A1680926716B1
:104A200090926816A0926916B0926A1607C00E940A
:104A3000BC70F70160837183828393831F5FF4E00E
:104A4000EF0EF11C143009F084CF0E94665A0C94CA
:104A500009120E9458C70E94217F0C94091285E414
:104A60000E94F370882381F00E94AD70882361F06A
:104A7000E6E3F1E184918F010F5F1F4F882321F05E
:104A80000E943F71F801F6CF81E40E94F370882301
:104A900081F00E94AD70882361F0E2E6F4E0849139
:104AA0008F010F5F1F4F882321F00E943F71F80193
:104AB000F6CF0091AA051091AB05D8018D918D011B
:104AC000882309F43FCE0E943F71F7CF0E94DDDAC0
:104AD0000C94091281E080930E068093FF1B0C94C6
:104AE000091288EC90E00E94A3D181110C94091264
:104AF00084E40E94F370882309F45FC00E94BC70B4
:104B00006B017C0111E020E030E0A9010E941AEC69
:104B1000811101C010E01093081C20E030E0A901D1
:104B2000C701B6010E941AEC882309F446C000911F
:104B3000AC0510E00E94BC70000F111F000F111F88
:104B4000F801E050F44E608371838283938320E008
:104B500030E0A9016091001C7091011C8091021C41
:104B60009091031C0E941AEC81110CC080E090E02F
:104B7000A0EEBFE38093001C9093011CA093021C45
:104B8000B093031C20E030E0A9016091041C7091F7
:104B9000051C8091061C9091071C0E941AEC811143
:104BA0000CC080E090E0A0EEBFE38093041C9093E3
:104BB000051CA093061CB093071C0E94C1AF0C9467
:104BC0000912F70181917F010E94F370882351F04F
:104BD0000E94BC700E94FDF3D8016D937D938D936C
:104BE0009C9313970C5F1F4FC016D10651F70E947C
:104BF00048590C94091217E6E12E12E0F12E06E155
:104C000016E1F70181917F010E94F370882341F042
:104C10000E94BC70D8016D937D938D939C931397E4
:104C20000C5F1F4FB6E106321B0759F70C940912AF
:104C300083E50E94F3708823D9F00E94BC70AB0119
:104C4000BC0140930E1650930F166093101670938C
:104C5000111640930A1650930B1660930C1670931E
:104C60000D1680EC94E00E9446528AE00E943F714B
:104C700080E50E94F370882399F00E94BC70AB011C
:104C8000BC0140930E1650930F166093101670934C
:104C9000111683EA94E00E9446528AE00E943F7116
:104CA00082E50E94F370882399F00E94BC70AB01EA
:104CB000BC01409312165093131660931416709310
:104CC000151684E894E00E9446528AE00E943F71E3
:104CD00084E50E94F370882311F40C9409120E9459
:104CE000BC70AB01BC0140930A1650930B16609345
:104CF0000C1670930D1686E694E00E9446528AE0E8
:104D00000E943F710C9409120E9482690C9409124E
:104D1000F70181917F010E94F370882339F00E948E
:104D2000BC70AB01BC01C8010E9467D10F5F1F4F6F
:104D30000330110569F70E9445700E94217F0C9491
:104D400009120E94DC6E0C94091283E50E94227104
:104D5000882311F40C9409120E948C7070930C0239
:104D600060930B020C9409128DED90E00E94A3D188
:104D700081110C94091283E50E942271882311F499
:104D80000C9409120091AC0510E00E948C70000F89
:104D9000111FF801E95EFD4F718360830C940912C5
:104DA00080E50E94F370882311F40C9409120E948C
:104DB0008C70F62EC62ED72E83E50E942271882392
:104DC00021F00E948C708B0102C00FEF1FEFC80111
:104DD0000196039710F00C940912D7FE02C00C94B0
:104DE0000912E8EEF4E085E195E02491F21611F461
:104DF0000C94091231968E179F07B9F750C380E5BE
:104E00000E94F370882311F40C9409120E948C7094
:104E10006B017C018B01672B19F0E0E0F1E181C0AF
:104E200083E50E94F370811103C0E6E3F1E108C05D
:104E30000E948C7080E692E10E94F2500C9409125C
:104E400084917F012FEFE21AF20A882321F00E9459
:104E50003F71F701F5CF60E070E08EE295E00E94CF
:104E600063528091621228E532E06901C81AD108C4
:104E700087FDD394CC0CDD1CCC0CDD1C0D2C000C60
:104E8000EE08FF088091611228E830E04901881A95
:104E9000910887FD9394880C991C880C991C092C07
:104EA000000CAA08BB08809160128F3FB9F090E017
:104EB000FC01EE0FFF1F8E0F9F1FFC01ED50FE4EF9
:104EC0000181128163E0000F111F6A95E1F774E020
:104ED000169507957A95E1F70E5F1F4F98012F5FA2
:104EE0003F4FC901330FAA0BBB0B9C01AD01281921
:104EF00039094A095B09A4EBB0E00E9494F2A701CA
:104F00009601281939094A095B090E9478F2B9010A
:104F10008BE295E00E9463528AE00E943F710C94FC
:104F2000091284918F010F5F1F4F882321F00E9487
:104F30003F71F801F6CFB60184E295E00E9463521A
:104F4000E5E1F5E084918F010F5F1F4F882311F495
:104F50000C9409120E943F71F801F4CF83E50E947E
:104F60002271882319F00E948C7002C064E071E005
:104F700079A368A380E50E942271882339F00E94FA
:104F80008C70693833E1730730F402C068EE73E067
:104F90007A83698304C088E893E19A838983BE0198
:104FA000605E7F4FCE0101960E94278A0C94091201
:104FB0000E944A6E0C94091283E50E94F370182F28
:104FC000882371F00E94BC700E94F8F3709328024D
:104FD0006093270221E0672B09F020E020936B16F5
:104FE00080E50E94F370882361F0209127023091C0
:104FF0002802232B11F00E94AD7080936B160C9445
:10500000091211110C940912E6E3F1E184918F0168
:105010000F5F1F4F882321F00E943F71F801F6CFE8
:1050200080916B16882319F068E775E002C06BE584
:1050300073E08BE495E00E947C52609127027091AE
:1050400028028AE395E00E946352E6E3F5E084914A
:105050008F010F5F1F4F882311F40C9409120E94D7
:105060003F71F801F4CF81E00E9409D00C9409123D
:1050700080E00E9409D00C9409120E94AD680C9443
:1050800009124DEB5AE15DA74CA783EF882E86E10C
:10509000982E93EEA92E96E1B92E25EAC22E2AE18A
:1050A000D22E39E3232E32E0332E42E0E42E48E1C3
:1050B000F42E00E010E0ACA5BDA58D91BDA7ACA776
:1050C000882309F481C0F50140805180628073809B
:1050D000D1012D913D914D915C91F60160817181DD
:1050E000828193810E94B4F220E030E040E05FE3EF
:1050F0000E947FEC9B01AC01C301B2010E94DAF473
:10510000181654F4F70185919591A591B49188AB47
:1051100098AFACABBCAF04C018AA18AE1CAA1CAEAA
:10512000D4012D913D914D915C91C301B2010E943A
:10513000B3F29B01AC0168A978AD8CA99CAD0E942B
:10514000B3F22B013C0120E030E040EA51EC0E9438
:10515000DAF487FD0AC020E030E040EA51E4C30100
:10516000B2010E941AEC18161CF4E0E0F1E109C04B
:10517000B301A201C8010E9467D126C00E943F71FD
:10518000F80184918F010F5F1F4F8111F7CFEEE57A
:10519000F5E084918F010F5F1F4F882321F00E945B
:1051A0003F71F801F6CF88E290E09A83898388EC1A
:1051B00090E099A388A3BE016F5F7F4FCE018096D8
:1051C0000E94278A0C9409120F5F1F4FB4E08B0EC8
:1051D000911CE4E0AE0EB11CF4E0CF0ED11C24E033
:1051E000220E311C34E0E30EF11C0330110509F0EE
:1051F00062CF0E9445700E94217F83E992E099A3CB
:1052000088A304E610E01A830983BE01605E7F4F25
:10521000CE0101960E94278A8AEB92E099A388A387
:105220001A830983BE01605E7F4FCE0101960E9402
:10523000278A0C9409120E948C980C9409120E94DF
:10524000B6BB0C94091283E50E94F370882319F011
:105250000E94AD7001C081E091E089270E94C1BC2D
:105260000C9409120E943F71F80184918F010F5F25
:105270001F4F8111F7CFE5EAF5E084918F010F5FB1
:105280001F4F882309F42CCA0E943F71F801F5CF03
:10529000EEE8F5E084918F010F5F1F4F882309F43A
:1052A00051CA0E943F71F801F5CF409163175091A8
:1052B000641760916517709166178CE795E00E94FE
:1052C000465240CA0E943F71F80184918F010F5FDE
:1052D0001F4F8111F7CFEFEAF5E084918F010F5F47
:1052E0001F4F882311F40C9409120E943F71F8019A
:1052F000F4CF81E080935A0283E50E94F37081111C
:1053000004C00E9471B30C9409120E94AD70811107
:105310000C940912F6CF1091B205123028F1E6E391
:10532000F1E184917F014FEFE41AF40A882321F020
:105330000E943F71F701F5CF84E50E943F71612F14
:1053400070E080E090E04AE00E94467180E20E94B6
:105350003F710FE513E0D8018D918D01882309F489
:10536000F1C90E943F71F7CF10933E06E6E3F1E1E9
:1053700084918F010F5F1F4F882321F00E943F719E
:10538000F801F6CF60913E0670E08EEB95E00E944A
:1053900063528AE00E943F710C9409124091AA0561
:1053A0005091AB05452B39F4AF0141505109509351
:1053B000AB054093AA0540E050E00C94961280E0C3
:1053C0000E94A9CD0E94A1CE83E50E94F37088239C
:1053D00009F44AC00E94AD7021E0482FBE016F5F02
:1053E0007F4FCE0180960E9431886B017C019B012A
:1053F000AC010E9462F5811131C02CEA35EC47E224
:1054000057E368A179A18AA19BA10E94B4F2AB01E4
:10541000BC018EE493E00E9446522CEA35EC47E250
:1054200057E369817A818B819C810E94B4F2AB0140
:10543000BC0189E493E00E9446522CEA35EC47E235
:1054400057E3C701B6010E94B4F2AB01BC0184E48A
:1054500093E00E9446528AE00E943F710E9487CEEC
:105460000E94217F0C94091281E0B6CF61E0812F68
:105470000E9444A66E2D812F0E9416A6F12CB70122
:10548000812F0E9480A6B9E0CB16D10411F00C94B4
:105490000912F0927017E0926F170C9409120E9493
:1054A00058C760E08F2D0E9444A60F3FEFEF1E0704
:1054B00059F48F2D0E94EEA531E020E0892B09F0F0
:1054C00030E0032F122F05C00130110569F401E00F
:1054D00010E08F2D0E94EEA58017910711F40C9417
:1054E00009120E9424ADF5CF00E010E0F2CFC15ABE
:1054F000DF4F0FB6F894DEBF0FBECDBFDF91CF9167
:105500001F910F91FF90EF90DF90CF90BF90AF90E1
:105510009F908F907F906F905F904F903F902F90D3
:1055200008952F923F924F925F926F927F928F9247
:105530009F92AF92BF92CF92DF92EF92FF920F9322
:105540001F93CF93DF93CDB7DEB7C254D1090FB607
:10555000F894DEBF0FBECDBF0E94278C0E941EB400
:105560009BEDA92E95E1B92E2AE1722E80E391E1FF
:105570000E9436A48090C8059090C9051816190697
:105580005CF52AE1821691043CF580E391E10E94EA
:1055900014A4F401E552FA4E80838091DB158A351C
:1055A00069F01814190414F7D501E72D1D92EA9536
:1055B000E9F71092C9051092C805D8CF6AE070E0EB
:1055C00080E090E00E9447A7FFEF8F1A9F0A909219
:1055D000C9058092C805CACF1814190414F00C9498
:1055E000B44890913C158091DB15981322C090919E
:1055F0003D158091DC1598131CC023E082169104A0
:10560000C4F09091DD1590933B158091DE15809349
:105610003E159330D9F4982F9D7F9038B9F490912E
:10562000DF159F3409F05BC09091E0159B3409F0C1
:1056300056C08AE1EBEDF5E1DF011D928A95E9F7AD
:105640001092C9051092C8050C94B448833809F02B
:1056500046C08091DF159091E015982789279827FB
:10566000A0E0B0E080933F1590934015A0934115C2
:10567000B09342154091E11550E060E070E0409336
:10568000431550934415609345157093461582EE6B
:10569000682E85E1782E80E090E0DC018417950784
:1056A000A607B70708F049C09C0135952795F90171
:1056B000EE0FFF1F9F01295B3A4E5901F301208134
:1056C00030E0322F222791802929F5013183208370
:1056D0000296A11DB11DF2E06F0E711CDFCF813863
:1056E00061F58091DF1590E0A0E0B0E080933F1578
:1056F00090934015A0934115B09342158091E01509
:10570000482F50E060E070E04093431550934415FB
:105710006093451570934615A1EEB5E1E7E4F5E118
:1057200090E020E030E02817390739F04D9150E043
:10573000419351932F5F3F4FF6CF8AE1EBEDF5E1B7
:10574000DF011D928A95E9F71092C9051092C805EC
:1057500080917317181614F40C94B84640913F15B5
:10576000509140156091411570914215ABE6B2E041
:10577000E0E0F0E08D909D90AD90BD90811491049B
:10578000A104B104B1F184169506A606B70679F511
:10579000DB01CA0188509041A109B1090597A10513
:1057A000B10550F1DB01CA01877F82339041A10529
:1057B000B10529F1443330E1530761057105F9F072
:1057C000DB01CA0186549041A109B1090797A105DF
:1057D000B105C0F0DB01CA0184559041A109B109AE
:1057E0000597A105B10580F4E2E1F0E00DC0319626
:1057F000C1CFEFEFFFEF08C0E3E0F0E005C0E8E065
:10580000F0E002C0EFE0F0E0DB01CA018A50904214
:10581000A109B109833D9105A105B10510F40C94CE
:105820009243EF3F8FEFF80711F40C94B846EA313A
:10583000F10510F00C94B8468827EE58FF4F8F4FB3
:105840000C94B4F5809147159091481581309105DD
:1058500009F052C01092360281E0809374178FEFE6
:10586000809379170E94278C80917817882311F1F3
:1058700081E09AE5909398158093971582E090E0E7
:1058800090939A158093991587E080938B1582E801
:1058900080938E1584E890E0A0E0B0E080938F15AF
:1058A00090939015A0939115B09392150E940B546C
:1058B0000C94B84681E09AE59093981580939715DB
:1058C0008EE290E090939A158093991587E08093EB
:1058D0008B1582E880938E1584E890E0A0E0B0E01C
:1058E00080938F1590939015A0939115B093921576
:1058F0000E940B540C94B8468230910509F0F7C011
:1059000081E08093360210926A170E9453698BE0FF
:1059100090E0909398158093971505E000938B1570
:1059200012E810938E1580E092E1A0E0B0E0809341
:105930008F1590939015A0939115B09392150E9496
:105940000B54109298151092971500938B15109385
:105950008E158EE090E1A0E0B0E080938F159093DB
:105960009015A0939115B09392150E940B5410922C
:1059700098151092971500938B1510938E158FE044
:1059800090E1A0E0B0E080938F1590939015A093E4
:105990009115B09392150E940B5410929815109285
:1059A000971500938B1510938E1586E190E1A0E07A
:1059B000B0E080938F1590939015A0939115B093BC
:1059C00092150E940B5462E070E080E090E00E942B
:1059D00047A7109298151092971500938B15109366
:1059E0008E1580E190E1A0E0B0E080938F15909358
:1059F0009015A0939115B09392150E940B5410929C
:105A000098151092971500938B1510938E1582E1BF
:105A100090E1A0E0B0E080938F1590939015A09353
:105A20009115B09392150E940B541092821210920D
:105A3000811210928712109288121092891210927D
:105A40008A1210928B1210928C1210928D12109258
:105A50008E1210928312109284121092851210925C
:105A6000861280917817882309F181E09AE5909356
:105A700098158093971581E090E090939A15809304
:105A8000991587E080938B1510938E1584E890E02C
:105A9000A0E0B0E080938F1590939015A09391159E
:105AA000B09392150E940B540C94B84681E09AE58D
:105AB00090939815809397158DE290E090939A15A6
:105AC0008093991587E080938B1510938E1584E849
:105AD00090E0A0E0B0E080938F1590939015A09394
