:100000000C942A100C945B100C945B100C945B10F5
:100010000C945B100C945B100C945B100C945B10B4
:100020000C945B100C945B100C945B100C945B10A4
:100030000C945B100C945B100C945B100C945B1094
:100040000C945B100C94B4990C945B100C945B10A2
:100050000C945B100C945B100C94815E0C948F5D7F
:100060000C945B100C9497CD0C945B100C945B106B
:100070000C945B100C945B100C945B100C945B1054
:100080000C945B100C945B100C945B100C945B1044
:100090000C945B100C945B100C945B100C945B1034
:1000A0000C945B100C945B100C945B100C945B1024
:1000B0000C945B100C945B100C945B100C945B1014
:1000C0000C945B100C945B100C945B100C94BB5B59
:1000D0000C94925B0C945B100C945B100C945B1072
:1000E0000C945B109D129614CF167615AC2FAC2F86
:1000F000091A711ABD1AAC2FAC2F011DA21F702056
:10010000AC2F9F22AC2FAC2FF423AC2FAC2F2A277F
:10011000AA271F2AEE2B7D2C305B335B225B265BEC
:100120002C5B6A5B375B3B5B415B455B495B4F5BD1
:10013000535B575B6A5B5D5B615B655BAB5CB05C53
:10014000B55CBF5CC95C425DD35CDB5CE35CED5CD1
:10015000F75C015D105D1A5D425D245D2E5D385DCA
:100160004E414E494E495459494E46CDCCCC3D0A9C
:10017000D7233C17B7D13877CC2B329595E6241F7F
:10018000B14F0A000020410000C84200401C462038
:10019000BCBE4CCA1B0E5AAEC59D7400407A10F30B
:1001A0005A00A0724E18090010A5D4E80000E876A5
:1001B00048170000E40B54020000CA9A3B000000FC
:1001C000E1F505000080969800000040420F000015
:1001D00000A08601000000102700000000E80300D6
:1001E0000000006400000000000A000000000001A0
:1001F00000000000002C76D888DC674F0823DFC1A0
:10020000DFAE59E1B1B796E5E3E453C63AE651995A
:100210007696E8E6C28426EB898C9B62ED407C6F83
:10022000FCEFBC9C9F40F2BAA56FA5F490055A2A3A
:10023000F75C936B6CF9676DC11BFCE0E40D47FE46
:10024000F520E6B500D0ED902E030094357705003B
:1002500080841E080000204E0A000000C80C3333C2
:1002600033330F986E12831141EF8D2114893BE6D1
:100270005516CFFEE6DB18D1844B381BF77C1D905A
:100280001DA4BBE424203284725E228100C9F124C3
:10029000ECA1E53D274D3234004D3233202573006B
:1002A0004D3130362053323535004D313039205301
:1002B0002569004D313930205325690047393220F6
:1002C000452573004730205A2573004D31303920C1
:1002D000532569004D31393020532569004D3234A2
:1002E00000473238004D343230205330004D343224
:1002F000302053310047312046313030205A300011
:100300004731205833302059323730204633363089
:10031000300047312046313030205A3300473120F9
:1003200046313030205A30004731205832373020A3
:10033000593237302046333630300047312046318D
:100340003030205A330047312046313030205A3087
:100350000047312058323730205933302046333669
:1003600030300047312046313030205A3300473199
:100370002046313030205A30004731205833302069
:100380005933302046333630300047312046313043
:1003900030205A330047312046313030205A300067
:1003A00047312058313535205931353520463336DF
:1003B00030300047312046313030205A3300473248
:1003C00039004739300047323800473238205A3038
:1003D00000473238004D3834004731204632303043
:1003E000205A302E30004732380047393220452518
:1003F00073004730205A2573004D31303920532582
:1004000069004D3139302053256900473238205872
:1004100030205930004732382058302059300043BE
:100420004F4D4D554E49434154494F4E004452594A
:1004300052554E004552524F525300494E464F00BE
:100440004543484F00473239005A2070726F626549
:10045000206F75742E206265640A00473238205A76
:1004600020466F7262696464656E0A004D65736848
:1004700020706F696E742063616E6E6F74206265A8
:10048000207265736F6C7665640A00456E64206641
:10049000696C65206C6973740A00426567696E2037
:1004A00066696C65206C6973740A0046696C652026
:1004B00064656C657465643A0044656C6574696F65
:1004C0006E206661696C65642C2046696C653A2013
:1004D000006F70656E206661696C65642C204669EA
:1004E0006C653A20002569730025696D20256973C4
:1004F000002569682025696D2025697300256964D8
:10050000202569682025696D202569730025697992
:1005100020256964202569682025696D2025697377
:10052000005072696E742074696D653A20005072D3
:100530006F7465637465642050696E0A0040043B03
:100540000434042D041F046F666600444542554779
:100550003A004B494C4C45442E20004D313133205C
:1005600053006F6B002F2F20007A5F6D696E3A2069
:1005700000795F6D696E3A2000785F6D696E3A2090
:10058000005265706F7274696E6720656E64737473
:100590006F70207374617475730A005365747469A5
:1005A0006E672054726176656C20416363656C658B
:1005B000726174696F6E3A200053657474696E6776
:1005C000205265747261637420416363656C657267
:1005D0006174696F6E3A200053657474696E6720A8
:1005E0005072696E7420416363656C6572617469F1
:1005F0006F6E3A200053657474696E67205072699B
:100600006E7420616E642054726176656C20416363
:1006100063656C65726174696F6E3A2000205A00E0
:10062000205900580020204D61783A2000205A00BF
:10063000205900580020204D696E3A20004F6E204E
:10064000004F666600536F667420656E6473746F46
:1006500070733A2000000136372603FF3C3D380E08
:10066000FF2E303E12FFFF0C0809FFFFFF1A1C1877
:10067000FFFF08440AFF43FFFFFFFFFFFF20643A2C
:100680000020693A0020703A0043290A0061626C38
:10069000656420286D696E2074656D702000436F5D
:1006A0006C6420657874727564657320617265206E
:1006B0000023646566696E65202044454641554CBB
:1006C000545F4B64200023646566696E6520204496
:1006D000454641554C545F4B69200023646566696B
:1006E0006E65202044454641554C545F4B702000B8
:1006F000504944204175746F74756E652066696E4B
:100700006973686564212050757420746865206C75
:10071000617374204B702C204B6920616E64204BF8
:100720006420636F6E7374616E74732066726F6D94
:100730002062656C6F7720696E746F20436F6E6600
:10074000696775726174696F6E2E680A005049445A
:10075000204175746F74756E65206661696C65649F
:10076000212074696D656F75740A005049442041F9
:1007700075746F74756E65206661696C656421209F
:1007800054656D706572617475726520746F6F2049
:10079000686967680A00204B643A2000204B693A78
:1007A0002000204B703A20000A20436C617373696B
:1007B0006320504944200A002054753A2000204B01
:1007C000753A2000206D61783A2000206D696E3AFC
:1007D000200020643A200020626961733A20004FB3
:1007E00066660A004661646520486569676874202A
:1007F00000426564204C6576656C696E6720004632
:1008000061696C656420746F20656E61626C65203F
:10081000426564204C6576656C696E670A004D65BB
:10082000736820706F696E742063616E6E6F7420E0
:100830006265207265736F6C7665640A004D3432B0
:100840003120696E636F72726563742070617261CA
:100850006D657465722075736167650A00546F6F0A
:10086000206661722066726F6D20726566657265C2
:100870006E636520706F696E740A00207A70726F03
:1008800062655F7A6F66667365743D20007A5F6D9E
:10089000696E3A20202D3230207A5F6D61783A20DF
:1008A000203230005A204F666673657420004E6F08
:1008B0002063617365206C696768740A0041637422
:1008C0006976652045787472756465723A200055C2
:1008D0006E6B6E6F776E20636F6D6D616E643A2024
:1008E00022004B494C4C45442E2000202D20496EBF
:1008F00076616C6964206578747275646572206EC7
:10090000756D62657220210A004D343230205331FA
:10091000004D343230205330002020506C616E6E18
:10092000657242756666657242797465733A200035
:100930002046726565204D656D6F72793A200043DF
:100940006F6D70696C65643A204A756C20203220A6
:10095000323031390A00207C20417574686F723A58
:100960002043522D3130532050726F0A0032303103
:10097000392D30372D303200204C61737420557082
:1009800064617465643A200056657220312E3730F8
:100990002E310A004D61726C696E0020536F6674CF
:1009A000776172652052657365740A00205761741F
:1009B0006368646F672052657365740A0020427231
:1009C0006F776E206F75742052657365740A00200E
:1009D00045787465726E616C2052657365740A00A7
:1009E000506F77657255700A0073746172740A00F3
:1009F0006572726F722077726974696E6720746FA6
:100A00002066696C650A00205A3A0020593A002095
:100A1000583A00656E6473746F7073206869743A35
:100A20002000446F6E6520736176696E6720666989
:100A30006C652E0A004D323900F4010000F401000B
:100A40000064000000881300000000964300009638
:100A5000430000A0400000C8410000A0420000A0E8
:100A6000420000C84300000C4320204D383531209F
:100A70005A005A2D50726F6265204F666673657416
:100A800020286D6D293A0A002044002049002020CA
:100A90004D333031205000504944207365747469DF
:100AA0006E67733A0A00205A0020204D34323020FD
:100AB00053004175746F20426564204C6576656C07
:100AC000696E673A0A00205A0020590020204D32F2
:100AD0003036205800486F6D65206F666673657408
:100AE0003A0A00204500205A0020590020580020D2
:100AF000420020540020204D323035205300416404
:100B000076616E6365643A20533C6D696E5F66651D
:100B10006564726174653E20543C6D696E5F7472E9
:100B20006176656C5F66656564726174653E2042DE
:100B30003C6D696E5F7365676D656E745F74696D3A
:100B4000655F6D733E20583C6D61785F78795F6AB0
:100B500065726B3E205A3C6D61785F7A5F6A6572A0
:100B60006B3E20453C6D61785F655F6A65726B3EE8
:100B70000A0020540020520020204D3230342050F2
:100B800000416363656C65726174696F6E202875DE
:100B90006E6974732F7332293A20503C7072696EFB
:100BA000745F616363656C3E20523C726574726170
:100BB00063745F616363656C3E20543C747261765C
:100BC000656C5F616363656C3E0A00204500205AD6
:100BD0000020590020204D3230312058004D6178DE
:100BE000696D756D20416363656C65726174696FD1
:100BF0006E2028756E6974732F7332293A0A0020AB
:100C00004500205A0020590020204D323033205812
:100C1000004D6178696D756D2066656564726174FB
:100C200065732028756E6974732F73293A0A002042
:100C30004500205A0020590020204D39322058000C
:100C400053746570732070657220756E69743A0A0A
:100C50000020204D3230302044300A0020204D3218
:100C600030302044002044697361626C65640A007E
:100C700046696C616D656E742073657474696E6726
:100C8000733A0020204D3134392043203B20556EEB
:100C900069747320696E2043656C736975730A000B
:100CA0002020473231202020203B20556E6974736C
:100CB00020696E206D6D0A0070012C0190012701E2
:100CC000B0012201C0011D01F00118011002130141
:100CD00030020E016002090190020401C002FF000F
:100CE0000003FA004003F5008003F000D003EB009E
:100CF0002004E6007004E100E004DC004005D700B9
:100D0000C005D2004006CD00D006C8008007C30051
:100D10003008BE00F008B900C009B400B00AAF0046
:100D2000B00BAA00D00CA500000EA000500F9B0035
:100D3000C01096005012910000148C00C01587005E
:100D4000B0178200B0197D00D01B7800001E730020
:100D500040206E0090226900F024640040275F006C
:100D600090295A00E02B5500102E500020304B00E7
:100D700010324600E033410090353C001037370018
:100D800070383200A0392D00B03A2800A03B230073
:100D9000603C1E00103D1900903D1400103E0F00F5
:100DA000703E0A00C03E0500003F0000403FFBFFD0
:100DB000803FF6FFC03FF1FF000021002400270024
:100DC0002A002D003000330001010000040107015A
:100DD0000A0100002200250028002B002E0031000F
:100DE000340002010000050108010B010000200091
:100DF0002300260029002C002F00320000010000F3
:100E0000030106010901050505050705080808088D
:100E1000020202020A0A0808040404040101010192
:100E2000010101010303030303030303040707078D
:100E30000C0C0C0C0C0C0C0C020202020606060632
:100E4000060606060B0B0B0B0B0B0B0B01021020FF
:100E500020080810204010204080020102010804F0
:100E60000201010204081020408080402010080484
:100E700002018004020180402010080402010804DD
:100E80000201010204081020408001020408102021
:100E9000408000000A0B02090C0D0E080703040134
:100EA0000000000000000000000000000000000042
:100EB000000000000000000000000000000012110F
:100EC0001000000000000000000000000000000012
:100ED00000000000000000005344206361726420A1
:100EE0006F6B0A006F70656E526F6F742066616978
:100EF0006C65640A00766F6C756D652E696E697439
:100F0000206661696C65640A00534420696E6974E7
:100F1000206661696C0A004D3234004D3233202561
:100F200073006175746F25692E6700577269746963
:100F30006E6720746F2066696C653A20006F70657B
:100F40006E206661696C65642C2046696C653A2088
:100F5000006F70656E206661696C65642C2046695F
:100F60006C653A200046696C652073656C65637436
:100F700065640A002053697A653A200046696C6509
:100F8000206F70656E65643A20006F70656E206634
:100F900061696C65642C2046696C653A20002066A6
:100FA000696C653A20004E6F7720002220706F73C5
:100FB000002220706172656E743A220053554252CD
:100FC0004F5554494E452043414C4C207461726743
:100FD00065743A22004B494C4C45442E20007472F3
:100FE00079696E6720746F2063616C6C2073756221
:100FF0002D67636F64652066696C6573207769741B
:101000006820746F6F206D616E79206C6576656CF9
:10101000732E204D4158206C6576656C2069733ABB
:10102000004572726F723A007C3C3E5E2B3D3F2F52
:101030005B5D3B2C2A225C0020746F6F206C6F6E0E
:101040006720657874727573696F6E20707265764B
:10105000656E7465640A0020636F6C642065787443
:10106000727573696F6E2070726576656E746564F3
:101070000A006F6B0020746F6F206C6F6E672065C5
:101080007874727573696F6E2070726576656E74B0
:1010900065640A0020636F6C6420657874727573F0
:1010A000696F6E2070726576656E7465640A0062A1
:1010B0007573793A2070617573656420666F72206C
:1010C000696E7075740A00627573793A2070617583
:1010D00073656420666F7220757365720A006275AD
:1010E00073793A2070726F63657373696E670A0073
:1010F0004B494C4C45442E20004B494C4C206361DD
:1011000075736564206279204B494C4C206275747C
:10111000746F6E2F70696E0A004B494C4C45442E1B
:1011200020004B494C4C20636175736564206279E3
:1011300020746F6F206D75636820696E61637469D8
:1011400076652074696D65202D2063757272656EF9
:101150007420636F6D6D616E643A20005072696E29
:101160007465722068616C7465642E206B696C6CA8
:1011700028292063616C6C6564210A004572726FD6
:10118000722077726974696E6720746F20454550CC
:10119000524F4D210A0043616E6E6F74206F70656F
:1011A0006E207375626469722000656E7175657575
:1011B00065696E672022006563686F3A002E0A0039
:1011C0006F70656E206661696C65642C2046696C81
:1011D000653A200057726974696E6720746F2066E3
:1011E000696C653A2000544845524D414C20525597
:1011F0004E4157415900546865726D616C205275BB
:101200006E617761790024F4D43050C38E20C2A27D
:101210004017828B7011127A910D816CD90AA861E6
:10122000E108C7586607615143061E4B5D05C1457D
:10123000A7041A411104093D98037139310340365E
:10124000DB0265339102D4305402802E1D02632CE0
:10125000EE01752AC501B028A001102781018F2554
:1012600064012B244B01E0223401AC211F018D20AD
:101270000D01801FFC00841EED00971DDF00B81CCF
:10128000D200E61BC600201BBC00641AB200B219D3
:10129000A8000A19A0006A189900D11791004017F8
:1012A0008B00B516840031167E00B31579003A150F
:1012B0007300C7146F0058146A00EE136600881399
:1012C000630025135E00C7125B006C1257001512F5
:1012D0005400C111510070114F0021114B00D61064
:1012E00049008D1047004610440002104200C00F14
:1012F0004000800F3E00420F3C00060F3B00CB0E2B
:101300003800930E37005C0E3500270E3400F30DC5
:101310003200C10D3100900D3000600D2E00320DF5
:101320002D00050D2C00D90C2B00AE0C2900850CCE
:1013300029005C0C2700350C27000E0C2600E80B5A
:101340002400C40B2400A00B23007D0B23005A0BA8
:101350002100390B2100180B2000F80A1F00D90AC0
:101360001E00BB0A1E009D0A1D00800A1D00630AA4
:101370001C00470A1B002C0A1B00110A1A00F7095F
:101380001A00DD091900C4091900AB0919009209F6
:1013900017007B091800630917004C09160036096D
:1013A0001600200916000A091500F5081500E008C6
:1013B0001400CC081400B8081400A4081400900805
:1013C00013007D0812006B0813005808120046082D
:1013D000120034081100230811001208110001083E
:1013E0001100F0071000E0071000D0071000C00740
:1013F0001000B0070F00A107100091070E0083072F
:101400000F0074070F0065070E0057070E0049070D
:101410000E003B070D002E070E0020070D001307DE
:101420000D0006070D00F9060C00ED060D00E006A4
:101430000C00D4060C00C8060C00BC060C00B0065C
:101440000C00A4060B0099060C008D060B0082060A
:101450000B0077060B006C060B0061060A005706AE
:101460000B004C060A0042060A0038060A002E0647
:101470000A0024060A001A060A00100609000706D8
:101480000A00FD050900F4050900EB050900E20565
:101490000900D9050900D0050900C7050900BE05E6
:1014A0000900B5050800AD050800A50509009C0563
:1014B0000800940508008C050800840508007C05D8
:1014C0000800740508006C050700650508005D0547
:1014D0000700560508004E050700470507004005B0
:1014E000080038050700310507002A050700230515
:1014F00007001C050600160507000F050700080574
:10150000060002050700FB040600F5040700EE04D0
:101510000600E8040600E2040700DB040600D50428
:101520000600CF040600C9040600C3040600BD047B
:101530000600B7040600B1040500AC040600A604CA
:101540000600A00405009B04060095040500900415
:1015500006008A04050085040500800406007A045C
:10156000050075040500700405006B0405006604A1
:101570000500610405005C040500570405005204E1
:1015800005004D04050048040500430405003E0421
:1015900004003A04050035040500300404002C045E
:1015A000050027040400230405001E0404001A0497
:1015B000040016040500110404000D0404000904CD
:1015C00005000404040000040400FC030400F80304
:1015D0000400F4030400F0030400EC030400E80337
:1015E0000400E4030400E0030400DC030400D80367
:1015F0000400D4030400D0030400CC030400C80397
:101600000300C503030024F404D9201BC40C5C0EA2
:101610009804C4095F0265077101F405F900FB0431
:10162000B30048048700C103690058035500030351
:101630004500BE023A008402310053022A0029020A
:10164000250004022000E4011C00C8011900AF01BC
:10165000170098011400840113007101100061014A
:10166000100051010E0043010D0036010B002B014B
:101670000B0020010B00150109000C0109000301FA
:101680000800FB000800F3000800EB000700E4007E
:101690000600DE000600D8000600D2000600CC00DE
:1016A0000500C7000500C2000500BD000400B90028
:1016B0000400B5000400B1000400AD000400A9005E
:1016C0000400A5000300A20003009F0004009B008B
:1016D00003009800030095000200930003009000AF
:1016E00003008D0002008B000300880002008600CA
:1016F000020084000300810002007F0002007D00E0
:1017000002007B00020079000200770001007600F1
:1017100002007400020072000100710002006F00FC
:1017200002006D0001006C0002006A000100690007
:10173000020067000100660001006500010064000E
:1017400002006200010061000100600001005F0012
:1017500002005D0001005C0001005B0001005A0016
:101760000100590001005800010057000100560017
:101770000100550001005400010053000000530017
:1017800001005200010051000100500001004F0013
:1017900001004E0000004E0001004D0001004C0011
:1017A00001004B0000004B0001004A00010049000D
:1017B0000100480000004800010047000100460009
:1017C0000000460001004500000045000100440003
:1017D00001004300000043000100420000004200FD
:1017E00001004100000041000100400001003F00F5
:1017F00000003F0001003E0000003E0001003D00EF
:1018000000003D0001003C0000003C0000003C00E6
:1018100001003B0000003B0001003A0000003A00DC
:1018200001003900000039000100380000003800D4
:1018300000003800010037000000370001003600CA
:1018400000003600000036000100350000003500C1
:1018500000003500010034000000340000003400B6
:1018600001003300000033000000330001003200AB
:1018700000003200000032000100310000003100A1
:101880000000310001003000000030000000300096
:1018900001002F0000002F0000002F0000002F008B
:1018A00001002E0000002E0000002E0001002D007F
:1018B00000002D0000002D0000002D0001002C0074
:1018C00000002C0000002C0000002C0001002B0068
:1018D00000002B0000002B0000002B0001002A005C
:1018E00000002A0000002A0000002A000100290050
:1018F0000000290000002900000029000000290044
:101900000100280000002800000028000000280036
:101910000000280001002700000027000000270029
:10192000000027000000270001002600000026001C
:10193000000026000000260000002600010025000F
:101940000000250000002500000025000000250003
:1019500000002500010024000000240000002400F5
:1019600000002400000024000100230000002300E8
:1019700000002300000023000000230000002300DB
:1019800000002300010022000000220000002200CD
:1019900000002200000022000000220001002100BF
:1019A00000002100000021000000210000002100B3
:1019B00000002100000021000100200000002000A4
:1019C0000000200000002000000020000000200097
:1019D000000020000000200001001F0000001F0088
:1019E00000001F0000001F0000001F0000001F007B
:1019F00000001F0001001E0000001E0000001E006D
:101A000000001E0000004D383420582059205A2074
:101A10004500000000000000000000000000000081
:101A2000484200004842000080400000000057612A
:101A3000726E696E673A20486F6D696E67204275F5
:101A40006D702044697669736F72203C20310A0002
:101A50000202040000A0400000A04000000040007E
:101A6000009B4300009B430000C943FFFFFF6269E6
:101A70006E004D31313720494E56414C4944204487
:101A80004154412E00473932205A25732045257391
:101A90000062696E0020496E76616C696420657829
:101AA0007472756465722000000000000000000080
:101AB0000000000000009B4300009B430000C9435E
:101AC00047302046333630302058313535205931B3
:101AD00035350042696C696E656172204C657665CA
:101AE0006C696E6720477269643A0A0020706F73F0
:101AF0006974696F6E206F7574206F662072616EF5
:101B000067652E0A003F50726F626520004E6F209D
:101B10004C696E65204E756D6265722077697468D8
:101B200020636865636B73756D2C204C6173742042
:101B30004C696E653A20004B494C4C45442E2000C0
:101B40005072696E7465722073746F707065642072
:101B500064756520746F206572726F72732E2046F3
:101B6000697820746865206572726F7220616E6496
:101B700020757365204D39393920746F2072657373
:101B8000746172742E202854656D7065726174756D
:101B900072652069732072657365742E20536574B5
:101BA0002069742061667465722072657374617255
:101BB00074696E67290A004E6F20436865636B7312
:101BC000756D2077697468206C696E65206E756D1F
:101BD0006265722C204C617374204C696E653A20EA
:101BE00000636865636B73756D206D69736D6174F7
:101BF00063682C204C617374204C696E653A200038
:101C00004C696E65204E756D626572206973206E39
:101C10006F74204C617374204C696E65204E756D35
:101C20006265722B312C204C617374204C696E6597
:101C30003A20004D313130004D3331004D383420E1
:101C4000582059205A204500534420726561642071
:101C50006572726F720A00446F6E65207072696EF1
:101C600074696E672066696C650A00205A3A200024
:101C700020593A200042656420583A20002E0A007C
:101C800046696C652862696E292064656C657465B7
:101C9000640044656C6574696F6E2862696E292002
:101CA0006661696C6564005344207072696E746982
:101CB0006E67206279746520004E6F742053442053
:101CC0007072696E74696E670A00202F00204240AE
:101CD0003A0020403A00473238205830205930002E
:101CE00020573A002066697273740A005A0059003E
:101CF0005800486F6D65200052756E6E696E6720E2
:101D0000696E204452592D52554E206D6F64650AFC
:101D100000473239204175746F20426564204C655C
:101D200076656C696E670A0028422961636B00283A
:101D30004629726F6E7400285229696768740028FA
:101D40004C29656674003F2856296572626F736579
:101D5000206C6576656C20697320696D706C6175A7
:101D60007369626C652028302D34292E0A00426187
:101D700064205A2076616C75650A004E6F20626996
:101D80006C696E65617220677269640A0050726FD7
:101D900062696E67206661696C65640A00205A3A60
:101DA000200020593A200042656420583A2000471C
:101DB00032382058302059300020573A00205A3A03
:101DC0000020593A0020436F756E7420583A002065
:101DD000453A00205A3A0020593A00583A004361E7
:101DE000703A454D455247454E43595F5041525315
:101DF00045523A300A004361703A434153455F4CC3
:101E0000494748545F4252494748544E4553533A14
:101E1000300A004361703A544F47474C455F4C4984
:101E2000474854533A300A004361703A534F46547E
:101E3000574152455F504F5745523A300A0043616F
:101E4000703A4C4556454C494E475F444154413ADF
:101E5000310A004361703A5A5F50524F42453A315D
:101E60000A004361703A4155544F4C4556454C3A2F
:101E7000310A004361703A5052494E545F4A4F4212
:101E80003A310A004361703A50524F47524553531A
:101E90003A300A004361703A4155544F5245504F11
:101EA00052545F54454D503A310A004361703A45EF
:101EB0004550524F4D3A310A004649524D57415212
:101EC000455F4E414D453A4D61726C696E205665D5
:101ED0007220312E37302E312028437265616C69B3
:101EE000747933442920534F555243455F434F443F
:101EF000455F55524C3A68747470733A2F2F676976
:101F0000746875622E636F6D2F4D61726C696E46D9
:101F100069726D776172652F4D61726C696E2050C8
:101F2000524F544F434F4C5F56455253494F4E3AD0
:101F3000312E30204D414348494E455F545950455C
:101F40003A3344205072696E746572204558545279
:101F5000554445525F434F554E543A3120555549EB
:101F6000443A63656465326132662D343161322DE5
:101F7000343734382D396231322D6335356336329A
:101F80006633363766660A006265640A002C207381
:101F9000797374656D2073746F7070656421204867
:101FA00065617465725F49443A20004572723A2057
:101FB0004D415854454D5020424544004572723AB7
:101FC000204D415854454D50004D415854454D50B9
:101FD00020747269676765726564004572723A20A1
:101FE0004D494E54454D5020424544004572723A89
:101FF000204D494E54454D50004D494E54454D508D
:102000002074726967676572656400486561746908
:102010006E67206661696C65640048656174696E0D
:1020200067206661696C65640048656174696E6704
:10203000206661696C65640048656174696E67203B
:102040006661696C656400526573656E643A200070
:10205000B5D9B9DA11241FBECFEFD1E2DEBFCDBFB3
:1020600000E00CBF15E0A0E0B2E0E2E3F6ED01E035
:102070000BBF02C007900D92AC35B107D9F72BE129
:10208000ACE5B5E001C01D92A83DB207E1F710E153
:10209000C9E2D0E100E006C021970109802FFE01CE
:1020A0000E9458EAC832D10780E00807A9F70E94C9
:1020B000D7D00C9408EB0C9400004F925F926F9273
:1020C0007F928F929F92AF92BF92CF92DF92EF92C8
:1020D000FF920F931F93CF93DF93CDB7DEB7C25418
:1020E000D1090FB6F894DEBF0FBECDBF0E942CC839
:1020F0008091F507823009F0ABC080911A0E8823D9
:1021000009F4A6C06499A4C08091F6078F5F8093FC
:10211000F60765E070E080E090E00E944B5D809102
:10212000F60783330CF494C08091F307882349F0B9
:1021300081E09AE5909321118093201186E590E04B
:1021400008C081E09AE5909321118093201187E5E2
:1021500090E0909323118093221187E080931411D3
:1021600082E88093171184E890E0A0E0B0E08093CB
:10217000181190931911A0931A11B0931B110E947A
:102180007E9485E08093F70780913E1790913F17EA
:10219000A0914017B09141178093AA059093AB0589
:1021A000A093AC05B093AD0520E030E040E251E4EF
:1021B0006091421770914317809144179091451791
:1021C0000E944BE86093A6057093A7058093A8052D
:1021D0009093A90510921A0E0E94E2688091A405BE
:1021E0009091A505892B41F480910E0690910F06E0
:1021F0009093A5058093A40580916D0590916E053F
:10220000892B41F480910C0690910D0690936E05F8
:1022100080936D0510920D0610920C060E9450607E
:1022200081E08093C9161092F6071092F50784E0BA
:102230008093C1171092BD171092F2171092F117E8
:1022400085E194E09093040A8093030A0E94D7AB3F
:102250000E947B4934E6832E31E1932E4AE1742EAD
:1022600089E29DE00E94405AA0906F05B0907005F1
:10227000181619065CF52AE1A216B1043CF589E2AC
:102280009DE00E941E5AF501EC59FE4E808380911C
:1022900064118A3569F01A141B0414F7D401E72D70
:1022A0001D92EA95E9F71092700510926F05D8CF4C
:1022B0006AE070E080E090E00E944B5DFFEFAF1AB3
:1022C000BF0AB0927005A0926F05CACF1A141B0402
:1022D00014F00C94B92F9091C5108091641198134B
:1022E00022C09091C6108091651198131CC033E0F4
:1022F000A316B104C4F0909166119093C41080911C
:1023000067118093C7109330D9F4982F9D7F903830
:10231000B9F4909168119F3409F05BC090916911F4
:102320009B3409F056C08AE1E4E6F1E1DF011D9239
:102330008A95E9F71092700510926F050C94B92FE9
:10234000833809F046C08091681190E0A0E0B0E0C9
:10235000BA2FA92F982F882720916911822B80935B
:10236000C8109093C910A093CA10B093CB1080905E
:102370006A11912CA12CB12C8092CC109092CD108E
:10238000A092CE10B092CF1040E050E0BA014815B4
:1023900059056A057B0508F04BC0CA018C539F4E56
:1023A0009A0135952795220F331FD901A053BF4EAF
:1023B000FC01E955FF4F208130E0322F2227319672
:1023C0008081282B2D933C934E5F5F4F6F4F7F4F43
:1023D000DECF813869F58091681190E0A0E0B0E02F
:1023E0008093C8109093C910A093CA10B093CB10DB
:1023F00080916911482F50E060E070E04093CC106C
:102400005093CD106093CE107093CF10E0EDF0E1BB
:1024100090E020E030E02817390751F0D901A659A3
:10242000BE4E4C9150E0419351932F5F3F4FF3CFFD
:102430008AE1E4E6F1E1DF011D928A95E9F7109265
:10244000700510926F058091F707181614F40C941C
:10245000AC2F4091C8105091C9106091CA10709172
:10246000CB10A5E6B2E0E0E0F0E08D909D90AD905D
:10247000BD9081149104A104B104B1F1481559052E
:102480006A057B0579F5DB01CA0188509041A109F5
:10249000B1090597A105B10550F1DB01CA01877F9C
:1024A00082339041A105B10529F1443330E153074E
:1024B00061057105F9F0DB01CA0186549041A1095B
:1024C000B1090797A105B105C0F0DB01CA01845528
:1024D0009041A109B1090597A105B10580F4E2E198
:1024E000F0E00DC03196C1CFEFEFFFEF08C0E3E0A1
:1024F000F0E005C0E8E0F0E002C0EFE0F0E0DB0172
:10250000CA018A509042A109B109833D9105A105F4
:10251000B10510F40C947D2CEF3F8FEFF80711F408
:102520000C94AC2FEA31F10510F00C94AC2F8827F5
:10253000EE58FF4F8F4F0C9458EA8091D010909135
:10254000D1108130910509F052C010925D0281E0F6
:10255000809323188FEF809327180E942CC88091B6
:10256000F307882311F181E09AE59093211180937C
:10257000201182E090E0909323118093221187E054
:102580008093141182E88093171184E890E0A0E012
:10259000B0E08093181190931911A0931A11B09381
:1025A0001B110E947E940C94AC2F81E09AE59093CD
:1025B0002111809320118EE290E09093231180935B
:1025C000221187E08093141182E88093171184E828
:1025D00090E0A0E0B0E08093181190931911A093BF
:1025E0001A11B0931B110E947E940C94AC2F823070
:1025F000910509F0F7C081E080935D021092BD174C
:102600000E941AC08BE090E09093211180932011DA
:1026100005E00093141112E81093171180E092E185
:10262000A0E0B0E08093181190931911A0931A11B3
:10263000B0931B110E947E941092211110922011D0
:1026400000931411109317118EE090E1A0E0B0E018
:102650008093181190931911A0931A11B0931B1124
:102660000E947E9410922111109220110093141157
:10267000109317118FE090E1A0E0B0E08093181163
:1026800090931911A0931A11B0931B110E947E947C
:102690001092211110922011009314111093171110
:1026A00086E190E1A0E0B0E08093181190931911B9
:1026B000A0931A11B0931B110E947E9462E070E007
:1026C00080E090E00E944B5D109221111092201149
:1026D000009314111093171180E190E1A0E0B0E095
:1026E0008093181190931911A0931A11B0931B1194
:1026F0000E947E94109221111092201100931411C7
:102700001093171182E190E1A0E0B0E080931811DE
:1027100090931911A0931A11B0931B110E947E94EB
:1027200010920B0E10920A0E1092100E1092110EB3
:102730001092120E1092130E1092140E1092150E8B
:102740001092160E1092170E10920C0E10920D0E83
:1027500010920E0E10920F0E8091F307882309F14C
:1027600081E09AE5909321118093201181E090E01F
:10277000909323118093221187E08093141110937A
:10278000171184E890E0A0E0B0E0809318119093D6
:102790001911A0931A11B0931B110E947E940C94EE
:1027A000AC2F81E09AE590932111809320118DE266
:1027B00090E0909323118093221187E0809314116D
:1027C0001093171184E890E0A0E0B0E08093181116
:1027D00090931911A0931A11B0931B110E947E942B
:1027E0000C94AC2F8330910509F098C081E0809360
:1027F0005D021092BD179091F30780915F029923BB
:1028000009F446C0882311F181E09AE590932111E3
:102810008093201180E190E0909323118093221106
:1028200087E08093141182E88093171184E890E088
:10283000A0E0B0E08093181190931911A0931A11A1
:10284000B0931B110E947E940C94AC2F81E09AE50A
:1028500090932111809320118FE090E090932311A9
:102860008093221187E08093141182E880931711DE
:1028700084E890E0A0E0B0E08093181190931911E3
:10288000A0931A11B0931B110E947E940C94AC2F4C
:10289000882311F181E09AE5909321118093201112
:1028A0008AE390E0909323118093221187E0809334
:1028B000141182E88093171184E890E0A0E0B0E062
:1028C0008093181190931911A0931A11B0931B11B2
:1028D0000E947E940C94AC2F81E09AE59093211194
:1028E0008093201189E390E090932311809322112B
:1028F00087E08093141182E88093171184E890E0B8
:10290000A0E0B0E08093181190931911A0931A11D0
:10291000B0931B110E947E940C94AC2F049711F07D
:102920000C94AC2F10925D020C94AC2F8091D010BF
:102930009091D11081309105E1F580915F0288235B
:10294000E1F082E090E0909321118093201185E0E6
:102950008093141182E8809317118EE190E1A0E03A
:10296000B0E08093181190931911A0931A11B093AD
:102970001B110E947E940C94AC2F83E090E0909306
:1029800021118093201185E08093141182E88093B7
:1029900017118EE190E1A0E0B0E0809318119093C0
:1029A0001911A0931A11B0931B110E947E940C94DC
:1029B000AC2F8230910509F0FCC081E080935D026C
:1029C0009091C1178091F307933009F046C0882396
:1029D00011F181E09AE590932111809320118AE012
:1029E00090E0909323118093221187E0809314113B
:1029F00082E88093171184E890E0A0E0B0E0809333
:102A0000181190931911A0931A11B0931B110E94E1
:102A10007E940C94AC2F81E09AE5909321118093E1
:102A2000201184E390E0909323118093221187E09A
:102A30008093141182E88093171184E890E0A0E05D
:102A4000B0E08093181190931911A0931A11B093CC
:102A50001B110E947E940C94AC2F943009F063C03B
:102A6000882311F181E09AE5909321118093201140
:102A70008CE090E0909323118093221187E0809363
:102A8000141182E88093171184E890E0A0E0B0E090
:102A90008093181190931911A0931A11B0931B11E0
:102AA0000E947E940C94AC2F81E09AE590932111C2
:102AB0008093201186E390E090932311809322115C
:102AC00087E08093141182E88093171184E890E0E6
:102AD000A0E0B0E08093181190931911A0931A11FF
:102AE000B0931B110E947E940C94AC2F483090E15F
:102AF00059076105710509F0CEC19091C916809101
:102B0000F307913009F455C191115BC12091D010A8
:102B10003091D110203F310509F053C19091C11778
:102B2000933009F454CF882311F181E09AE5909312
:102B30002111809320118BE090E0909323118093DA
:102B4000221187E08093141182E88093171184E8A2
:102B500090E0A0E0B0E08093181190931911A09339
:102B60001A11B0931B110E947E940C94AC2F81E03B
:102B70009AE5909321118093201185E390E0909342
:102B800023118093221187E08093141182E88093AF
:102B9000171184E890E0A0E0B0E0809318119093C2
:102BA0001911A0931A11B0931B110E947E940C94DA
:102BB000AC2F8330910509F049C020915F02222398
:102BC00011F1909321118093201185E080931411CD
:102BD00082E8809317118EE190E1A0E0B0E080934D
:102BE000181190931911A0931A11B0931B110E9400
:102BF0007E948FEF90E09093C3178093C21710924A
:102C00005F020C94AC2F82E090E0909321118093AE
:102C1000201185E08093141182E8809317118EE1D2
:102C200090E1A0E0B0E08093181190931911A09367
:102C30001A11B0931B110E947E941092C317109228
:102C4000C21781E080935F020C94AC2F049711F0BF
:102C50000C94AC2F80910D02882309F452C082E0BD
:102C600090E0909321118093201105E000931411BE
:102C700012E8109317118FE190E1A0E0B0E080938B
:102C8000181190931911A0931A11B0931B110E945F
:102C90007E9480916D0590916E050097D1F0909390
:102CA0000D0680930C0690932111809320110093C0
:102CB0001411109317118AE390E1A0E0B0E0809323
:102CC000181190931911A0931A11B0931B110E941F
:102CD0007E9410920D02109204028091F3078823D3
:102CE00019F088E090E002C08AE090E09093211112
:102CF0008093201185E08093141182E8809317114E
:102D000038C083E090E0909321118093201105E07A
:102D10000093141112E8109317118FE190E1A0E0D5
:102D2000B0E08093181190931911A0931A11B093E9
:102D30001B110E947E9480910C0690910D06909339
:102D40006E0580936D0581E080930D0280930402EF
:102D50008091F307882319F087E090E002C089E0B2
:102D600090E09093211180932011009314111093FF
:102D7000171188E190E1A0E0B0E0809318119093E2
:102D80001911A0931A11B0931B110E947E946091A7
:102D90000D0280E690E00E94D1E70C94AC2F809168
:102DA000D0109091D11090930C0280930B020C9450
:102DB000AC2F2091D0103091D110203F310509F473
:102DC0004FCE882349F081E09AE5909321118093BA
:102DD000201186E590E008C081E09AE590932111EA
:102DE0008093201187E590E0909323118093221126
:102DF00087E08093141182E88093171184E890E0B3
:102E0000A0E0B0E08093181190931911A0931A11CB
:102E1000B0931B110E947E941092211110922011E8
:102E200005E00093141112E81093171180E190E16E
:102E3000A0E0B0E08093181190931911A0931A119B
:102E4000B0931B110E947E941092211110922011B8
:102E5000009314111093171182E190E1A0E0B0E00B
:102E60008093181190931911A0931A11B0931B110C
:102E70000E947E941092F2171092F117109224186B
:102E800010926E0510926D051092A5051092A40582
:102E90000E94AEBB51C24A30A0E15A0761057105DC
:102EA00009F098C08091D0109091D110813F910588
:102EB00011F00C94AC2F8091F307882349F081E046
:102EC0009AE5909321118093201186E590E008C047
:102ED00081E09AE5909321118093201187E590E09D
:102EE000909323118093221187E08093141182E83C
:102EF0008093171184E890E0A0E0B0E0809318116F
:102F000090931911A0931A11B0931B110E947E94F3
:102F100081E08093F70780913E1790913F17A09131
:102F20004017B09141178093AA059093AB05A093E9
:102F3000AC05B093AD0520E030E040E251E4609193
:102F400042177091431780914417909145170E9442
:102F50004BE86093A6057093A7058093A80590930E
:102F6000A90510921A0E0E94E2688091A405909122
:102F7000A505892B41F480910E0690910F06909340
:102F8000A5058093A40580916D0590916E05892B10
:102F900041F480910C0690910D0690936E058093FC
:102FA0006D0510920D0610920C060E94506081E093
:102FB0008093C91684E08093C1171092F217109283
:102FC000F1178BE094E09093040A8093030A0E9427
:102FD000D7ABB2C14C3050416105710509F0ACC1AD
:102FE0008091D0109091D110019709F0A5C180E097
:102FF00090E00E942C68892B09F485C080910E0610
:1030000090910F06893B9105B4F110926C051092D6
:103010006B05A5E0FA2EB2E8EB2E1EE8812E10E13A
:10302000912EA12CB12C00916B0510916C050530EF
:10303000110514F00C94AC2F109321110093201162
:10304000F0921411E09217118092181190921911B8
:10305000A0921A11B0921B110E947E9460E971E057
:1030600080E090E00E944B5D0F5F1F4F10936C0556
:1030700000936B05D8CF8091F307882311F181E08D
:103080009AE590932111809320118CE290E0909327
:1030900023118093221187E08093141182E880939A
:1030A000171184E890E0A0E0B0E0809318119093AD
:1030B0001911A0931A11B0931B110E947E940C94C5
:1030C000AC2F81E09AE5909321118093201181E546
:1030D00090E0909323118093221187E08093141144
:1030E00082E88093171184E890E0A0E0B0E080933C
:1030F000181190931911A0931A11B0931B110E94EB
:103100007E940C94AC2F8091F307882349F081E0E2
:103110009AE5909321118093201186E590E008C0F4
:1031200081E09AE5909321118093201187E590E04A
:10313000909323118093221187E08093141182E8E9
:103140008093171184E890E0A0E0B0E0809318111C
:1031500090931911A0931A11B0931B110E947E94A1
:103160006E01EFE1CE0ED11CE0E1FE2ED601EF2D77
:103170001D92EA95E9F76091AA057091AB058091DF
:10318000AC059091AD05860122E043E00E94FADC97
:103190009E012F5F3F4F5901D9011D92FA94E9F723
:1031A0006091A6057091A7058091A8059091A90549
:1031B000890122E043E00E94FADCF6E8EF2EF5E018
:1031C000FF2E1EE1F701212F11922A95E9F7809138
:1031D0006E058F9380916D058F9382E094E09F93AD
:1031E0008F93FF92EF920E947FE1C7010E9439976F
:1031F000D701E12F1D92EA95E9F78091A5058F93FC
:103200008091A4058F9389EF93E09F938F93FF9212
:10321000EF920E947FE1C7010E943997D7011D926A
:103220001A95E9F7DF92CF9282EF93E09F938F9305
:10323000FF92EF920E947FE1C7010E943997BF92EF
:10324000AF928AEE93E09F938F93FF92EF920E944A
:103250007FE1C7010E94399710926E0510926D05AB
:103260001092A5051092A4050FB6F894DEBF0FBE0C
:10327000CDBF80911B0E882319F081E080931A0E38
:103280000E948A688091F307882319F081E090E01A
:1032900002C08DE090E0909321118093201185E091
:1032A0008093141182E88093171184E190E1A0E0EB
:1032B000B0E08093181190931911A0931A11B09354
:1032C0001B110E947E941092C9161092F217109250
:1032D000F11783E08093C11781E0809324188091D7
:1032E000F307882349F081E09AE5909321118093B8
:1032F00020118AE090E008C081E09AE590932111C6
:103300008093201184E390E0909323118093221105
:1033100087E08093141182E88093171184E890E08D
:10332000A0E0B0E08093181190931911A0931A11A6
:10333000B0931B110E947E948091C8109091C91087
:10334000A091CA10B091CB108C309041A105B1056D
:1033500011F00C94AC2F8091D0109091D110029765
:1033600011F00C94AC2F81E080936A058091A40544
:103370009091A50590930F0680930E0610926C0510
:1033800010926B058091F307882309F181E09AE59B
:10339000909321118093201187E090E09093231166
:1033A000809322118093141182E88093171184E88E
:1033B00090E0A0E0B0E08093181190931911A093D1
:1033C0001A11B0931B110E947E940C94AC2F81E0D3
:1033D0009AE5909321118093201182E590E09093DB
:1033E00023118093221187E08093141182E8809347
:1033F000171184E890E0A0E0B0E08093181190935A
:103400001911A0931A11B0931B110E947E940C9471
:10341000AC2F2091D0103091D110B90180E090E014
:1034200037FF09C00E94B2E120E030E040E857E4F5
:103430000E944BE802C00E94B2E120E030E048EC7C
:1034400052E40E94C3E86093B6177093B717809355
:10345000B8179093B917C090B617D090B717E090EF
:10346000B817F090B91720E030E040EA51ECC701FE
:10347000B6010E94AFE987FF02C00C94AC2F20E098
:1034800030E040EA51E4C701B6010E94AEE11816EF
:1034900014F40C94AC2F2091F6053091F70540916F
:1034A000F8055091F9058091E305882311F40C94F7
:1034B000AC2F0091D1071091D207C701B6010E942D
:1034C0004BE820E030E040E252E40E9413E20E9428
:1034D0002BE9600F711F7093D2076093D1070C9492
:1034E000AC2F8091D0109091D110009739F481E0E9
:1034F00080935D021092BD170C94AC2F9C0121505B
:1035000031092230310510F40C94AC2F8330910531
:1035100009F0B8C090915F028091F307992309F4F4
:1035200064C02FEF30E03093C3172093C21710927E
:103530005F028823C1F181E09AE590932111809385
:1035400020118FE090E0909323118093221187E067
:103550008093141182E88093171184E890E0A0E032
:10356000B0E08093181190931911A0931A11B093A1
:103570001B110E947E940C94AC2F423320E1520721
:103580006105710509F012C28091D0109091D1109F
:10359000009709F0C8C19091F30780915F029111E3
:1035A000BFC181114DC081E09AE5909321118093B4
:1035B000201189E390E0909323118093221187E0FA
:1035C0008093141182E88093171184E890E0A0E0C2
:1035D000B0E08093181190931911A0931A11B09331
:1035E0001B110E947E940C94AC2F1092C317109262
:1035F000C21791E090935F02882311F181E09AE570
:10360000909321118093201180E190E090932311F9
:103610008093221187E08093141182E88093171120
:1036200084E890E0A0E0B0E0809318119093191125
:10363000A0931A11B0931B110E947E940C94AC2F8E
:1036400081E09AE590932111809320118AE390E024
:10365000909323118093221187E08093141182E8C4
:103660008093171184E890E0A0E0B0E080931811F7
:1036700090931911A0931A11B0931B110E947E947C
:103680000C94AC2F8530910509F04EC080E090E09D
:10369000A3E4B3E48093000290930102A09302029A
:1036A000B093030203EC10E010930F0600930E0694
:1036B00080E00E949A607DE2E72EF12CF0920D06E8
:1036C000E0920C060E94506010932111009320118B
:1036D00005E00093141112E81093171184E390E1B0
:1036E000A0E0B0E08093181190931911A0931A11E3
:1036F000B0931B110E947E94F0922111E092201150
:1037000000931411109317118AE390E1A0E0B0E048
:103710008093181190931911A0931A11B0931B1153
:103720000E947E940C94AC2F8630910509F04EC017
:1037300080E090E0A0E7B3E4809300029093010260
:10374000A0930202B093030200EF10E010930F0663
:1037500000930E0680E00E949A606EE6E62EF12C41
:10376000F0920D06E0920C060E9450601093211119
:103770000093201105E00093141112E81093171123
:1037800084E390E1A0E0B0E08093181190931911C8
:10379000A0931A11B0931B110E947E94F0922111F4
:1037A000E092201100931411109317118AE390E115
:1037B000A0E0B0E08093181190931911A0931A1112
:1037C000B0931B110E947E940C94AC2F813F910505
:1037D00011F00C94AC2F8FEF90E09093C31780936F
:1037E000C21710925F020E94E460109221111092A1
:1037F000201105E00093141112E81093171184E3CF
:1038000090E1A0E0B0E08093181190931911A0937B
:103810001A11B0931B110E947E9461E070E080E069
:1038200090E00E944B5D10922111109220110093A4
:103830001411109317118AE390E1A0E0B0E0809397
:10384000181190931911A0931A11B0931B110E9493
:103850007E9461E070E080E090E00E944B5D80919A
:10386000F307882309F188E090E090932111809379
:103870002011009314111093171184E190E1A0E03E
:10388000B0E08093181190931911A0931A11B0937E
:103890001B110E947E9481E09AE590932111809300
:1038A00020118FE090E020C084E190E090932111FE
:1038B00080932011009314111093171184E190E16B
:1038C000A0E0B0E08093181190931911A0931A1101
:1038D000B0931B110E947E9481E09AE59093211190
:1038E0008093201189E390E090932311809322111B
:1038F00087E0809314111093171184E890E0A0E002
:10390000B0E08093181190931911A0931A11B093FD
:103910001B110E947E9482E08093C1170C94AC2FFF
:1039200081116CCE08CE81309105F1F410920F0612
:1039300010920E06109221111092201185E08093B2
:10394000141182E88093171184E390E1A0E0B0E0C5
:103950008093181190931911A0931A11B0931B1111
:103960000E947E940C94AC2F029711F00C94AC2F13
:1039700010920D0610920C06109221111092201137
:1039800085E08093141182E8809317118AE390E117
:10399000A0E0B0E08093181190931911A0931A1130
:1039A000B0931B110E947E940C94AC2F443330E1F1
:1039B00053076105710569F48091D0109091D11081
:1039C00090930F0680930E0680E00E949A600C94FC
:1039D000AC2F4A3350416105710511F00C94AC2FA6
:1039E0008091D0109091D1108E37910514F08DE711
:1039F00090E090930D0680930C060E9450600C940A
:103A0000AC2F8091D0109091D110009709F46FCD18
:103A10008130910509F09FC08091FA05882319F043
:103A200082E090E002C083E090E0909321118093C7
:103A3000201185E08093141182E88093171185E4AA
:103A400090E1A0E0B0E08093181190931911A09339
:103A50001A11B0931B110E947E948AE090E090931B
:103A600021118093201185E08093141112E81093A6
:103A7000171180E092E1A0E0B0E0809318119093DC
:103A80001911A0931A11B0931B110E947E9486E025
:103A90008093F70781E08093BE1780935D021092B8
:103AA00067051092F2171092F11786EE93E090934B
:103AB000040A8093030A0E94D7AB89ED93E09093A8
:103AC000040A8093030A0E94D7AB8091F3078823EE
:103AD00009F181E09AE5909321118093201180E211
:103AE00090E0909323118093221187E0809314112A
:103AF0001093171184E890E0A0E0B0E080931811D3
:103B000090931911A0931A11B0931B110E947E94E7
:103B10000C94AC2F81E09AE59093211180932011B1
:103B20008AE490E0909323118093221187E08093A0
:103B300014111093171184E890E0A0E0B0E0809396
:103B4000181190931911A0931A11B0931B110E9490
:103B50007E940C94AC2F8230910509F0E9C081E08D
:103B600080935D021092BD1788E0EFE5F5E0DF017C
:103B70001D928A95E9F780E090E0A0E2B1E480939D
:103B80005F0590936005A0936105B09362058093F3
:103B9000630590936405A0936505B093660584E67C
:103BA00090E0909321118093201105E0009314116F
:103BB00012E81093171184E590E1A0E0B0E0809343
:103BC000181190931911A0931A11B0931B110E9410
:103BD0007E9420E030E040E251E460916305709112
:103BE000640580916505909166050E9413E20E942C
:103BF0002BE97093211160932011009314111093FD
:103C0000171188E590E1A0E0B0E08093181190933F
:103C10001911A0931A11B0931B110E947E94609108
:103C2000E8057091E9058091EA059091EB050E9405
:103C30002BE97093211160932011009314111093BC
:103C4000171186E390E1A0E0B0E080931811909303
:103C50001911A0931A11B0931B110E947E9480E059
:103C60000E949A6080910E0690910F069093211108
:103C700080932011009314111093171184E390E1A5
:103C8000A0E0B0E08093181190931911A0931A113D
:103C9000B0931B110E947E9462E070E080E090E09F
:103CA0000E944B5D8091F307882309F181E09AE53A
:103CB000909321118093201187E190E0909323113C
:103CC0008093221187E0809314111093171184E8D8
:103CD00090E0A0E0B0E08093181190931911A093A8
:103CE0001A11B0931B110E947E940C94AC2F81E0AA
:103CF0009AE5909321118093201181E490E09093B4
:103D000023118093221187E08093141110931711CF
:103D100084E890E0A0E0B0E080931811909319112E
:103D2000A0931A11B0931B110E947E940C94AC2F97
:103D30008330910509F0C2C01092CC0520E030E03C
:103D400040E251E46091361770913717809138172F
:103D5000909139170E9413E20E942BE97093211170
:103D60006093201105E00093141112E810931711CD
:103D700088E490E1A0E0B0E08093181190931911CD
:103D8000A0931A11B0931B110E947E9420E030E0A2
:103D900040E251E460913A1770913B1780913C17D3
:103DA00090913D170E9413E20E942BE9709321111C
:103DB0006093201100931411109317118AE490E17D
:103DC000A0E0B0E08093181190931911A0931A11FC
:103DD000B0931B110E947E9420E030E040E251E459
:103DE00060913E1770913F17809140179091411755
:103DF0000E9413E20E942BE970932111609320111D
:103E000000931411109317118CE490E1A0E0B0E03E
:103E10008093181190931911A0931A11B0931B114C
:103E20000E947E9462E070E080E090E00E944B5D32
:103E30008091F307882309F181E09AE5909321119D
:103E4000809320118DE190E09093231180932211B3
:103E500087E0809314111093171184E890E0A0E09C
:103E6000B0E08093181190931911A0931A11B09398
:103E70001B110E947E940C94AC2F81E09AE59093E4
:103E800021118093201187E490E090932311809377
:103E9000221187E0809314111093171184E890E0A9
:103EA000A0E0B0E08093181190931911A0931A111B
:103EB000B0931B110E947E940C94AC2F843091051A
:103EC00011F40C94AC2F85309105A1F48091F30787
:103ED0004EE750E160E070E0882331F081E593E047
:103EE0000E94E4670C94AC2F83E693E00E94E467A1
:103EF0000C94AC2F069711F00C94AC2F85ED93E049
:103F00009093040A8093030A0E94D7AB8BE090E061
:103F1000909321118093201185E08093141182E801
:103F20008093171180E092E1A0E0B0E08093181137
:103F300090931911A0931A11B0931B110E947E94B3
:103F40000C94AC2F8091D0109091D110019709F072
:103F500077C080EA9FE09093F2178093F117109258
:103F60005D02C090B617D090B717E090B817F090E8
:103F7000B917A70196016091F6057091F705809138
:103F8000F8059091F9050E94AEE1882361F1C09295
:103F9000F605D092F705E092F805F092F90520E0D9
:103FA00030E048EC52E4C701B6010E9413E20E94DF
:103FB0002BE9709321116093201185E080931411F7
:103FC00082E88093171186E290E1A0E0B0E0809350
:103FD000181190931911A0931A11B0931B110E94FC
:103FE0007E940E940C8C8091F307882349F081E035
:103FF0009AE5909321118093201185E190E008C00B
:1040000081E09AE590932111809320118FE390E055
:10401000909323118093221187E08093141182E8FA
:104020008093171184E890E0A0E0B0E0809318112D
:1040300090931911A0931A11B0931B110E947E94B2
:104040008091D0109091D110029711F00C94AC2F68
:104050008091F307882311F181E09AE59093211173
:104060008093201186E190E0909323118093221198
:1040700087E08093141182E88093171184E890E020
:10408000A0E0B0E08093181190931911A0931A1139
:10409000B0931B110E947E940C94AC2F81E09AE5A2
:1040A000909321118093201180E490E0909323114C
:1040B0008093221187E08093141182E88093171176
:1040C00084E890E0A0E0B0E080931811909319117B
:1040D000A0931A11B0931B110E947E940C94AC2FE4
:1040E0008091D0109091D11081309105C1F40E943F
:1040F00022C886E08093F70710925D0281E08093EA
:10410000BE178091E105882321F08091E20581119D
:1041100003C081ED93E0EAC08AEC93E0E7C082300F
:10412000910569F52DEC3CEC4CEC5DE36091B61724
:104130007091B7178091B8179091B9170E944CE809
:104140006B017C0120E030E040EA51EC0E94AFE9D5
:1041500087FDD9C120E030E040EA51E4C701B60153
:104160000E94AEE118160CF4CEC18091E3058823BD
:10417000C9F18091D1079091D20788962FC08330E2
:104180009105C9F52DEC3CEC4CEC5DE36091B61764
:104190007091B7178091B8179091B9170E944BE8AA
:1041A0006B017C0120E030E040EA51EC0E94AFE975
:1041B00087FDA9C120E030E040EA51E4C701B60123
:1041C0000E94AEE118160CF49EC18091E30588238D
:1041D00049F08091D1079091D20788979093D207A8
:1041E0008093D107C092B617D092B717E092B81754
:1041F000F092B91788C18430910549F584E0809325
:10420000F70786EC93E09093040A8093030A0E94D8
:10421000D7AB82EC93E09093040A8093030A0E9448
:10422000D7AB8091F307882349F081E09AE590931A
:104230002111809320118CE190E0CFC181E09AE5BB
:10424000909321118093201184E590E0C6C18530C0
:10425000910509F052C083E08093F70781E090E078
:10426000909321118093201185E08093141112E81E
:10427000109317118DE890E1A0E0B0E08093181141
:1042800090931911A0931A11B0931B110E947E9460
:104290008091F307882349F081E09AE590932111FA
:1042A000809320118BE290E008C081E09AE5909322
:1042B00021118093201185E590E090932311809344
:1042C000221187E0809314111093171184E890E075
:1042D000A0E0B0E08093181190931911A0931A11E7
:1042E000B0931B110E947E948EEB93E09093040A8E
:1042F0008093030A0E94D7AB06C186309105B1F4C2
:1043000084E08093F70783EB93E09093040A809313
:10431000030A0E94D7AB80EA93E09093040A80934B
:10432000030A0E94D7AB85E993E063C0873091050B
:10433000B1F484E08093F7078AE893E09093040A4D
:104340008093030A0E94D7AB89E793E09093040A15
:104350008093030A0E94D7AB8EE693E04AC0883070
:104360009105B1F484E08093F70783E693E090939E
:10437000040A8093030A0E94D7AB81E593E09093EF
:10438000040A8093030A0E94D7AB86E493E031C00D
:1043900089309105B1F484E08093F7078BE393E0D3
:1043A0009093040A8093030A0E94D7AB88E293E0BB
:1043B0009093040A8093030A0E94D7AB8DE193E0A7
:1043C00018C08A309105F1F484E08093F70782E108
:1043D00093E09093040A8093030A0E94D7AB80E095
:1043E00093E09093040A8093030A0E94D7AB85EF71
:1043F00092E09093040A8093030A0E94D7AB109234
:10440000F70781C00B9709F07EC08091FA058823D9
:10441000F9F083E090E0909321118093201185E0E2
:104420008093141182E88093171185E490E1A0E055
:10443000B0E08093181190931911A0931A11B093C2
:104440001B110E947E941092FA058DEE92E01FC01F
:1044500082E090E0909321118093201185E0809379
:10446000141182E88093171185E490E1A0E0B0E098
:104470008093181190931911A0931A11B0931B11E6
:104480000E947E9481E08093FA0585EE92E09093FD
:10449000040A8093030A0E94D7AB6091B61770910B
:1044A000B7178091B8179091B9176093F60570937C
:1044B000F7058093F8059093F90520E030E048EC8B
:1044C00052E40E9413E20E942BE970932111609341
:1044D000201185E08093141182E88093171186E201
:1044E00090E1A0E0B0E08093181190931911A0938F
:1044F0001A11B0931B110E947E946091FA058CE50D
:1045000090E00E94D1E78AE090E09093211180939F
:10451000201185E08093141182E88093171180E0C8
:1045200092E1A0E0B0E08093181190931911A0934C
:104530001A11B0931B110E947E940C94AC2F84E04E
:104540008093F7078091D0109091D1104834B0E15A
:104550005B076105710509F45FC04A34E0E15E075D
:104560006105710509F461C04C34F0E15F07610534
:10457000710509F463C0463450416105710509F0C5
:1045800065C08330910509F041C081EE92E09093BF
:10459000040A8093030A0E94D7AB81E08093BE1780
:1045A00080935D02109267051092F2171092F11736
:1045B0008091F307882349F081E09AE590932111D7
:1045C0008093201180E290E008C081E09AE590930A
:1045D0002111809320118AE490E09093231180931D
:1045E000221187E08093141182E88093171184E8E8
:1045F00090E0A0E0B0E08093181190931911A0937F
:104600001A11B0931B110E947E947DCF8093CC052C
:104610001092F7070C94AC2FC12CD12C5BE9E52E3E
:1046200053E4F52E00E010E011C0C12CD12C4BE971
:10463000E42E43E4F42E01E010E008C0C12CD12C9C
:1046400039ECE32E33E4F32E02E010E0BC0180E00D
:1046500090E00E94B2E120E030E040E251E40E94AC
:10466000C3E82B013C0120E030E0A9010E94AEE14B
:104670005801AA0CBB1CAA0CBB1C87FF08C0F50183
:10468000EA5CF84E108211821282138214C0A701D4
:104690009601C301B2010E94AFE9F501EA5CF84E50
:1046A00018162CF0408251826282738204C0C0824C
:1046B000D182E282F382C8010E94F84820E030E013
:1046C00040E251E4609136177091371780913817A6
:1046D000909139170E9413E20E942BE970932111E7
:1046E0006093201105E00093141112E81093171144
:1046F00088E490E1A0E0B0E0809318119093191144
:10470000A0931A11B0931B110E947E9420E030E018
:1047100040E251E460913A1770913B1780913C1749
:1047200090913D170E9413E20E942BE97093211192
:104730006093201100931411109317118AE490E1F3
:10474000A0E0B0E08093181190931911A0931A1172
:10475000B0931B110E947E9420E030E040E251E4CF
:1047600060913E1770913F178091401790914117CB
:104770000E9413E20E942BE9709321116093201193
:1047800000931411109317118CE490E1A0E0B0E0B5
:104790008093181190931911A0931A11B0931B11C3
:1047A0000E947E9461E070E080E090E00E944B5DAA
:1047B0008AE090E0909321118093201100931411CE
:1047C0001093171180E092E1A0E0B0E080931811FF
:1047D00090931911A0931A11B0931B110E947E940B
:1047E0001092F7070C94AC2F83E090E00E942C68A5
:1047F000892B11F00C94AC2F8091C8109091C910A6
:10480000A091CA10B091CB10863530E19307A10575
:10481000B10509F0E2C28091D0109091D1108130A1
:104820009105C9F48091D10580935E051092D10560
:1048300020915F05309160054091610550916205BE
:1048400060914217709143178091441790914517DA
:104850000E944BE81CC08230910509F008C180918C
:10486000D10580935E051092D10520915F053091AE
:104870006005409161055091620560914217709109
:10488000431780914417909145170E944CE860931C
:104890004217709343178093441790934517809164
:1048A0006905882309F458C083E090E00E94F84825
:1048B00020E030E040E251E460915F0570916005D6
:1048C00080916105909162050E9413E20E942BE99C
:1048D000709321116093201105E00093141112E8E8
:1048E0001093171184E590E1A0E0B0E080931811D7
:1048F00090931911A0931A11B0931B110E947E94EA
:1049000020E030E040E251E460916305709164057D
:1049100080916505909166050E9413E20E942BE943
:1049200070932111609320110093141110931711AB
:1049300088E590E1A0E0B0E0809318119093191100
:10494000A0931A11B0931B110E947E9480915E0572
:104950008093D1050C94AC2FC0900002D09001023E
:10496000E0900202F090030220E030E040EA50E4E0
:10497000C701B6010E944BE89B01AC016091E805BC
:104980007091E9058091EA059091EB050E94AEE1F6
:1049900087FF8ACF81E080936905C701B6010E9435
:1049A0002BE9709321116093201185E080931411FD
:1049B00082E88093171180E290E1A0E0B0E080935C
:1049C000181190931911A0931A11B0931B110E9402
:1049D0007E9465E070E080E090E00E944B5D809105
:1049E000F307882311F181E09AE5909321118093D8
:1049F000201188E190E0909323118093221187E0A9
:104A00008093141182E88093171184E890E0A0E06D
:104A1000B0E08093181190931911A0931A11B093DC
:104A20001B110E947E940C94AC2F81E09AE5909328
:104A300021118093201182E490E0909323118093C0
:104A4000221187E08093141182E88093171184E883
:104A500090E0A0E0B0E08093181190931911A0931A
:104A60001A11B0931B110E947E940C94AC2F8330CA
:104A70009105D1F48091D10580935E0511E01093EA
:104A8000D1052091630530916405409165055091F1
:104A90006605609142177091431780914417909179
:104AA00045170E944BE81DC08430910509F046C0AF
:104AB0008091D10580935E0511E01093D10520917E
:104AC00063053091640540916505509166056091DC
:104AD00042177091431780914417909145170E9497
:104AE0004CE8609342177093431780934417909358
:104AF0004517809169058111D7CEC0900002D090F2
:104B00000102E0900202F090030220E030E040EA6F
:104B100050E4C701B6010E944BE89B01AC016091D3
:104B2000E8057091E9058091EA059091EB050E94F6
:104B3000AEE187FFB9CE109369052FCF853091057F
:104B400009F0E9C081E08093680500910E0610919C
:104B50000F06C0900002D0900102E0900202F09097
:104B60000302B801012E000C880B990B0E94B4E1DE
:104B7000A70196010E94AFE987FF05C0C701B601F2
:104B80000E942BE98B0110930F0600930E0620E084
:104B900030E048EC52E46091E8057091E9058091BD
:104BA000EA059091EB050E9413E26B017C01B801CC
:104BB000110F880B990B0E94B4E19B01AC01C70156
:104BC000B6010E94C3E80E9430E96436710510F016
:104BD00064E670E0709321116093201105E000936A
:104BE000141112E81093171184E290E1A0E0B0E0F4
:104BF0008093181190931911A0931A11B0931B115F
:104C00000E947E946091E8057091E9058091EA0523
:104C10009091EB050E942BE9709321116093201174
:104C2000009314111093171186E390E1A0E0B0E017
:104C30008093181190931911A0931A11B0931B111E
:104C40000E947E9480E00E949A6080910E0690916E
:104C50000F0690932111809320110093141110934B
:104C6000171184E390E1A0E0B0E0809318119093D5
:104C70001911A0931A11B0931B110E947E9465E044
:104C800070E080E090E00E944B5D8091F307882304
:104C900009F181E09AE590932111809320118AE136
:104CA00090E0909323118093221187E08093141158
:104CB0001093171184E890E0A0E0B0E08093181101
:104CC00090931911A0931A11B0931B110E947E9416
:104CD0000C94AC2F81E09AE59093211180932011E0
:104CE00084E490E0909323118093221187E08093D5
:104CF00014111093171184E890E0A0E0B0E08093C5
:104D0000181190931911A0931A11B0931B110E94BE
:104D10007E940C94AC2F8630910509F04AC0109215
:104D200069058091F307882311F181E09AE590935A
:104D300021118093201187E190E0909323118093BB
:104D4000221187E08093141182E88093171184E880
:104D500090E0A0E0B0E08093181190931911A09317
:104D60001A11B0931B110E947E940C94AC2F81E019
:104D70009AE5909321118093201181E490E0909323
:104D800023118093221187E08093141182E880938D
:104D9000171184E890E0A0E0B0E0809318119093A0
:104DA0001911A0931A11B0931B110E947E940C94B8
:104DB000AC2F813F910559F4109269051092680556
:104DC00061E070E080E090E00E944B5DAACF803F00
:104DD000910509F069CD0C94AC2F8435E0E19E0774
:104DE000A105B105C1F46091D0107091D11080E09F
:104DF00090E00E94B2E120E030E040E251E40E9405
:104E0000C3E860935F05709360058093610590939C
:104E100062050C94AC2F88359041A105B10511F0C5
:104E20000C94AC2F6091D0107091D11080E090E084
:104E30000E94B2E120E030E040E251E40E94C3E889
:104E40006093630570936405809365059093660590
:104E50000C94AC2F6091D0106093F3078AE590E03A
:104E60000E94D1E790911B0E8091F3079923C1F125
:104E70008823D1F0109221111092201185E08093A7
:104E8000141182E88093171184E190E1A0E0B0E072
:104E90008093181190931911A0931A11B0931B11BC
:104EA0000E947E940C94AC2F8CE090E090932111A2
:104EB0008093201185E08093141182E8809317116C
:104EC00084E190E1A0E0B0E0809318119093191173
:104ED000A0931A11B0931B110E947E940C94AC2FD6
:104EE0008823E1F086E090E09093211180932011D7
:104EF00085E08093141182E88093171184E190E19A
:104F0000A0E0B0E08093181190931911A0931A11AA
:104F1000B0931B110E947E940C94AC2F82E190E020
:104F2000909321118093201185E08093141182E8E1
:104F30008093171184E190E1A0E0B0E08093181114
:104F400090931911A0931A11B0931B110E947E9493
:104F50000C94AC2F8091D0109091D110813091059C
:104F600009F0ECC180E090E00E942C68892B09F0E8
:104F7000F3C78091F407813009F0F4C082E795E02F
:104F80000E9439978DED92E09093040A8093030A72
:104F90000E94D7ABC12C90E2D92EE12CF12C05E078
:104FA00012E8109221111092201100931411109305
:104FB0001711C0921811D0921911E0921A11F092A3
:104FC0001B110E947E942FEFC21AD20AE20AF20A43
:104FD0003AE0C31630E2D306E104F10411F7809100
:104FE0007105A2E18A02C0011124FC01E658F74EC6
:104FF0007F0101900020E9F7A7014E1B5F0B4D5E7A
:105000005F4F57FF02C04F5F5F4F8A0115950795AD
:1050100010161106DCF49E012F5F3F4F690184E1F9
:10502000D9011D928A95E9F7A80165E773E0C901E6
:105030000E94C9EAB701C601800F911F0E94B4EA1D
:1050400040E050E260E070E0C60105C040E050E2A0
:1050500060E070E0C7010E94E46762E070E080E019
:1050600090E00E944B5D8091F307882349F181E035
:1050700090E0909321118093201185E0809314118A
:1050800012E81093171184E190E1A0E0B0E0809362
:10509000181190931911A0931A11B0931B110E942B
:1050A0007E9462E070E080E090E00E944B5D81E0E1
:1050B0009AE590932111809320118AE090E028C016
:1050C0008DE090E0909321118093201185E08093F2
:1050D000141112E81093171184E190E1A0E0B0E000
:1050E0008093181190931911A0931A11B0931B116A
:1050F0000E947E9462E070E080E090E00E944B5D50
:1051000081E09AE5909321118093201184E390E04F
:10511000909323118093221187E0809314111093B0
:10512000171184E890E0A0E0B0E08093181190930C
:105130001911A0931A11B0931B110E947E9481E063
:1051400080935D028093BD178093C01793E0909386
:10515000C117809324181092C916109271051092ED
:10516000F407FAC6823009F0E5C05E01B3E3AB0E86
:10517000B11C00E1F02EF5012F2D11922A95E9F7CF
:105180006091AA057091AB058091AC059091AD0539
:10519000850122E043E00E94FADC6E013FE1C30E8C
:1051A000D11CD6011D92FA94E9F76091A605709181
:1051B000A7058091A8059091A905860122E043E00A
:1051C0000E94FADC80916E058F9380916D058F931C
:1051D00084ED92E09F938F93FE0131967F01FF93C0
:1051E000EF930E947FE1C7010E9439971EE1D7012A
:1051F000E12F1D92EA95E9F78091A5058F938091A3
:10520000A4058F938BEC92E09F938F93FF92EF9284
:105210000E947FE1C7010E943997D7011D921A951C
:10522000E9F7BF92AF9284EC92E09F938F93FF9245
:10523000EF920E947FE1C7010E943997DF92CF92DF
:105240008CEB92E09F938F93FF92EF920E947FE10D
:10525000C7010E94399710926E0510926D05109249
:10526000A5051092A4050FB6F894DEBF0FBECDBF02
:1052700080911B0E882319F081E080931A0E0E9402
:105280008A688091F307882319F081E090E002C0DA
:105290008DE090E0909321118093201185E0809320
:1052A000141182E88093171184E190E1A0E0B0E04E
:1052B0008093181190931911A0931A11B0931B1198
:1052C0000E947E941092C91683E08093C11781E0FA
:1052D000809324188091F307882349F081E09AE5B0
:1052E00090932111809320118AE090E008C081E022
:1052F0009AE5909321118093201184E390E090939C
:1053000023118093221187E08093141182E8809307
:10531000171184E890E0A0E0B0E08093181190931A
:105320001911A0931A11B0931B110E947E94109230
:10533000F40712C6833009F00FC6F3CC892B09F0AD
:105340000BC68091F407813081F58091F3078823A3
:1053500049F081E09AE5909321118093201182E039
:1053600090E008C081E09AE590932111809320118C
:105370008EE290E0909323118093221187E0809336
:10538000141182E88093171184E890E0A0E0B0E067
:105390008093181190931911A0931A11B0931B11B7
:1053A0000E947E941092C01747C08230B1F4809161
:1053B000F307882349F081E09AE5909321118093C7
:1053C00020118CE090E020C081E09AE590932111BB
:1053D0008093201186E390E017C0833069F58091B7
:1053E000F307882349F081E09AE590932111809397
:1053F000201187E190E008C081E09AE590932111A7
:105400008093201181E490E09093231180932211E6
:1054100087E08093141182E88093171184E890E06C
:10542000A0E0B0E08093181190931911A0931A1185
:10543000B0931B110E947E941092F4078DC5E090EA
:10544000D010F090D110F1E0EF16F10409F032C164
:105450008091C4179091C517181619060CF07CC5D9
:105460008091FC0A8F938091FB0A8F9383EB92E0EB
:105470009F938F938E010F5F1F4F1F930F930E9477
:105480007FE1C8010E9439978091FA0A8F93809139
:10549000F90A8F938AEA92E09F938F931F930F9359
:1054A0000E947FE1C8010E94399780EA92E09093C0
:1054B000040A8093030A0E94D7ABF0925D05E09244
:1054C0005C058FEF90E09093C3178093C217109202
:1054D0005F021092C91681E08093C01793E0909309
:1054E000C1178093CD0580935D028093BD17809393
:1054F00024181092F2171092F1171092D0171092F0
:10550000CF170FB6F894DEBF0FBECDBF8091F30763
:10551000882309F1F0922111E092201185E0809317
:10552000141112E81093171184E190E1A0E0B0E0AB
:105530008093181190931911A0931A11B0931B1115
:105540000E947E9481E09AE590932111809320112E
:105550008AE090E022C08DE090E09093211180934A
:10556000201185E08093141112E81093171184E143
:1055700090E1A0E0B0E08093181190931911A093EE
:105580001A11B0931B110E947E9481E09AE59093CA
:1055900021118093201184E390E090932311809354
:1055A000221187E0809314111093171184E890E082
:1055B000A0E0B0E08093181190931911A0931A11F4
:1055C000B0931B110E947E949091F30780910D027D
:1055D0009923C1F18823D9F087E090E090932111BD
:1055E0008093201185E08093141182E88093171135
:1055F00088E190E1A0E0B0E0809318119093191138
:10560000A0931A11B0931B110E947E94A5C488E048
:1056100090E0909321118093201185E080931411E4
:1056200082E88093171188E190E1A0E0B0E08093D8
:10563000181190931911A0931A11B0931B110E9485
:105640007E948AC48823D9F089E090E09093211158
:105650008093201185E08093141182E880931711C4
:1056600088E190E1A0E0B0E08093181190931911C7
:10567000A0931A11B0931B110E947E946DC48AE00E
:1056800090E0909321118093201185E08093141174
:1056900082E88093171188E190E1A0E0B0E0809368
:1056A000181190931911A0931A11B0931B110E9415
:1056B0007E9452C432E0E316F10409F04DC481E057
:1056C00080935D021092BD1780EA9FE09093F217DD
:1056D0008093F1178091F307882349F081E09AE5E0
:1056E000909321118093201181E090E008C081E027
:1056F0009AE590932111809320118DE290E0909390
:1057000023118093221187E08093141182E8809303
:10571000171184E890E0A0E0B0E080931811909316
:105720001911A0931A11B0931B110E947E940E942C
:1057300080638091BC178093BB171092BA170E94A8
:105740001AC00E9465940E94E46010920B0E1092A1
:105750000A0E1092100E1092110E1092120E10924C
:10576000130E1092140E1092150E1092160E109227
:10577000170E10920C0E10920D0E10920E0E10922B
:105780000F0E6AE588E19DE00E94D2961092E00A31
:105790001092280D0E942B97019669F40FE713E0F1
:1057A000F80181918F01882319F00E9487CCF8CFEE
:1057B0008AE00E9487CC84E090E10E94786A10928F
:1057C000C5171092C41710925E021092C01764EFB2
:1057D00071E080E090E00E944B5DBEC38091D010EC
:1057E0009091D1108F3F910531F028F08FEF90E02C
:1057F000A0E0B0E002C0A0E0B0E080930E02909381
:105800000F02A0931002B093110280910E029091AA
:105810000F02A0911002B09111020097A105B105ED
:1058200019F5109221111092201105E00093141126
:1058300012E8109317118AE890E1A0E0B0E080939D
:10584000181190931911A0931A11B0931B110E9473
:105850007E9489E090E09093211180932011009331
:1058600014111093171122C00196A11DB11D15E04E
:10587000B695A795979587951A95D1F7BC01CD0157
:1058800061507109810991092AE830E140E050E056
:105890000E94219588E090E090932111809320113F
:1058A00085E08093141182E8809317118CE890E1D1
:1058B000A0E0B0E08093181190931911A0931A11F1
:1058C000B0931B110E947E9460910E028EE590E0D1
:1058D0000E94D1E780910E0290910F02A0911002D8
:1058E000B09111026627782F892F9A2F21EA30E094
:1058F00040E050E00E9421952FC320911B0E2223EF
:1059000009F456C1433DF0E25F076105710509F0F6
:105910004FC18091D0109091D110209128183091D2
:1059200029182817390708F417C3815080932718BE
:10593000E4ED8E2EE0E29E2EA12CB12C05E012E8C3
:10594000109221111092201100931411109317112D
:105950008092181190921911A0921A11B0921B11F5
:105960000E947E942FEF821A920AA20AB20A3EED9A
:10597000831630E29306A104B10411F78091271831
:10598000A2E18A02C0011124FC01E658F74E7F0112
:1059900001900020E9F7A7014E1B5F0B4D5E5F4FA2
:1059A00057FF02C04F5F5F4F8A011595079510168C
:1059B0001106FCF49E012F5F3F4F690184E1D9017C
:1059C0001D928A95E9F7A80165E773E0C9010E9475
:1059D000C9EAB701C601800F911F0E94B4EA44EDE5
:1059E00050E260E070E0C6010E94E46705E012E862
:1059F00006C044ED50E260E070E0C701F5CF1092C0
:105A000021111092201100931411109317118092FC
:105A1000181190921911A0921A11B0921B110E94A4
:105A20007E94BFEF8B1A9B0AAB0ABB0AE6EE8E167A
:105A3000E0E29E06A104B10411F78E010F5F1F4F33
:105A400084E1D8011D928A95E9F7809129188F93F6
:105A5000809128188F938091D1108F938091D010CE
:105A60008F9384EA93E09F938F931F930F930E94E9
:105A7000D8EA4EED50E260E070E0C8010E94E467B1
:105A800062E070E080E090E00E944B5D0FB6F89419
:105A9000DEBF0FBECDBF31E2C32E32E1D32EE12CEB
:105AA000F12C43E1442E40E6542E612C712C8824C5
:105AB0008A94982C15E002E86AE0A62EB12C209179
:105AC000281830912918C6018052924128173907A9
:105AD0007CF1909221118092201110931411009367
